{
  "_format": "hh-sol-artifact-1",
  "contractName": "CryptoTrex",
  "sourceName": "contracts/CryptoTrex.sol",
  "abi": [
    {
      "anonymous": false,
      "inputs": [
        {
          "indexed": true,
          "internalType": "address",
          "name": "owner",
          "type": "address"
        },
        {
          "indexed": true,
          "internalType": "address",
          "name": "approved",
          "type": "address"
        },
        {
          "indexed": true,
          "internalType": "uint256",
          "name": "tokenId",
          "type": "uint256"
        }
      ],
      "name": "Approval",
      "type": "event"
    },
    {
      "anonymous": false,
      "inputs": [
        {
          "indexed": true,
          "internalType": "address",
          "name": "owner",
          "type": "address"
        },
        {
          "indexed": true,
          "internalType": "address",
          "name": "operator",
          "type": "address"
        },
        {
          "indexed": false,
          "internalType": "bool",
          "name": "approved",
          "type": "bool"
        }
      ],
      "name": "ApprovalForAll",
      "type": "event"
    },
    {
      "anonymous": false,
      "inputs": [
        {
          "indexed": true,
          "internalType": "address",
          "name": "previousOwner",
          "type": "address"
        },
        {
          "indexed": true,
          "internalType": "address",
          "name": "newOwner",
          "type": "address"
        }
      ],
      "name": "OwnershipTransferred",
      "type": "event"
    },
    {
      "anonymous": false,
      "inputs": [
        {
          "indexed": true,
          "internalType": "address",
          "name": "from",
          "type": "address"
        },
        {
          "indexed": true,
          "internalType": "address",
          "name": "to",
          "type": "address"
        },
        {
          "indexed": true,
          "internalType": "uint256",
          "name": "tokenId",
          "type": "uint256"
        }
      ],
      "name": "Transfer",
      "type": "event"
    },
    {
      "inputs": [
        {
          "internalType": "address",
          "name": "to",
          "type": "address"
        },
        {
          "internalType": "uint256",
          "name": "tokenId",
          "type": "uint256"
        }
      ],
      "name": "approve",
      "outputs": [],
      "stateMutability": "nonpayable",
      "type": "function"
    },
    {
      "inputs": [
        {
          "internalType": "address",
          "name": "owner",
          "type": "address"
        }
      ],
      "name": "balanceOf",
      "outputs": [
        {
          "internalType": "uint256",
          "name": "",
          "type": "uint256"
        }
      ],
      "stateMutability": "view",
      "type": "function"
    },
    {
      "inputs": [],
      "name": "baseTokenURI",
      "outputs": [
        {
          "internalType": "string",
          "name": "",
          "type": "string"
        }
      ],
      "stateMutability": "view",
      "type": "function"
    },
    {
      "inputs": [
        {
          "internalType": "uint256[]",
          "name": "_tokenIds",
          "type": "uint256[]"
        }
      ],
      "name": "claim",
      "outputs": [],
      "stateMutability": "nonpayable",
      "type": "function"
    },
    {
      "inputs": [
        {
          "internalType": "uint256",
          "name": "tokenId",
          "type": "uint256"
        }
      ],
      "name": "getApproved",
      "outputs": [
        {
          "internalType": "address",
          "name": "",
          "type": "address"
        }
      ],
      "stateMutability": "view",
      "type": "function"
    },
    {
      "inputs": [
        {
          "internalType": "address",
          "name": "_v1contract",
          "type": "address"
        },
        {
          "internalType": "address",
          "name": "_tokenContract",
          "type": "address"
        }
      ],
      "name": "initialize",
      "outputs": [],
      "stateMutability": "nonpayable",
      "type": "function"
    },
    {
      "inputs": [
        {
          "internalType": "address",
          "name": "owner",
          "type": "address"
        },
        {
          "internalType": "address",
          "name": "operator",
          "type": "address"
        }
      ],
      "name": "isApprovedForAll",
      "outputs": [
        {
          "internalType": "bool",
          "name": "",
          "type": "bool"
        }
      ],
      "stateMutability": "view",
      "type": "function"
    },
    {
      "inputs": [
        {
          "internalType": "uint256",
          "name": "_tokenId",
          "type": "uint256"
        }
      ],
      "name": "migrate",
      "outputs": [],
      "stateMutability": "nonpayable",
      "type": "function"
    },
    {
      "inputs": [
        {
          "internalType": "uint256[]",
          "name": "_tokenIds",
          "type": "uint256[]"
        }
      ],
      "name": "migrateBatch",
      "outputs": [],
      "stateMutability": "nonpayable",
      "type": "function"
    },
    {
      "inputs": [],
      "name": "name",
      "outputs": [
        {
          "internalType": "string",
          "name": "",
          "type": "string"
        }
      ],
      "stateMutability": "view",
      "type": "function"
    },
    {
      "inputs": [],
      "name": "owner",
      "outputs": [
        {
          "internalType": "address",
          "name": "",
          "type": "address"
        }
      ],
      "stateMutability": "view",
      "type": "function"
    },
    {
      "inputs": [
        {
          "internalType": "uint256",
          "name": "tokenId",
          "type": "uint256"
        }
      ],
      "name": "ownerOf",
      "outputs": [
        {
          "internalType": "address",
          "name": "",
          "type": "address"
        }
      ],
      "stateMutability": "view",
      "type": "function"
    },
    {
      "inputs": [],
      "name": "renounceOwnership",
      "outputs": [],
      "stateMutability": "nonpayable",
      "type": "function"
    },
    {
      "inputs": [
        {
          "internalType": "uint256[]",
          "name": "_tokenIds",
          "type": "uint256[]"
        }
      ],
      "name": "rewards",
      "outputs": [
        {
          "internalType": "uint256",
          "name": "",
          "type": "uint256"
        }
      ],
      "stateMutability": "view",
      "type": "function"
    },
    {
      "inputs": [
        {
          "internalType": "address",
          "name": "from",
          "type": "address"
        },
        {
          "internalType": "address",
          "name": "to",
          "type": "address"
        },
        {
          "internalType": "uint256",
          "name": "tokenId",
          "type": "uint256"
        }
      ],
      "name": "safeTransferFrom",
      "outputs": [],
      "stateMutability": "nonpayable",
      "type": "function"
    },
    {
      "inputs": [
        {
          "internalType": "address",
          "name": "from",
          "type": "address"
        },
        {
          "internalType": "address",
          "name": "to",
          "type": "address"
        },
        {
          "internalType": "uint256",
          "name": "tokenId",
          "type": "uint256"
        },
        {
          "internalType": "bytes",
          "name": "_data",
          "type": "bytes"
        }
      ],
      "name": "safeTransferFrom",
      "outputs": [],
      "stateMutability": "nonpayable",
      "type": "function"
    },
    {
      "inputs": [
        {
          "internalType": "address",
          "name": "operator",
          "type": "address"
        },
        {
          "internalType": "bool",
          "name": "approved",
          "type": "bool"
        }
      ],
      "name": "setApprovalForAll",
      "outputs": [],
      "stateMutability": "nonpayable",
      "type": "function"
    },
    {
      "inputs": [],
      "name": "setStakingStartTimestamp",
      "outputs": [],
      "stateMutability": "nonpayable",
      "type": "function"
    },
    {
      "inputs": [
        {
          "internalType": "bool",
          "name": "value",
          "type": "bool"
        }
      ],
      "name": "setStakingStatus",
      "outputs": [],
      "stateMutability": "nonpayable",
      "type": "function"
    },
    {
      "inputs": [
        {
          "internalType": "string",
          "name": "_uri",
          "type": "string"
        }
      ],
      "name": "setTokenURI",
      "outputs": [],
      "stateMutability": "nonpayable",
      "type": "function"
    },
    {
      "inputs": [
        {
          "internalType": "bytes4",
          "name": "interfaceId",
          "type": "bytes4"
        }
      ],
      "name": "supportsInterface",
      "outputs": [
        {
          "internalType": "bool",
          "name": "",
          "type": "bool"
        }
      ],
      "stateMutability": "view",
      "type": "function"
    },
    {
      "inputs": [],
      "name": "symbol",
      "outputs": [
        {
          "internalType": "string",
          "name": "",
          "type": "string"
        }
      ],
      "stateMutability": "view",
      "type": "function"
    },
    {
      "inputs": [
        {
          "internalType": "uint256",
          "name": "_tokenId",
          "type": "uint256"
        }
      ],
      "name": "tokenURI",
      "outputs": [
        {
          "internalType": "string",
          "name": "",
          "type": "string"
        }
      ],
      "stateMutability": "view",
      "type": "function"
    },
    {
      "inputs": [
        {
          "internalType": "address",
          "name": "from",
          "type": "address"
        },
        {
          "internalType": "address",
          "name": "to",
          "type": "address"
        },
        {
          "internalType": "uint256",
          "name": "tokenId",
          "type": "uint256"
        }
      ],
      "name": "transferFrom",
      "outputs": [],
      "stateMutability": "nonpayable",
      "type": "function"
    },
    {
      "inputs": [
        {
          "internalType": "address",
          "name": "newOwner",
          "type": "address"
        }
      ],
      "name": "transferOwnership",
      "outputs": [],
      "stateMutability": "nonpayable",
      "type": "function"
    }
  ],
  "bytecode": "0x608060405234801561001057600080fd5b50612aa6806100206000396000f3fe608060405234801561001057600080fd5b50600436106101a35760003560e01c806370a08231116100ee578063b88d4fde11610097578063d547cfb711610071578063d547cfb714610353578063e0df5b6f1461035b578063e985e9c51461036e578063f2fde38b146103aa57600080fd5b8063b88d4fde1461031a578063b8bec6a01461032d578063c87b56dd1461034057600080fd5b806395d89b41116100c857806395d89b41146102f75780639a9120c3146102ff578063a22cb4651461030757600080fd5b806370a08231146102cb578063715018a6146102de5780638da5cb5b146102e657600080fd5b806323b872dd11610150578063485cc9551161012a578063485cc955146102925780636352211e146102a55780636ba4c138146102b857600080fd5b806323b872dd1461025957806342842e0e1461026c578063454b06081461027f57600080fd5b8063081812fc11610181578063081812fc14610206578063095ea7b3146102315780630c794a6d1461024657600080fd5b806301ffc9a7146101a857806302ff1721146101d057806306fdde03146101f1575b600080fd5b6101bb6101b636600461262f565b6103bd565b60405190151581526020015b60405180910390f35b6101e36101de3660046125a5565b61045a565b6040519081526020016101c7565b6101f961051f565b6040516101c7919061290d565b6102196102143660046126c2565b6105b1565b6040516001600160a01b0390911681526020016101c7565b61024461023f36600461257c565b610646565b005b6102446102543660046125a5565b610778565b610244610267366004612443565b610af8565b61024461027a366004612443565b610b7f565b61024461028d3660046126c2565b610b9a565b6102446102a0366004612411565b610d93565b6102196102b33660046126c2565b610fa8565b6102446102c63660046125a5565b611033565b6101e36102d93660046123f7565b6111d9565b610244611273565b6097546001600160a01b0316610219565b6101f96112d9565b6102446112e8565b610244610315366004612553565b611348565b61024461032836600461247e565b61140d565b61024461033b366004612615565b61149b565b6101f961034e3660046126c2565b611508565b6101f961153c565b610244610369366004612667565b61154b565b6101bb61037c366004612411565b6001600160a01b039182166000908152606a6020908152604080832093909416825291909152205460ff1690565b6102446103b83660046123f7565b6115b1565b60006001600160e01b031982167f80ac58cd00000000000000000000000000000000000000000000000000000000148061042057506001600160e01b031982167f5b5e139f00000000000000000000000000000000000000000000000000000000145b8061045457507f01ffc9a7000000000000000000000000000000000000000000000000000000006001600160e01b03198316145b92915050565b60cd5460009060ff166104be5760405162461bcd60e51b815260206004820152602160248201527f43727970746f547265783a207374616b696e67206973206e6f742061637469766044820152606560f81b60648201526084015b60405180910390fd5b6000805b83811015610517576104f98585838181106104ed57634e487b7160e01b600052603260045260246000fd5b90506020020135611693565b6105039083612920565b91508061050f816129e9565b9150506104c2565b509392505050565b60606065805461052e906129ae565b80601f016020809104026020016040519081016040528092919081815260200182805461055a906129ae565b80156105a75780601f1061057c576101008083540402835291602001916105a7565b820191906000526020600020905b81548152906001019060200180831161058a57829003601f168201915b5050505050905090565b6000818152606760205260408120546001600160a01b031661062a5760405162461bcd60e51b815260206004820152602c60248201527f4552433732313a20617070726f76656420717565727920666f72206e6f6e657860448201526b34b9ba32b73a103a37b5b2b760a11b60648201526084016104b5565b506000908152606960205260409020546001600160a01b031690565b600061065182610fa8565b9050806001600160a01b0316836001600160a01b031614156106db5760405162461bcd60e51b815260206004820152602160248201527f4552433732313a20617070726f76616c20746f2063757272656e74206f776e6560448201527f720000000000000000000000000000000000000000000000000000000000000060648201526084016104b5565b336001600160a01b03821614806106f757506106f7813361037c565b6107695760405162461bcd60e51b815260206004820152603860248201527f4552433732313a20617070726f76652063616c6c6572206973206e6f74206f7760448201527f6e6572206e6f7220617070726f76656420666f7220616c6c000000000000000060648201526084016104b5565b61077383836116dc565b505050565b603281106107c85760405162461bcd60e51b815260206004820152601e60248201527f43727970746f547265783a20746f6f206d616e7920746f2068616e646c65000060448201526064016104b5565b806108155760405162461bcd60e51b815260206004820152601e60248201527f43727970746f547265783a206e6f7468696e6720746f206d696772617465000060448201526064016104b5565b60008167ffffffffffffffff81111561083e57634e487b7160e01b600052604160045260246000fd5b604051908082528060200260200182016040528015610867578160200160208202803683370190505b50905060005b828110156109eb5760c9546000906001600160a01b031662fdd58e338787868181106108a957634e487b7160e01b600052603260045260246000fd5b6040516001600160e01b031960e087901b1681526001600160a01b039094166004850152602002919091013560248301525060440160206040518083038186803b1580156108f657600080fd5b505afa15801561090a573d6000803e3d6000fd5b505050506040513d601f19601f8201168201806040525081019061092e91906126da565b1161097b5760405162461bcd60e51b815260206004820152601860248201527f43727970746f547265783a206e6f7420616e206f776e6572000000000000000060448201526064016104b5565b600182828151811061099d57634e487b7160e01b600052603260045260246000fd5b6020026020010181815250506109d9338585848181106109cd57634e487b7160e01b600052603260045260246000fd5b90506020020135611757565b806109e3816129e9565b91505061086d565b5060ca546001600160a01b03166340c10f1933610a1085678ac7230489e8000061294c565b6040516001600160e01b031960e085901b1681526001600160a01b0390921660048301526024820152604401600060405180830381600087803b158015610a5657600080fd5b505af1158015610a6a573d6000803e3d6000fd5b505060c9546040517f2eb2c2d60000000000000000000000000000000000000000000000000000000081526001600160a01b039091169250632eb2c2d69150610ac190339061dead9088908890889060040161280c565b600060405180830381600087803b158015610adb57600080fd5b505af1158015610aef573d6000803e3d6000fd5b50505050505050565b610b0233826118a6565b610b745760405162461bcd60e51b815260206004820152603160248201527f4552433732313a207472616e736665722063616c6c6572206973206e6f74206f60448201527f776e6572206e6f7220617070726f76656400000000000000000000000000000060648201526084016104b5565b61077383838361199d565b6107738383836040518060200160405280600081525061140d565b60c9546040517efdd58e000000000000000000000000000000000000000000000000000000008152336004820152602481018390526000916001600160a01b03169062fdd58e9060440160206040518083038186803b158015610bfc57600080fd5b505afa158015610c10573d6000803e3d6000fd5b505050506040513d601f19601f82011682018060405250810190610c3491906126da565b11610c815760405162461bcd60e51b815260206004820152601860248201527f43727970746f547265783a206e6f7420616e206f776e6572000000000000000060448201526064016104b5565b60ca546040516340c10f1960e01b8152336004820152678ac7230489e8000060248201526001600160a01b03909116906340c10f1990604401600060405180830381600087803b158015610cd457600080fd5b505af1158015610ce8573d6000803e3d6000fd5b50505050610cf63382611757565b60c9546040517ff242432a00000000000000000000000000000000000000000000000000000000815233600482015261dead6024820152604481018390526001606482015260a06084820152600060a48201526001600160a01b039091169063f242432a9060c401600060405180830381600087803b158015610d7857600080fd5b505af1158015610d8c573d6000803e3d6000fd5b5050505050565b600054610100900460ff1680610dac575060005460ff16155b610e0f5760405162461bcd60e51b815260206004820152602e60248201527f496e697469616c697a61626c653a20636f6e747261637420697320616c72656160448201526d191e481a5b9a5d1a585b1a5e995960921b60648201526084016104b5565b600054610100900460ff16158015610e31576000805461ffff19166101011790555b610ea56040518060400160405280600a81526020017f43727970746f54726578000000000000000000000000000000000000000000008152506040518060400160405280600481526020017f5452455800000000000000000000000000000000000000000000000000000000815250611b77565b610ead611c2f565b60c980546001600160a01b0380861673ffffffffffffffffffffffffffffffffffffffff199283161790925560ca805492851692909116919091179055610f14337fd640cf88f763cee6b243f1cab3d0befdafc47b9e000000000004950000000001611757565b610f3e337fd640cf88f763cee6b243f1cab3d0befdafc47b9e000000000004960000000001611757565b610f68337fd640cf88f763cee6b243f1cab3d0befdafc47b9e000000000004970000000001611757565b610f92337fd640cf88f763cee6b243f1cab3d0befdafc47b9e000000000004980000000001611757565b8015610773576000805461ff0019169055505050565b6000818152606760205260408120546001600160a01b0316806104545760405162461bcd60e51b815260206004820152602960248201527f4552433732313a206f776e657220717565727920666f72206e6f6e657869737460448201527f656e7420746f6b656e000000000000000000000000000000000000000000000060648201526084016104b5565b60cd5460ff1661108f5760405162461bcd60e51b815260206004820152602160248201527f43727970746f547265783a207374616b696e67206973206e6f742061637469766044820152606560f81b60648201526084016104b5565b6000805b828110156111a157336110cb8585848181106110bf57634e487b7160e01b600052603260045260246000fd5b90506020020135610fa8565b6001600160a01b0316146111215760405162461bcd60e51b815260206004820152601560248201527f43727970746f547265783a206e6f74206f776e6564000000000000000000000060448201526064016104b5565b6111448484838181106104ed57634e487b7160e01b600052603260045260246000fd5b61114e9083612920565b91504260ce600086868581811061117557634e487b7160e01b600052603260045260246000fd5b905060200201358152602001908152602001600020819055508080611199906129e9565b915050611093565b5060ca546040516340c10f1960e01b8152336004820152602481018390526001600160a01b03909116906340c10f1990604401610ac1565b60006001600160a01b0382166112575760405162461bcd60e51b815260206004820152602a60248201527f4552433732313a2062616c616e636520717565727920666f7220746865207a6560448201527f726f20616464726573730000000000000000000000000000000000000000000060648201526084016104b5565b506001600160a01b031660009081526068602052604090205490565b6097546001600160a01b031633146112cd5760405162461bcd60e51b815260206004820181905260248201527f4f776e61626c653a2063616c6c6572206973206e6f7420746865206f776e657260448201526064016104b5565b6112d76000611cf1565b565b60606066805461052e906129ae565b6097546001600160a01b031633146113425760405162461bcd60e51b815260206004820181905260248201527f4f776e61626c653a2063616c6c6572206973206e6f7420746865206f776e657260448201526064016104b5565b4260cf55565b6001600160a01b0382163314156113a15760405162461bcd60e51b815260206004820152601960248201527f4552433732313a20617070726f766520746f2063616c6c65720000000000000060448201526064016104b5565b336000818152606a602090815260408083206001600160a01b03871680855290835292819020805460ff191686151590811790915590519081529192917f17307eab39ab6107e8899845ad3d59bd9653f200f220920489ca2b5937696c31910160405180910390a35050565b61141733836118a6565b6114895760405162461bcd60e51b815260206004820152603160248201527f4552433732313a207472616e736665722063616c6c6572206973206e6f74206f60448201527f776e6572206e6f7220617070726f76656400000000000000000000000000000060648201526084016104b5565b61149584848484611d50565b50505050565b6097546001600160a01b031633146114f55760405162461bcd60e51b815260206004820181905260248201527f4f776e61626c653a2063616c6c6572206973206e6f7420746865206f776e657260448201526064016104b5565b60cd805460ff1916911515919091179055565b606060cc61151583611dd9565b60405160200161152692919061273a565b6040516020818303038152906040529050919050565b606060cc805461052e906129ae565b6097546001600160a01b031633146115a55760405162461bcd60e51b815260206004820181905260248201527f4f776e61626c653a2063616c6c6572206973206e6f7420746865206f776e657260448201526064016104b5565b61077360cc83836122be565b6097546001600160a01b0316331461160b5760405162461bcd60e51b815260206004820181905260248201527f4f776e61626c653a2063616c6c6572206973206e6f7420746865206f776e657260448201526064016104b5565b6001600160a01b0381166116875760405162461bcd60e51b815260206004820152602660248201527f4f776e61626c653a206e6577206f776e657220697320746865207a65726f206160448201527f646472657373000000000000000000000000000000000000000000000000000060648201526084016104b5565b61169081611cf1565b50565b600081815260ce6020526040812054806116ac575060cf545b6170806116b9824261296b565b6116cb90670de0b6b3a764000061294c565b6116d59190612938565b9392505050565b6000818152606960205260409020805473ffffffffffffffffffffffffffffffffffffffff19166001600160a01b038416908117909155819061171e82610fa8565b6001600160a01b03167f8c5be1e5ebec7d5bd14f71427d1e84f3dd0314c0f7b2291e5b200ac8c7c3b92560405160405180910390a45050565b6001600160a01b0382166117ad5760405162461bcd60e51b815260206004820181905260248201527f4552433732313a206d696e7420746f20746865207a65726f206164647265737360448201526064016104b5565b6000818152606760205260409020546001600160a01b0316156118125760405162461bcd60e51b815260206004820152601c60248201527f4552433732313a20746f6b656e20616c7265616479206d696e7465640000000060448201526064016104b5565b6001600160a01b038216600090815260686020526040812080546001929061183b908490612920565b9091555050600081815260676020526040808220805473ffffffffffffffffffffffffffffffffffffffff19166001600160a01b03861690811790915590518392907fddf252ad1be2c89b69c2b068fc378daa952ba7f163c4a11628f55a4df523b3ef908290a45050565b6000818152606760205260408120546001600160a01b031661191f5760405162461bcd60e51b815260206004820152602c60248201527f4552433732313a206f70657261746f7220717565727920666f72206e6f6e657860448201526b34b9ba32b73a103a37b5b2b760a11b60648201526084016104b5565b600061192a83610fa8565b9050806001600160a01b0316846001600160a01b031614806119655750836001600160a01b031661195a846105b1565b6001600160a01b0316145b8061199557506001600160a01b038082166000908152606a602090815260408083209388168352929052205460ff165b949350505050565b826001600160a01b03166119b082610fa8565b6001600160a01b031614611a2c5760405162461bcd60e51b815260206004820152602960248201527f4552433732313a207472616e73666572206f6620746f6b656e2074686174206960448201527f73206e6f74206f776e000000000000000000000000000000000000000000000060648201526084016104b5565b6001600160a01b038216611aa75760405162461bcd60e51b8152602060048201526024808201527f4552433732313a207472616e7366657220746f20746865207a65726f2061646460448201527f726573730000000000000000000000000000000000000000000000000000000060648201526084016104b5565b611ab26000826116dc565b6001600160a01b0383166000908152606860205260408120805460019290611adb90849061296b565b90915550506001600160a01b0382166000908152606860205260408120805460019290611b09908490612920565b9091555050600081815260676020526040808220805473ffffffffffffffffffffffffffffffffffffffff19166001600160a01b0386811691821790925591518493918716917fddf252ad1be2c89b69c2b068fc378daa952ba7f163c4a11628f55a4df523b3ef91a4505050565b600054610100900460ff1680611b90575060005460ff16155b611bf35760405162461bcd60e51b815260206004820152602e60248201527f496e697469616c697a61626c653a20636f6e747261637420697320616c72656160448201526d191e481a5b9a5d1a585b1a5e995960921b60648201526084016104b5565b600054610100900460ff16158015611c15576000805461ffff19166101011790555b611c1d611f27565b611c25611f27565b610f928383611fd8565b600054610100900460ff1680611c48575060005460ff16155b611cab5760405162461bcd60e51b815260206004820152602e60248201527f496e697469616c697a61626c653a20636f6e747261637420697320616c72656160448201526d191e481a5b9a5d1a585b1a5e995960921b60648201526084016104b5565b600054610100900460ff16158015611ccd576000805461ffff19166101011790555b611cd5611f27565b611cdd6120b4565b8015611690576000805461ff001916905550565b609780546001600160a01b0383811673ffffffffffffffffffffffffffffffffffffffff19831681179093556040519116919082907f8be0079c531659141344cd1fd0a4f28419497f9722a3daafe3b4186f6b6457e090600090a35050565b611d5b84848461199d565b611d678484848461215b565b6114955760405162461bcd60e51b815260206004820152603260248201527f4552433732313a207472616e7366657220746f206e6f6e20455243373231526560448201527f63656976657220696d706c656d656e746572000000000000000000000000000060648201526084016104b5565b606081611e1957505060408051808201909152600181527f3000000000000000000000000000000000000000000000000000000000000000602082015290565b8160005b8115611e435780611e2d816129e9565b9150611e3c9050600a83612938565b9150611e1d565b60008167ffffffffffffffff811115611e6c57634e487b7160e01b600052604160045260246000fd5b6040519080825280601f01601f191660200182016040528015611e96576020820181803683370190505b5090505b841561199557611eab60018361296b565b9150611eb8600a86612a04565b611ec3906030612920565b60f81b818381518110611ee657634e487b7160e01b600052603260045260246000fd5b60200101907effffffffffffffffffffffffffffffffffffffffffffffffffffffffffffff1916908160001a905350611f20600a86612938565b9450611e9a565b600054610100900460ff1680611f40575060005460ff16155b611fa35760405162461bcd60e51b815260206004820152602e60248201527f496e697469616c697a61626c653a20636f6e747261637420697320616c72656160448201526d191e481a5b9a5d1a585b1a5e995960921b60648201526084016104b5565b600054610100900460ff16158015611cdd576000805461ffff19166101011790558015611690576000805461ff001916905550565b600054610100900460ff1680611ff1575060005460ff16155b6120545760405162461bcd60e51b815260206004820152602e60248201527f496e697469616c697a61626c653a20636f6e747261637420697320616c72656160448201526d191e481a5b9a5d1a585b1a5e995960921b60648201526084016104b5565b600054610100900460ff16158015612076576000805461ffff19166101011790555b8251612089906065906020860190612342565b50815161209d906066906020850190612342565b508015610773576000805461ff0019169055505050565b600054610100900460ff16806120cd575060005460ff16155b6121305760405162461bcd60e51b815260206004820152602e60248201527f496e697469616c697a61626c653a20636f6e747261637420697320616c72656160448201526d191e481a5b9a5d1a585b1a5e995960921b60648201526084016104b5565b600054610100900460ff16158015612152576000805461ffff19166101011790555b611cdd33611cf1565b60006001600160a01b0384163b156122b357604051630a85bd0160e11b81526001600160a01b0385169063150b7a029061219f9033908990889088906004016128d1565b602060405180830381600087803b1580156121b957600080fd5b505af19250505080156121e9575060408051601f3d908101601f191682019092526121e69181019061264b565b60015b612299573d808015612217576040519150601f19603f3d011682016040523d82523d6000602084013e61221c565b606091505b5080516122915760405162461bcd60e51b815260206004820152603260248201527f4552433732313a207472616e7366657220746f206e6f6e20455243373231526560448201527f63656976657220696d706c656d656e746572000000000000000000000000000060648201526084016104b5565b805181602001fd5b6001600160e01b031916630a85bd0160e11b149050611995565b506001949350505050565b8280546122ca906129ae565b90600052602060002090601f0160209004810192826122ec5760008555612332565b82601f106123055782800160ff19823516178555612332565b82800160010185558215612332579182015b82811115612332578235825591602001919060010190612317565b5061233e9291506123b6565b5090565b82805461234e906129ae565b90600052602060002090601f0160209004810192826123705760008555612332565b82601f1061238957805160ff1916838001178555612332565b82800160010185558215612332579182015b8281111561233257825182559160200191906001019061239b565b5b8082111561233e57600081556001016123b7565b80356001600160a01b03811681146123e257600080fd5b919050565b803580151581146123e257600080fd5b600060208284031215612408578081fd5b6116d5826123cb565b60008060408385031215612423578081fd5b61242c836123cb565b915061243a602084016123cb565b90509250929050565b600080600060608486031215612457578081fd5b612460846123cb565b925061246e602085016123cb565b9150604084013590509250925092565b60008060008060808587031215612493578081fd5b61249c856123cb565b93506124aa602086016123cb565b925060408501359150606085013567ffffffffffffffff808211156124cd578283fd5b818701915087601f8301126124e0578283fd5b8135818111156124f2576124f2612a44565b604051601f8201601f19908116603f0116810190838211818310171561251a5761251a612a44565b816040528281528a6020848701011115612532578586fd5b82602086016020830137918201602001949094529598949750929550505050565b60008060408385031215612565578182fd5b61256e836123cb565b915061243a602084016123e7565b6000806040838503121561258e578182fd5b612597836123cb565b946020939093013593505050565b600080602083850312156125b7578182fd5b823567ffffffffffffffff808211156125ce578384fd5b818501915085601f8301126125e1578384fd5b8135818111156125ef578485fd5b8660208260051b8501011115612603578485fd5b60209290920196919550909350505050565b600060208284031215612626578081fd5b6116d5826123e7565b600060208284031215612640578081fd5b81356116d581612a5a565b60006020828403121561265c578081fd5b81516116d581612a5a565b60008060208385031215612679578182fd5b823567ffffffffffffffff80821115612690578384fd5b818501915085601f8301126126a3578384fd5b8135818111156126b1578485fd5b866020828501011115612603578485fd5b6000602082840312156126d3578081fd5b5035919050565b6000602082840312156126eb578081fd5b5051919050565b6000815180845261270a816020860160208601612982565b601f01601f19169290920160200192915050565b60008151612730818560208601612982565b9290920192915050565b600080845482600182811c91508083168061275657607f831692505b602080841082141561277657634e487b7160e01b87526022600452602487fd5b81801561278a576001811461279b576127c7565b60ff198616895284890196506127c7565b60008b815260209020885b868110156127bf5781548b8201529085019083016127a6565b505084890196505b5050505050506128036127da828661271e565b7f2e6a736f6e000000000000000000000000000000000000000000000000000000815260050190565b95945050505050565b60006001600160a01b03808816835260208188168185015260a060408501528560a08501527f07ffffffffffffffffffffffffffffffffffffffffffffffffffffffffffffff86111561285d578283fd5b8560051b9150818760c086013760c0918401828101848152858203909301606086015285519283905281860192849160e001905b808310156128b15784518252938301936001929092019190830190612891565b50858103608087015260008152602081019b9a5050505050505050505050565b60006001600160a01b0380871683528086166020840152508360408301526080606083015261290360808301846126f2565b9695505050505050565b6020815260006116d560208301846126f2565b6000821982111561293357612933612a18565b500190565b60008261294757612947612a2e565b500490565b600081600019048311821515161561296657612966612a18565b500290565b60008282101561297d5761297d612a18565b500390565b60005b8381101561299d578181015183820152602001612985565b838111156114955750506000910152565b600181811c908216806129c257607f821691505b602082108114156129e357634e487b7160e01b600052602260045260246000fd5b50919050565b60006000198214156129fd576129fd612a18565b5060010190565b600082612a1357612a13612a2e565b500690565b634e487b7160e01b600052601160045260246000fd5b634e487b7160e01b600052601260045260246000fd5b634e487b7160e01b600052604160045260246000fd5b6001600160e01b03198116811461169057600080fdfea26469706673582212208879d6fa15911c50a6b2a23a42d418ffbd87de1b6b8cf7b6a18d9e2293ccc6fd64736f6c63430008040033",
  "linkReferences": {},
  "deployedLinkReferences": {}
}