{
  "_format": "hh-sol-artifact-1",
  "contractName": "CryptoTrex",
  "sourceName": "contracts/CryptoTrex.sol",
  "abi": [
    {
      "inputs": [
        {
          "internalType": "address",
          "name": "_v1contract",
          "type": "address"
        },
        {
          "internalType": "address",
          "name": "_tokenContract",
          "type": "address"
        }
      ],
      "stateMutability": "nonpayable",
      "type": "constructor"
    },
    {
      "anonymous": false,
      "inputs": [
        {
          "indexed": true,
          "internalType": "address",
          "name": "owner",
          "type": "address"
        },
        {
          "indexed": true,
          "internalType": "address",
          "name": "approved",
          "type": "address"
        },
        {
          "indexed": true,
          "internalType": "uint256",
          "name": "tokenId",
          "type": "uint256"
        }
      ],
      "name": "Approval",
      "type": "event"
    },
    {
      "anonymous": false,
      "inputs": [
        {
          "indexed": true,
          "internalType": "address",
          "name": "owner",
          "type": "address"
        },
        {
          "indexed": true,
          "internalType": "address",
          "name": "operator",
          "type": "address"
        },
        {
          "indexed": false,
          "internalType": "bool",
          "name": "approved",
          "type": "bool"
        }
      ],
      "name": "ApprovalForAll",
      "type": "event"
    },
    {
      "anonymous": false,
      "inputs": [
        {
          "indexed": true,
          "internalType": "address",
          "name": "previousOwner",
          "type": "address"
        },
        {
          "indexed": true,
          "internalType": "address",
          "name": "newOwner",
          "type": "address"
        }
      ],
      "name": "OwnershipTransferred",
      "type": "event"
    },
    {
      "anonymous": false,
      "inputs": [
        {
          "indexed": true,
          "internalType": "address",
          "name": "from",
          "type": "address"
        },
        {
          "indexed": true,
          "internalType": "address",
          "name": "to",
          "type": "address"
        },
        {
          "indexed": true,
          "internalType": "uint256",
          "name": "tokenId",
          "type": "uint256"
        }
      ],
      "name": "Transfer",
      "type": "event"
    },
    {
      "inputs": [
        {
          "internalType": "address",
          "name": "to",
          "type": "address"
        },
        {
          "internalType": "uint256",
          "name": "tokenId",
          "type": "uint256"
        }
      ],
      "name": "approve",
      "outputs": [],
      "stateMutability": "nonpayable",
      "type": "function"
    },
    {
      "inputs": [
        {
          "internalType": "address",
          "name": "owner",
          "type": "address"
        }
      ],
      "name": "balanceOf",
      "outputs": [
        {
          "internalType": "uint256",
          "name": "",
          "type": "uint256"
        }
      ],
      "stateMutability": "view",
      "type": "function"
    },
    {
      "inputs": [],
      "name": "baseTokenURI",
      "outputs": [
        {
          "internalType": "string",
          "name": "",
          "type": "string"
        }
      ],
      "stateMutability": "pure",
      "type": "function"
    },
    {
      "inputs": [],
      "name": "contractURI",
      "outputs": [
        {
          "internalType": "string",
          "name": "",
          "type": "string"
        }
      ],
      "stateMutability": "pure",
      "type": "function"
    },
    {
      "inputs": [
        {
          "internalType": "uint256",
          "name": "tokenId",
          "type": "uint256"
        }
      ],
      "name": "getApproved",
      "outputs": [
        {
          "internalType": "address",
          "name": "",
          "type": "address"
        }
      ],
      "stateMutability": "view",
      "type": "function"
    },
    {
      "inputs": [
        {
          "internalType": "address",
          "name": "owner",
          "type": "address"
        },
        {
          "internalType": "address",
          "name": "operator",
          "type": "address"
        }
      ],
      "name": "isApprovedForAll",
      "outputs": [
        {
          "internalType": "bool",
          "name": "",
          "type": "bool"
        }
      ],
      "stateMutability": "view",
      "type": "function"
    },
    {
      "inputs": [
        {
          "internalType": "uint256",
          "name": "_tokenId",
          "type": "uint256"
        }
      ],
      "name": "migrate",
      "outputs": [],
      "stateMutability": "nonpayable",
      "type": "function"
    },
    {
      "inputs": [
        {
          "internalType": "uint256[]",
          "name": "_tokenIds",
          "type": "uint256[]"
        }
      ],
      "name": "migrateBatch",
      "outputs": [],
      "stateMutability": "nonpayable",
      "type": "function"
    },
    {
      "inputs": [],
      "name": "name",
      "outputs": [
        {
          "internalType": "string",
          "name": "",
          "type": "string"
        }
      ],
      "stateMutability": "view",
      "type": "function"
    },
    {
      "inputs": [],
      "name": "owner",
      "outputs": [
        {
          "internalType": "address",
          "name": "",
          "type": "address"
        }
      ],
      "stateMutability": "view",
      "type": "function"
    },
    {
      "inputs": [
        {
          "internalType": "uint256",
          "name": "tokenId",
          "type": "uint256"
        }
      ],
      "name": "ownerOf",
      "outputs": [
        {
          "internalType": "address",
          "name": "",
          "type": "address"
        }
      ],
      "stateMutability": "view",
      "type": "function"
    },
    {
      "inputs": [],
      "name": "renounceOwnership",
      "outputs": [],
      "stateMutability": "nonpayable",
      "type": "function"
    },
    {
      "inputs": [
        {
          "internalType": "address",
          "name": "from",
          "type": "address"
        },
        {
          "internalType": "address",
          "name": "to",
          "type": "address"
        },
        {
          "internalType": "uint256",
          "name": "tokenId",
          "type": "uint256"
        }
      ],
      "name": "safeTransferFrom",
      "outputs": [],
      "stateMutability": "nonpayable",
      "type": "function"
    },
    {
      "inputs": [
        {
          "internalType": "address",
          "name": "from",
          "type": "address"
        },
        {
          "internalType": "address",
          "name": "to",
          "type": "address"
        },
        {
          "internalType": "uint256",
          "name": "tokenId",
          "type": "uint256"
        },
        {
          "internalType": "bytes",
          "name": "_data",
          "type": "bytes"
        }
      ],
      "name": "safeTransferFrom",
      "outputs": [],
      "stateMutability": "nonpayable",
      "type": "function"
    },
    {
      "inputs": [
        {
          "internalType": "address",
          "name": "operator",
          "type": "address"
        },
        {
          "internalType": "bool",
          "name": "approved",
          "type": "bool"
        }
      ],
      "name": "setApprovalForAll",
      "outputs": [],
      "stateMutability": "nonpayable",
      "type": "function"
    },
    {
      "inputs": [
        {
          "internalType": "bytes4",
          "name": "interfaceId",
          "type": "bytes4"
        }
      ],
      "name": "supportsInterface",
      "outputs": [
        {
          "internalType": "bool",
          "name": "",
          "type": "bool"
        }
      ],
      "stateMutability": "view",
      "type": "function"
    },
    {
      "inputs": [],
      "name": "symbol",
      "outputs": [
        {
          "internalType": "string",
          "name": "",
          "type": "string"
        }
      ],
      "stateMutability": "view",
      "type": "function"
    },
    {
      "inputs": [
        {
          "internalType": "uint256",
          "name": "_tokenId",
          "type": "uint256"
        }
      ],
      "name": "tokenURI",
      "outputs": [
        {
          "internalType": "string",
          "name": "",
          "type": "string"
        }
      ],
      "stateMutability": "pure",
      "type": "function"
    },
    {
      "inputs": [
        {
          "internalType": "address",
          "name": "from",
          "type": "address"
        },
        {
          "internalType": "address",
          "name": "to",
          "type": "address"
        },
        {
          "internalType": "uint256",
          "name": "tokenId",
          "type": "uint256"
        }
      ],
      "name": "transferFrom",
      "outputs": [],
      "stateMutability": "nonpayable",
      "type": "function"
    },
    {
      "inputs": [
        {
          "internalType": "address",
          "name": "newOwner",
          "type": "address"
        }
      ],
      "name": "transferOwnership",
      "outputs": [],
      "stateMutability": "nonpayable",
      "type": "function"
    }
  ],
  "bytecode": "0x60806040523480156200001157600080fd5b50604051620020ce380380620020ce833981016040819052620000349162000200565b604080518082018252600a815269086e4f2e0e8dea8e4caf60b31b6020808301918252835180850190945260048452630a8a48ab60e31b90840152815191929162000082916000916200013d565b508051620000989060019060208401906200013d565b505050620000b5620000af620000e760201b60201c565b620000eb565b600780546001600160a01b039384166001600160a01b0319918216179091556008805492909316911617905562000274565b3390565b600680546001600160a01b038381166001600160a01b0319831681179093556040519116919082907f8be0079c531659141344cd1fd0a4f28419497f9722a3daafe3b4186f6b6457e090600090a35050565b8280546200014b9062000237565b90600052602060002090601f0160209004810192826200016f5760008555620001ba565b82601f106200018a57805160ff1916838001178555620001ba565b82800160010185558215620001ba579182015b82811115620001ba5782518255916020019190600101906200019d565b50620001c8929150620001cc565b5090565b5b80821115620001c85760008155600101620001cd565b80516001600160a01b0381168114620001fb57600080fd5b919050565b6000806040838503121562000213578182fd5b6200021e83620001e3565b91506200022e60208401620001e3565b90509250929050565b600181811c908216806200024c57607f821691505b602082108114156200026e57634e487b7160e01b600052602260045260246000fd5b50919050565b611e4a80620002846000396000f3fe608060405234801561001057600080fd5b506004361061016c5760003560e01c8063715018a6116100cd578063c87b56dd11610081578063e8a3d48511610066578063e8a3d485146102d0578063e985e9c5146102d8578063f2fde38b1461031457600080fd5b8063c87b56dd146102b5578063d547cfb7146102c857600080fd5b806395d89b41116100b257806395d89b4114610287578063a22cb4651461028f578063b88d4fde146102a257600080fd5b8063715018a61461026e5780638da5cb5b1461027657600080fd5b806323b872dd11610124578063454b060811610109578063454b0608146102275780636352211e1461023a57806370a082311461024d57600080fd5b806323b872dd1461020157806342842e0e1461021457600080fd5b8063081812fc11610155578063081812fc146101ae578063095ea7b3146101d95780630c794a6d146101ee57600080fd5b806301ffc9a71461017157806306fdde0314610199575b600080fd5b61018461017f366004611a72565b610327565b60405190151581526020015b60405180910390f35b6101a16103c4565b6040516101909190611c46565b6101c16101bc366004611aaa565b610456565b6040516001600160a01b039091168152602001610190565b6101ec6101e73660046119d9565b6104f0565b005b6101ec6101fc366004611a02565b610622565b6101ec61020f36600461188f565b6108d1565b6101ec61022236600461188f565b610958565b6101ec610235366004611aaa565b610973565b6101c1610248366004611aaa565b610adc565b61026061025b36600461183c565b610b67565b604051908152602001610190565b6101ec610c01565b6006546001600160a01b03166101c1565b6101a1610c67565b6101ec61029d36600461199f565b610c76565b6101ec6102b03660046118ca565b610d3b565b6101a16102c3366004611aaa565b610dc9565b6101a1610e03565b6101a1610e23565b6101846102e636600461185d565b6001600160a01b03918216600090815260056020908152604080832093909416825291909152205460ff1690565b6101ec61032236600461183c565b610e43565b60006001600160e01b031982167f80ac58cd00000000000000000000000000000000000000000000000000000000148061038a57506001600160e01b031982167f5b5e139f00000000000000000000000000000000000000000000000000000000145b806103be57507f01ffc9a7000000000000000000000000000000000000000000000000000000006001600160e01b03198316145b92915050565b6060600080546103d390611ce7565b80601f01602080910402602001604051908101604052809291908181526020018280546103ff90611ce7565b801561044c5780601f106104215761010080835404028352916020019161044c565b820191906000526020600020905b81548152906001019060200180831161042f57829003601f168201915b5050505050905090565b6000818152600260205260408120546001600160a01b03166104d45760405162461bcd60e51b815260206004820152602c60248201527f4552433732313a20617070726f76656420717565727920666f72206e6f6e657860448201526b34b9ba32b73a103a37b5b2b760a11b60648201526084015b60405180910390fd5b506000908152600460205260409020546001600160a01b031690565b60006104fb82610adc565b9050806001600160a01b0316836001600160a01b031614156105855760405162461bcd60e51b815260206004820152602160248201527f4552433732313a20617070726f76616c20746f2063757272656e74206f776e6560448201527f720000000000000000000000000000000000000000000000000000000000000060648201526084016104cb565b336001600160a01b03821614806105a157506105a181336102e6565b6106135760405162461bcd60e51b815260206004820152603860248201527f4552433732313a20617070726f76652063616c6c6572206973206e6f74206f7760448201527f6e6572206e6f7220617070726f76656420666f7220616c6c000000000000000060648201526084016104cb565b61061d8383610f25565b505050565b603281106106725760405162461bcd60e51b815260206004820152601260248201527f746f6f206d616e7920746f2068616e646c65000000000000000000000000000060448201526064016104cb565b60005b818110156106fa576106ac8383838181106106a057634e487b7160e01b600052603260045260246000fd5b90506020020135610fa0565b6106e85760405162461bcd60e51b815260206004820152600d60248201526c34b73b30b634b2103a37b5b2b760991b60448201526064016104cb565b806106f281611d22565b915050610675565b5060008167ffffffffffffffff81111561072457634e487b7160e01b600052604160045260246000fd5b60405190808252806020026020018201604052801561074d578160200160208202803683370190505b50905060005b828110156107cb57600182828151811061077d57634e487b7160e01b600052603260045260246000fd5b6020026020010181815250506107b9338585848181106107ad57634e487b7160e01b600052603260045260246000fd5b90506020020135611067565b806107c381611d22565b915050610753565b506008546001600160a01b03166340c10f19336107e985600a611c85565b6040516001600160e01b031960e085901b1681526001600160a01b0390921660048301526024820152604401600060405180830381600087803b15801561082f57600080fd5b505af1158015610843573d6000803e3d6000fd5b50506007546040517f2eb2c2d60000000000000000000000000000000000000000000000000000000081526001600160a01b039091169250632eb2c2d6915061089a90339061dead90889088908890600401611b45565b600060405180830381600087803b1580156108b457600080fd5b505af11580156108c8573d6000803e3d6000fd5b50505050505050565b6108db33826111b6565b61094d5760405162461bcd60e51b815260206004820152603160248201527f4552433732313a207472616e736665722063616c6c6572206973206e6f74206f60448201527f776e6572206e6f7220617070726f76656400000000000000000000000000000060648201526084016104cb565b61061d8383836112ad565b61061d83838360405180602001604052806000815250610d3b565b61097c81610fa0565b6109b85760405162461bcd60e51b815260206004820152600d60248201526c34b73b30b634b2103a37b5b2b760991b60448201526064016104cb565b6008546040517f40c10f19000000000000000000000000000000000000000000000000000000008152336004820152600a60248201526001600160a01b03909116906340c10f1990604401600060405180830381600087803b158015610a1d57600080fd5b505af1158015610a31573d6000803e3d6000fd5b50505050610a3f3382611067565b6007546040517ff242432a00000000000000000000000000000000000000000000000000000000815233600482015261dead6024820152604481018390526001606482015260a06084820152600060a48201526001600160a01b039091169063f242432a9060c401600060405180830381600087803b158015610ac157600080fd5b505af1158015610ad5573d6000803e3d6000fd5b5050505050565b6000818152600260205260408120546001600160a01b0316806103be5760405162461bcd60e51b815260206004820152602960248201527f4552433732313a206f776e657220717565727920666f72206e6f6e657869737460448201527f656e7420746f6b656e000000000000000000000000000000000000000000000060648201526084016104cb565b60006001600160a01b038216610be55760405162461bcd60e51b815260206004820152602a60248201527f4552433732313a2062616c616e636520717565727920666f7220746865207a6560448201527f726f20616464726573730000000000000000000000000000000000000000000060648201526084016104cb565b506001600160a01b031660009081526003602052604090205490565b6006546001600160a01b03163314610c5b5760405162461bcd60e51b815260206004820181905260248201527f4f776e61626c653a2063616c6c6572206973206e6f7420746865206f776e657260448201526064016104cb565b610c656000611487565b565b6060600180546103d390611ce7565b6001600160a01b038216331415610ccf5760405162461bcd60e51b815260206004820152601960248201527f4552433732313a20617070726f766520746f2063616c6c65720000000000000060448201526064016104cb565b3360008181526005602090815260408083206001600160a01b03871680855290835292819020805460ff191686151590811790915590519081529192917f17307eab39ab6107e8899845ad3d59bd9653f200f220920489ca2b5937696c31910160405180910390a35050565b610d4533836111b6565b610db75760405162461bcd60e51b815260206004820152603160248201527f4552433732313a207472616e736665722063616c6c6572206973206e6f74206f60448201527f776e6572206e6f7220617070726f76656400000000000000000000000000000060648201526084016104cb565b610dc3848484846114e6565b50505050565b6060610dd3610e03565b610ddc8361156f565b604051602001610ded929190611aee565b6040516020818303038152906040529050919050565b6060604051806060016040528060368152602001611ddf60369139905090565b6060604051806060016040528060358152602001611daa60359139905090565b6006546001600160a01b03163314610e9d5760405162461bcd60e51b815260206004820181905260248201527f4f776e61626c653a2063616c6c6572206973206e6f7420746865206f776e657260448201526064016104cb565b6001600160a01b038116610f195760405162461bcd60e51b815260206004820152602660248201527f4f776e61626c653a206e6577206f776e657220697320746865207a65726f206160448201527f646472657373000000000000000000000000000000000000000000000000000060648201526084016104cb565b610f2281611487565b50565b6000818152600460205260409020805473ffffffffffffffffffffffffffffffffffffffff19166001600160a01b0384169081179091558190610f6782610adc565b6001600160a01b03167f8c5be1e5ebec7d5bd14f71427d1e84f3dd0314c0f7b2291e5b200ac8c7c3b92560405160405180910390a45050565b6000606082901c73d640cf88f763cee6b243f1cab3d0befdafc47b9e14610fc957506000919050565b8164ffffffffff16600114610fe057506000919050565b66ffffffffffffff602883901c16610494811180610ffe5750603b81105b8061100957508060a3145b8061101457508060a6145b80611020575080610109145b8061102c57508061029d145b8061103857508061029e145b8061104457508061029f145b806110505750806102a0145b1561105e5750600092915050565b50600192915050565b6001600160a01b0382166110bd5760405162461bcd60e51b815260206004820181905260248201527f4552433732313a206d696e7420746f20746865207a65726f206164647265737360448201526064016104cb565b6000818152600260205260409020546001600160a01b0316156111225760405162461bcd60e51b815260206004820152601c60248201527f4552433732313a20746f6b656e20616c7265616479206d696e7465640000000060448201526064016104cb565b6001600160a01b038216600090815260036020526040812080546001929061114b908490611c59565b9091555050600081815260026020526040808220805473ffffffffffffffffffffffffffffffffffffffff19166001600160a01b03861690811790915590518392907fddf252ad1be2c89b69c2b068fc378daa952ba7f163c4a11628f55a4df523b3ef908290a45050565b6000818152600260205260408120546001600160a01b031661122f5760405162461bcd60e51b815260206004820152602c60248201527f4552433732313a206f70657261746f7220717565727920666f72206e6f6e657860448201526b34b9ba32b73a103a37b5b2b760a11b60648201526084016104cb565b600061123a83610adc565b9050806001600160a01b0316846001600160a01b031614806112755750836001600160a01b031661126a84610456565b6001600160a01b0316145b806112a557506001600160a01b0380821660009081526005602090815260408083209388168352929052205460ff165b949350505050565b826001600160a01b03166112c082610adc565b6001600160a01b03161461133c5760405162461bcd60e51b815260206004820152602960248201527f4552433732313a207472616e73666572206f6620746f6b656e2074686174206960448201527f73206e6f74206f776e000000000000000000000000000000000000000000000060648201526084016104cb565b6001600160a01b0382166113b75760405162461bcd60e51b8152602060048201526024808201527f4552433732313a207472616e7366657220746f20746865207a65726f2061646460448201527f726573730000000000000000000000000000000000000000000000000000000060648201526084016104cb565b6113c2600082610f25565b6001600160a01b03831660009081526003602052604081208054600192906113eb908490611ca4565b90915550506001600160a01b0382166000908152600360205260408120805460019290611419908490611c59565b9091555050600081815260026020526040808220805473ffffffffffffffffffffffffffffffffffffffff19166001600160a01b0386811691821790925591518493918716917fddf252ad1be2c89b69c2b068fc378daa952ba7f163c4a11628f55a4df523b3ef91a4505050565b600680546001600160a01b0383811673ffffffffffffffffffffffffffffffffffffffff19831681179093556040519116919082907f8be0079c531659141344cd1fd0a4f28419497f9722a3daafe3b4186f6b6457e090600090a35050565b6114f18484846112ad565b6114fd848484846116bd565b610dc35760405162461bcd60e51b815260206004820152603260248201527f4552433732313a207472616e7366657220746f206e6f6e20455243373231526560448201527f63656976657220696d706c656d656e746572000000000000000000000000000060648201526084016104cb565b6060816115af57505060408051808201909152600181527f3000000000000000000000000000000000000000000000000000000000000000602082015290565b8160005b81156115d957806115c381611d22565b91506115d29050600a83611c71565b91506115b3565b60008167ffffffffffffffff81111561160257634e487b7160e01b600052604160045260246000fd5b6040519080825280601f01601f19166020018201604052801561162c576020820181803683370190505b5090505b84156112a557611641600183611ca4565b915061164e600a86611d3d565b611659906030611c59565b60f81b81838151811061167c57634e487b7160e01b600052603260045260246000fd5b60200101907effffffffffffffffffffffffffffffffffffffffffffffffffffffffffffff1916908160001a9053506116b6600a86611c71565b9450611630565b60006001600160a01b0384163b1561181557604051630a85bd0160e11b81526001600160a01b0385169063150b7a0290611701903390899088908890600401611c0a565b602060405180830381600087803b15801561171b57600080fd5b505af192505050801561174b575060408051601f3d908101601f1916820190925261174891810190611a8e565b60015b6117fb573d808015611779576040519150601f19603f3d011682016040523d82523d6000602084013e61177e565b606091505b5080516117f35760405162461bcd60e51b815260206004820152603260248201527f4552433732313a207472616e7366657220746f206e6f6e20455243373231526560448201527f63656976657220696d706c656d656e746572000000000000000000000000000060648201526084016104cb565b805181602001fd5b6001600160e01b031916630a85bd0160e11b1490506112a5565b506001949350505050565b80356001600160a01b038116811461183757600080fd5b919050565b60006020828403121561184d578081fd5b61185682611820565b9392505050565b6000806040838503121561186f578081fd5b61187883611820565b915061188660208401611820565b90509250929050565b6000806000606084860312156118a3578081fd5b6118ac84611820565b92506118ba60208501611820565b9150604084013590509250925092565b600080600080608085870312156118df578081fd5b6118e885611820565b93506118f660208601611820565b925060408501359150606085013567ffffffffffffffff80821115611919578283fd5b818701915087601f83011261192c578283fd5b81358181111561193e5761193e611d7d565b604051601f8201601f19908116603f0116810190838211818310171561196657611966611d7d565b816040528281528a602084870101111561197e578586fd5b82602086016020830137918201602001949094529598949750929550505050565b600080604083850312156119b1578182fd5b6119ba83611820565b9150602083013580151581146119ce578182fd5b809150509250929050565b600080604083850312156119eb578182fd5b6119f483611820565b946020939093013593505050565b60008060208385031215611a14578182fd5b823567ffffffffffffffff80821115611a2b578384fd5b818501915085601f830112611a3e578384fd5b813581811115611a4c578485fd5b8660208260051b8501011115611a60578485fd5b60209290920196919550909350505050565b600060208284031215611a83578081fd5b813561185681611d93565b600060208284031215611a9f578081fd5b815161185681611d93565b600060208284031215611abb578081fd5b5035919050565b60008151808452611ada816020860160208601611cbb565b601f01601f19169290920160200192915050565b60008351611b00818460208801611cbb565b835190830190611b14818360208801611cbb565b7f2e6a736f6e0000000000000000000000000000000000000000000000000000009101908152600501949350505050565b60006001600160a01b03808816835260208188168185015260a060408501528560a08501527f07ffffffffffffffffffffffffffffffffffffffffffffffffffffffffffffff861115611b96578283fd5b8560051b9150818760c086013760c0918401828101848152858203909301606086015285519283905281860192849160e001905b80831015611bea5784518252938301936001929092019190830190611bca565b50858103608087015260008152602081019b9a5050505050505050505050565b60006001600160a01b03808716835280861660208401525083604083015260806060830152611c3c6080830184611ac2565b9695505050505050565b6020815260006118566020830184611ac2565b60008219821115611c6c57611c6c611d51565b500190565b600082611c8057611c80611d67565b500490565b6000816000190483118215151615611c9f57611c9f611d51565b500290565b600082821015611cb657611cb6611d51565b500390565b60005b83811015611cd6578181015183820152602001611cbe565b83811115610dc35750506000910152565b600181811c90821680611cfb57607f821691505b60208210811415611d1c57634e487b7160e01b600052602260045260246000fd5b50919050565b6000600019821415611d3657611d36611d51565b5060010190565b600082611d4c57611d4c611d67565b500690565b634e487b7160e01b600052601160045260246000fd5b634e487b7160e01b600052601260045260246000fd5b634e487b7160e01b600052604160045260246000fd5b6001600160e01b031981168114610f2257600080fdfe697066733a2f2f516d6234615875316175674d6770536d6f55704a6774364e326776375154344b39436d5341537a67556878717573697066733a2f2f516d544d4a556878686d32427059625958695037443572506e6443375a79387438677061626a63315a42647a69372fa2646970667358221220ff44a64b445ac269f5dbc38cd2b1e6670b2d603a2753fc02b192961d13a83a0964736f6c63430008040033",
  "linkReferences": {},
  "deployedLinkReferences": {}
}