{
  "_format": "hh-sol-artifact-1",
  "contractName": "CryptoTrex",
  "sourceName": "contracts/CryptoTrex.sol",
  "abi": [
    {
      "anonymous": false,
      "inputs": [
        {
          "indexed": true,
          "internalType": "address",
          "name": "owner",
          "type": "address"
        },
        {
          "indexed": true,
          "internalType": "address",
          "name": "approved",
          "type": "address"
        },
        {
          "indexed": true,
          "internalType": "uint256",
          "name": "tokenId",
          "type": "uint256"
        }
      ],
      "name": "Approval",
      "type": "event"
    },
    {
      "anonymous": false,
      "inputs": [
        {
          "indexed": true,
          "internalType": "address",
          "name": "owner",
          "type": "address"
        },
        {
          "indexed": true,
          "internalType": "address",
          "name": "operator",
          "type": "address"
        },
        {
          "indexed": false,
          "internalType": "bool",
          "name": "approved",
          "type": "bool"
        }
      ],
      "name": "ApprovalForAll",
      "type": "event"
    },
    {
      "anonymous": false,
      "inputs": [
        {
          "indexed": true,
          "internalType": "address",
          "name": "previousOwner",
          "type": "address"
        },
        {
          "indexed": true,
          "internalType": "address",
          "name": "newOwner",
          "type": "address"
        }
      ],
      "name": "OwnershipTransferred",
      "type": "event"
    },
    {
      "anonymous": false,
      "inputs": [
        {
          "indexed": true,
          "internalType": "address",
          "name": "from",
          "type": "address"
        },
        {
          "indexed": true,
          "internalType": "address",
          "name": "to",
          "type": "address"
        },
        {
          "indexed": true,
          "internalType": "uint256",
          "name": "tokenId",
          "type": "uint256"
        }
      ],
      "name": "Transfer",
      "type": "event"
    },
    {
      "inputs": [
        {
          "internalType": "address",
          "name": "to",
          "type": "address"
        },
        {
          "internalType": "uint256",
          "name": "tokenId",
          "type": "uint256"
        }
      ],
      "name": "approve",
      "outputs": [],
      "stateMutability": "nonpayable",
      "type": "function"
    },
    {
      "inputs": [
        {
          "internalType": "address",
          "name": "owner",
          "type": "address"
        }
      ],
      "name": "balanceOf",
      "outputs": [
        {
          "internalType": "uint256",
          "name": "",
          "type": "uint256"
        }
      ],
      "stateMutability": "view",
      "type": "function"
    },
    {
      "inputs": [],
      "name": "baseTokenURI",
      "outputs": [
        {
          "internalType": "string",
          "name": "",
          "type": "string"
        }
      ],
      "stateMutability": "pure",
      "type": "function"
    },
    {
      "inputs": [],
      "name": "contractURI",
      "outputs": [
        {
          "internalType": "string",
          "name": "",
          "type": "string"
        }
      ],
      "stateMutability": "pure",
      "type": "function"
    },
    {
      "inputs": [
        {
          "internalType": "uint256",
          "name": "tokenId",
          "type": "uint256"
        }
      ],
      "name": "getApproved",
      "outputs": [
        {
          "internalType": "address",
          "name": "",
          "type": "address"
        }
      ],
      "stateMutability": "view",
      "type": "function"
    },
    {
      "inputs": [
        {
          "internalType": "address",
          "name": "_v1contract",
          "type": "address"
        },
        {
          "internalType": "address",
          "name": "_tokenContract",
          "type": "address"
        }
      ],
      "name": "initialize",
      "outputs": [],
      "stateMutability": "nonpayable",
      "type": "function"
    },
    {
      "inputs": [
        {
          "internalType": "address",
          "name": "owner",
          "type": "address"
        },
        {
          "internalType": "address",
          "name": "operator",
          "type": "address"
        }
      ],
      "name": "isApprovedForAll",
      "outputs": [
        {
          "internalType": "bool",
          "name": "",
          "type": "bool"
        }
      ],
      "stateMutability": "view",
      "type": "function"
    },
    {
      "inputs": [
        {
          "internalType": "uint256",
          "name": "_tokenId",
          "type": "uint256"
        }
      ],
      "name": "migrate",
      "outputs": [],
      "stateMutability": "nonpayable",
      "type": "function"
    },
    {
      "inputs": [
        {
          "internalType": "uint256[]",
          "name": "_tokenIds",
          "type": "uint256[]"
        }
      ],
      "name": "migrateBatch",
      "outputs": [],
      "stateMutability": "nonpayable",
      "type": "function"
    },
    {
      "inputs": [],
      "name": "name",
      "outputs": [
        {
          "internalType": "string",
          "name": "",
          "type": "string"
        }
      ],
      "stateMutability": "view",
      "type": "function"
    },
    {
      "inputs": [],
      "name": "owner",
      "outputs": [
        {
          "internalType": "address",
          "name": "",
          "type": "address"
        }
      ],
      "stateMutability": "view",
      "type": "function"
    },
    {
      "inputs": [
        {
          "internalType": "uint256",
          "name": "tokenId",
          "type": "uint256"
        }
      ],
      "name": "ownerOf",
      "outputs": [
        {
          "internalType": "address",
          "name": "",
          "type": "address"
        }
      ],
      "stateMutability": "view",
      "type": "function"
    },
    {
      "inputs": [],
      "name": "renounceOwnership",
      "outputs": [],
      "stateMutability": "nonpayable",
      "type": "function"
    },
    {
      "inputs": [
        {
          "internalType": "address",
          "name": "from",
          "type": "address"
        },
        {
          "internalType": "address",
          "name": "to",
          "type": "address"
        },
        {
          "internalType": "uint256",
          "name": "tokenId",
          "type": "uint256"
        }
      ],
      "name": "safeTransferFrom",
      "outputs": [],
      "stateMutability": "nonpayable",
      "type": "function"
    },
    {
      "inputs": [
        {
          "internalType": "address",
          "name": "from",
          "type": "address"
        },
        {
          "internalType": "address",
          "name": "to",
          "type": "address"
        },
        {
          "internalType": "uint256",
          "name": "tokenId",
          "type": "uint256"
        },
        {
          "internalType": "bytes",
          "name": "_data",
          "type": "bytes"
        }
      ],
      "name": "safeTransferFrom",
      "outputs": [],
      "stateMutability": "nonpayable",
      "type": "function"
    },
    {
      "inputs": [
        {
          "internalType": "address",
          "name": "operator",
          "type": "address"
        },
        {
          "internalType": "bool",
          "name": "approved",
          "type": "bool"
        }
      ],
      "name": "setApprovalForAll",
      "outputs": [],
      "stateMutability": "nonpayable",
      "type": "function"
    },
    {
      "inputs": [
        {
          "internalType": "bytes4",
          "name": "interfaceId",
          "type": "bytes4"
        }
      ],
      "name": "supportsInterface",
      "outputs": [
        {
          "internalType": "bool",
          "name": "",
          "type": "bool"
        }
      ],
      "stateMutability": "view",
      "type": "function"
    },
    {
      "inputs": [],
      "name": "symbol",
      "outputs": [
        {
          "internalType": "string",
          "name": "",
          "type": "string"
        }
      ],
      "stateMutability": "view",
      "type": "function"
    },
    {
      "inputs": [
        {
          "internalType": "uint256",
          "name": "_tokenId",
          "type": "uint256"
        }
      ],
      "name": "tokenURI",
      "outputs": [
        {
          "internalType": "string",
          "name": "",
          "type": "string"
        }
      ],
      "stateMutability": "pure",
      "type": "function"
    },
    {
      "inputs": [
        {
          "internalType": "address",
          "name": "from",
          "type": "address"
        },
        {
          "internalType": "address",
          "name": "to",
          "type": "address"
        },
        {
          "internalType": "uint256",
          "name": "tokenId",
          "type": "uint256"
        }
      ],
      "name": "transferFrom",
      "outputs": [],
      "stateMutability": "nonpayable",
      "type": "function"
    },
    {
      "inputs": [
        {
          "internalType": "address",
          "name": "newOwner",
          "type": "address"
        }
      ],
      "name": "transferOwnership",
      "outputs": [],
      "stateMutability": "nonpayable",
      "type": "function"
    }
  ],
  "bytecode": "0x608060405234801561001057600080fd5b506120ec806100206000396000f3fe608060405234801561001057600080fd5b50600436106101775760003560e01c806370a08231116100d8578063b88d4fde1161008c578063e8a3d48511610066578063e8a3d485146102ee578063e985e9c5146102f6578063f2fde38b1461033257600080fd5b8063b88d4fde146102c0578063c87b56dd146102d3578063d547cfb7146102e657600080fd5b80638da5cb5b116100bd5780638da5cb5b1461029457806395d89b41146102a5578063a22cb465146102ad57600080fd5b806370a082311461026b578063715018a61461028c57600080fd5b806323b872dd1161012f578063454b060811610114578063454b060814610232578063485cc955146102455780636352211e1461025857600080fd5b806323b872dd1461020c57806342842e0e1461021f57600080fd5b8063081812fc11610160578063081812fc146101b9578063095ea7b3146101e45780630c794a6d146101f957600080fd5b806301ffc9a71461017c57806306fdde03146101a4575b600080fd5b61018f61018a366004611d14565b610345565b60405190151581526020015b60405180910390f35b6101ac6103e2565b60405161019b9190611ee8565b6101cc6101c7366004611d4c565b610474565b6040516001600160a01b03909116815260200161019b565b6101f76101f2366004611c7b565b61050e565b005b6101f7610207366004611ca4565b610640565b6101f761021a366004611b31565b610866565b6101f761022d366004611b31565b6108ed565b6101f7610240366004611d4c565b610908565b6101f7610253366004611aff565b610a2c565b6101cc610266366004611d4c565b610b84565b61027e610279366004611ade565b610c0f565b60405190815260200161019b565b6101f7610ca9565b6097546001600160a01b03166101cc565b6101ac610d0f565b6101f76102bb366004611c41565b610d1e565b6101f76102ce366004611b6c565b610de3565b6101ac6102e1366004611d4c565b610e71565b6101ac610eab565b6101ac610ecb565b61018f610304366004611aff565b6001600160a01b039182166000908152606a6020908152604080832093909416825291909152205460ff1690565b6101f7610340366004611ade565b610eeb565b60006001600160e01b031982167f80ac58cd0000000000000000000000000000000000000000000000000000000014806103a857506001600160e01b031982167f5b5e139f00000000000000000000000000000000000000000000000000000000145b806103dc57507f01ffc9a7000000000000000000000000000000000000000000000000000000006001600160e01b03198316145b92915050565b6060606580546103f190611f89565b80601f016020809104026020016040519081016040528092919081815260200182805461041d90611f89565b801561046a5780601f1061043f5761010080835404028352916020019161046a565b820191906000526020600020905b81548152906001019060200180831161044d57829003601f168201915b5050505050905090565b6000818152606760205260408120546001600160a01b03166104f25760405162461bcd60e51b815260206004820152602c60248201527f4552433732313a20617070726f76656420717565727920666f72206e6f6e657860448201526b34b9ba32b73a103a37b5b2b760a11b60648201526084015b60405180910390fd5b506000908152606960205260409020546001600160a01b031690565b600061051982610b84565b9050806001600160a01b0316836001600160a01b031614156105a35760405162461bcd60e51b815260206004820152602160248201527f4552433732313a20617070726f76616c20746f2063757272656e74206f776e6560448201527f720000000000000000000000000000000000000000000000000000000000000060648201526084016104e9565b336001600160a01b03821614806105bf57506105bf8133610304565b6106315760405162461bcd60e51b815260206004820152603860248201527f4552433732313a20617070726f76652063616c6c6572206973206e6f74206f7760448201527f6e6572206e6f7220617070726f76656420666f7220616c6c000000000000000060648201526084016104e9565b61063b8383610fcd565b505050565b603281106106905760405162461bcd60e51b815260206004820152601260248201527f746f6f206d616e7920746f2068616e646c65000000000000000000000000000060448201526064016104e9565b60008167ffffffffffffffff8111156106b957634e487b7160e01b600052604160045260246000fd5b6040519080825280602002602001820160405280156106e2578160200160208202803683370190505b50905060005b8281101561076057600182828151811061071257634e487b7160e01b600052603260045260246000fd5b60200260200101818152505061074e3385858481811061074257634e487b7160e01b600052603260045260246000fd5b9050602002013561103b565b8061075881611fc4565b9150506106e8565b5060ca546001600160a01b03166340c10f193361077e85600a611f27565b6040516001600160e01b031960e085901b1681526001600160a01b0390921660048301526024820152604401600060405180830381600087803b1580156107c457600080fd5b505af11580156107d8573d6000803e3d6000fd5b505060c9546040517f2eb2c2d60000000000000000000000000000000000000000000000000000000081526001600160a01b039091169250632eb2c2d6915061082f90339061dead90889088908890600401611de7565b600060405180830381600087803b15801561084957600080fd5b505af115801561085d573d6000803e3d6000fd5b50505050505050565b610870338261117d565b6108e25760405162461bcd60e51b815260206004820152603160248201527f4552433732313a207472616e736665722063616c6c6572206973206e6f74206f60448201527f776e6572206e6f7220617070726f76656400000000000000000000000000000060648201526084016104e9565b61063b838383611274565b61063b83838360405180602001604052806000815250610de3565b60ca546040517f40c10f19000000000000000000000000000000000000000000000000000000008152336004820152600a60248201526001600160a01b03909116906340c10f1990604401600060405180830381600087803b15801561096d57600080fd5b505af1158015610981573d6000803e3d6000fd5b5050505061098f338261103b565b60c9546040517ff242432a00000000000000000000000000000000000000000000000000000000815233600482015261dead6024820152604481018390526001606482015260a06084820152600060a48201526001600160a01b039091169063f242432a9060c401600060405180830381600087803b158015610a1157600080fd5b505af1158015610a25573d6000803e3d6000fd5b5050505050565b600054610100900460ff1680610a45575060005460ff16155b610aa85760405162461bcd60e51b815260206004820152602e60248201527f496e697469616c697a61626c653a20636f6e747261637420697320616c72656160448201526d191e481a5b9a5d1a585b1a5e995960921b60648201526084016104e9565b600054610100900460ff16158015610aca576000805461ffff19166101011790555b610b3e6040518060400160405280600a81526020017f43727970746f54726578000000000000000000000000000000000000000000008152506040518060400160405280600481526020017f5452455800000000000000000000000000000000000000000000000000000000815250611441565b60c980546001600160a01b038086166001600160a01b03199283161790925560ca805492851692909116919091179055801561063b576000805461ff0019169055505050565b6000818152606760205260408120546001600160a01b0316806103dc5760405162461bcd60e51b815260206004820152602960248201527f4552433732313a206f776e657220717565727920666f72206e6f6e657869737460448201527f656e7420746f6b656e000000000000000000000000000000000000000000000060648201526084016104e9565b60006001600160a01b038216610c8d5760405162461bcd60e51b815260206004820152602a60248201527f4552433732313a2062616c616e636520717565727920666f7220746865207a6560448201527f726f20616464726573730000000000000000000000000000000000000000000060648201526084016104e9565b506001600160a01b031660009081526068602052604090205490565b6097546001600160a01b03163314610d035760405162461bcd60e51b815260206004820181905260248201527f4f776e61626c653a2063616c6c6572206973206e6f7420746865206f776e657260448201526064016104e9565b610d0d600061150f565b565b6060606680546103f190611f89565b6001600160a01b038216331415610d775760405162461bcd60e51b815260206004820152601960248201527f4552433732313a20617070726f766520746f2063616c6c65720000000000000060448201526064016104e9565b336000818152606a602090815260408083206001600160a01b03871680855290835292819020805460ff191686151590811790915590519081529192917f17307eab39ab6107e8899845ad3d59bd9653f200f220920489ca2b5937696c31910160405180910390a35050565b610ded338361117d565b610e5f5760405162461bcd60e51b815260206004820152603160248201527f4552433732313a207472616e736665722063616c6c6572206973206e6f74206f60448201527f776e6572206e6f7220617070726f76656400000000000000000000000000000060648201526084016104e9565b610e6b84848484611561565b50505050565b6060610e7b610eab565b610e84836115ea565b604051602001610e95929190611d90565b6040516020818303038152906040529050919050565b606060405180606001604052806036815260200161208160369139905090565b606060405180606001604052806035815260200161204c60359139905090565b6097546001600160a01b03163314610f455760405162461bcd60e51b815260206004820181905260248201527f4f776e61626c653a2063616c6c6572206973206e6f7420746865206f776e657260448201526064016104e9565b6001600160a01b038116610fc15760405162461bcd60e51b815260206004820152602660248201527f4f776e61626c653a206e6577206f776e657220697320746865207a65726f206160448201527f646472657373000000000000000000000000000000000000000000000000000060648201526084016104e9565b610fca8161150f565b50565b600081815260696020526040902080546001600160a01b0319166001600160a01b038416908117909155819061100282610b84565b6001600160a01b03167f8c5be1e5ebec7d5bd14f71427d1e84f3dd0314c0f7b2291e5b200ac8c7c3b92560405160405180910390a45050565b6001600160a01b0382166110915760405162461bcd60e51b815260206004820181905260248201527f4552433732313a206d696e7420746f20746865207a65726f206164647265737360448201526064016104e9565b6000818152606760205260409020546001600160a01b0316156110f65760405162461bcd60e51b815260206004820152601c60248201527f4552433732313a20746f6b656e20616c7265616479206d696e7465640000000060448201526064016104e9565b6001600160a01b038216600090815260686020526040812080546001929061111f908490611efb565b909155505060008181526067602052604080822080546001600160a01b0319166001600160a01b03861690811790915590518392907fddf252ad1be2c89b69c2b068fc378daa952ba7f163c4a11628f55a4df523b3ef908290a45050565b6000818152606760205260408120546001600160a01b03166111f65760405162461bcd60e51b815260206004820152602c60248201527f4552433732313a206f70657261746f7220717565727920666f72206e6f6e657860448201526b34b9ba32b73a103a37b5b2b760a11b60648201526084016104e9565b600061120183610b84565b9050806001600160a01b0316846001600160a01b0316148061123c5750836001600160a01b031661123184610474565b6001600160a01b0316145b8061126c57506001600160a01b038082166000908152606a602090815260408083209388168352929052205460ff165b949350505050565b826001600160a01b031661128782610b84565b6001600160a01b0316146113035760405162461bcd60e51b815260206004820152602960248201527f4552433732313a207472616e73666572206f6620746f6b656e2074686174206960448201527f73206e6f74206f776e000000000000000000000000000000000000000000000060648201526084016104e9565b6001600160a01b03821661137e5760405162461bcd60e51b8152602060048201526024808201527f4552433732313a207472616e7366657220746f20746865207a65726f2061646460448201527f726573730000000000000000000000000000000000000000000000000000000060648201526084016104e9565b611389600082610fcd565b6001600160a01b03831660009081526068602052604081208054600192906113b2908490611f46565b90915550506001600160a01b03821660009081526068602052604081208054600192906113e0908490611efb565b909155505060008181526067602052604080822080546001600160a01b0319166001600160a01b0386811691821790925591518493918716917fddf252ad1be2c89b69c2b068fc378daa952ba7f163c4a11628f55a4df523b3ef91a4505050565b600054610100900460ff168061145a575060005460ff16155b6114bd5760405162461bcd60e51b815260206004820152602e60248201527f496e697469616c697a61626c653a20636f6e747261637420697320616c72656160448201526d191e481a5b9a5d1a585b1a5e995960921b60648201526084016104e9565b600054610100900460ff161580156114df576000805461ffff19166101011790555b6114e7611738565b6114ef611738565b6114f983836117ea565b801561063b576000805461ff0019169055505050565b609780546001600160a01b038381166001600160a01b0319831681179093556040519116919082907f8be0079c531659141344cd1fd0a4f28419497f9722a3daafe3b4186f6b6457e090600090a35050565b61156c848484611274565b611578848484846118c6565b610e6b5760405162461bcd60e51b815260206004820152603260248201527f4552433732313a207472616e7366657220746f206e6f6e20455243373231526560448201527f63656976657220696d706c656d656e746572000000000000000000000000000060648201526084016104e9565b60608161162a57505060408051808201909152600181527f3000000000000000000000000000000000000000000000000000000000000000602082015290565b8160005b8115611654578061163e81611fc4565b915061164d9050600a83611f13565b915061162e565b60008167ffffffffffffffff81111561167d57634e487b7160e01b600052604160045260246000fd5b6040519080825280601f01601f1916602001820160405280156116a7576020820181803683370190505b5090505b841561126c576116bc600183611f46565b91506116c9600a86611fdf565b6116d4906030611efb565b60f81b8183815181106116f757634e487b7160e01b600052603260045260246000fd5b60200101907effffffffffffffffffffffffffffffffffffffffffffffffffffffffffffff1916908160001a905350611731600a86611f13565b94506116ab565b600054610100900460ff1680611751575060005460ff16155b6117b45760405162461bcd60e51b815260206004820152602e60248201527f496e697469616c697a61626c653a20636f6e747261637420697320616c72656160448201526d191e481a5b9a5d1a585b1a5e995960921b60648201526084016104e9565b600054610100900460ff161580156117d6576000805461ffff19166101011790555b8015610fca576000805461ff001916905550565b600054610100900460ff1680611803575060005460ff16155b6118665760405162461bcd60e51b815260206004820152602e60248201527f496e697469616c697a61626c653a20636f6e747261637420697320616c72656160448201526d191e481a5b9a5d1a585b1a5e995960921b60648201526084016104e9565b600054610100900460ff16158015611888576000805461ffff19166101011790555b825161189b906065906020860190611a29565b5081516118af906066906020850190611a29565b50801561063b576000805461ff0019169055505050565b60006001600160a01b0384163b15611a1e57604051630a85bd0160e11b81526001600160a01b0385169063150b7a029061190a903390899088908890600401611eac565b602060405180830381600087803b15801561192457600080fd5b505af1925050508015611954575060408051601f3d908101601f1916820190925261195191810190611d30565b60015b611a04573d808015611982576040519150601f19603f3d011682016040523d82523d6000602084013e611987565b606091505b5080516119fc5760405162461bcd60e51b815260206004820152603260248201527f4552433732313a207472616e7366657220746f206e6f6e20455243373231526560448201527f63656976657220696d706c656d656e746572000000000000000000000000000060648201526084016104e9565b805181602001fd5b6001600160e01b031916630a85bd0160e11b14905061126c565b506001949350505050565b828054611a3590611f89565b90600052602060002090601f016020900481019282611a575760008555611a9d565b82601f10611a7057805160ff1916838001178555611a9d565b82800160010185558215611a9d579182015b82811115611a9d578251825591602001919060010190611a82565b50611aa9929150611aad565b5090565b5b80821115611aa95760008155600101611aae565b80356001600160a01b0381168114611ad957600080fd5b919050565b600060208284031215611aef578081fd5b611af882611ac2565b9392505050565b60008060408385031215611b11578081fd5b611b1a83611ac2565b9150611b2860208401611ac2565b90509250929050565b600080600060608486031215611b45578081fd5b611b4e84611ac2565b9250611b5c60208501611ac2565b9150604084013590509250925092565b60008060008060808587031215611b81578081fd5b611b8a85611ac2565b9350611b9860208601611ac2565b925060408501359150606085013567ffffffffffffffff80821115611bbb578283fd5b818701915087601f830112611bce578283fd5b813581811115611be057611be061201f565b604051601f8201601f19908116603f01168101908382118183101715611c0857611c0861201f565b816040528281528a6020848701011115611c20578586fd5b82602086016020830137918201602001949094529598949750929550505050565b60008060408385031215611c53578182fd5b611c5c83611ac2565b915060208301358015158114611c70578182fd5b809150509250929050565b60008060408385031215611c8d578182fd5b611c9683611ac2565b946020939093013593505050565b60008060208385031215611cb6578182fd5b823567ffffffffffffffff80821115611ccd578384fd5b818501915085601f830112611ce0578384fd5b813581811115611cee578485fd5b8660208260051b8501011115611d02578485fd5b60209290920196919550909350505050565b600060208284031215611d25578081fd5b8135611af881612035565b600060208284031215611d41578081fd5b8151611af881612035565b600060208284031215611d5d578081fd5b5035919050565b60008151808452611d7c816020860160208601611f5d565b601f01601f19169290920160200192915050565b60008351611da2818460208801611f5d565b835190830190611db6818360208801611f5d565b7f2e6a736f6e0000000000000000000000000000000000000000000000000000009101908152600501949350505050565b60006001600160a01b03808816835260208188168185015260a060408501528560a08501527f07ffffffffffffffffffffffffffffffffffffffffffffffffffffffffffffff861115611e38578283fd5b8560051b9150818760c086013760c0918401828101848152858203909301606086015285519283905281860192849160e001905b80831015611e8c5784518252938301936001929092019190830190611e6c565b50858103608087015260008152602081019b9a5050505050505050505050565b60006001600160a01b03808716835280861660208401525083604083015260806060830152611ede6080830184611d64565b9695505050505050565b602081526000611af86020830184611d64565b60008219821115611f0e57611f0e611ff3565b500190565b600082611f2257611f22612009565b500490565b6000816000190483118215151615611f4157611f41611ff3565b500290565b600082821015611f5857611f58611ff3565b500390565b60005b83811015611f78578181015183820152602001611f60565b83811115610e6b5750506000910152565b600181811c90821680611f9d57607f821691505b60208210811415611fbe57634e487b7160e01b600052602260045260246000fd5b50919050565b6000600019821415611fd857611fd8611ff3565b5060010190565b600082611fee57611fee612009565b500690565b634e487b7160e01b600052601160045260246000fd5b634e487b7160e01b600052601260045260246000fd5b634e487b7160e01b600052604160045260246000fd5b6001600160e01b031981168114610fca57600080fdfe697066733a2f2f516d6234615875316175674d6770536d6f55704a6774364e326776375154344b39436d5341537a67556878717573697066733a2f2f516d616f4371757145383447777a4575714261696132554e6b4d43743362676b4473774e666f6f414c6b464252502fa2646970667358221220701bf825ecf07271aca84ec0be74bd37bfca3f2c4185fa63f2ba8282e493043264736f6c63430008040033",
  "linkReferences": {},
  "deployedLinkReferences": {}
}