{
  "_format": "hh-sol-artifact-1",
  "contractName": "CryptoTrexVX",
  "sourceName": "contracts/CryptoTrexVX.sol",
  "abi": [
    {
      "inputs": [
        {
          "internalType": "address",
          "name": "_proxyRegistry",
          "type": "address"
        },
        {
          "internalType": "address",
          "name": "_fossilContract",
          "type": "address"
        },
        {
          "internalType": "address",
          "name": "_genesisContract",
          "type": "address"
        },
        {
          "internalType": "string",
          "name": "_uri",
          "type": "string"
        }
      ],
      "stateMutability": "nonpayable",
      "type": "constructor"
    },
    {
      "anonymous": false,
      "inputs": [
        {
          "indexed": true,
          "internalType": "address",
          "name": "owner",
          "type": "address"
        },
        {
          "indexed": true,
          "internalType": "address",
          "name": "approved",
          "type": "address"
        },
        {
          "indexed": true,
          "internalType": "uint256",
          "name": "tokenId",
          "type": "uint256"
        }
      ],
      "name": "Approval",
      "type": "event"
    },
    {
      "anonymous": false,
      "inputs": [
        {
          "indexed": true,
          "internalType": "address",
          "name": "owner",
          "type": "address"
        },
        {
          "indexed": true,
          "internalType": "address",
          "name": "operator",
          "type": "address"
        },
        {
          "indexed": false,
          "internalType": "bool",
          "name": "approved",
          "type": "bool"
        }
      ],
      "name": "ApprovalForAll",
      "type": "event"
    },
    {
      "anonymous": false,
      "inputs": [
        {
          "indexed": false,
          "internalType": "address",
          "name": "userAddress",
          "type": "address"
        },
        {
          "indexed": false,
          "internalType": "address payable",
          "name": "relayerAddress",
          "type": "address"
        },
        {
          "indexed": false,
          "internalType": "bytes",
          "name": "functionSignature",
          "type": "bytes"
        }
      ],
      "name": "MetaTransactionExecuted",
      "type": "event"
    },
    {
      "anonymous": false,
      "inputs": [
        {
          "indexed": true,
          "internalType": "address",
          "name": "previousOwner",
          "type": "address"
        },
        {
          "indexed": true,
          "internalType": "address",
          "name": "newOwner",
          "type": "address"
        }
      ],
      "name": "OwnershipTransferred",
      "type": "event"
    },
    {
      "anonymous": false,
      "inputs": [
        {
          "indexed": true,
          "internalType": "address",
          "name": "from",
          "type": "address"
        },
        {
          "indexed": true,
          "internalType": "address",
          "name": "to",
          "type": "address"
        },
        {
          "indexed": true,
          "internalType": "uint256",
          "name": "tokenId",
          "type": "uint256"
        }
      ],
      "name": "Transfer",
      "type": "event"
    },
    {
      "inputs": [],
      "name": "ERC712_VERSION",
      "outputs": [
        {
          "internalType": "string",
          "name": "",
          "type": "string"
        }
      ],
      "stateMutability": "view",
      "type": "function"
    },
    {
      "inputs": [
        {
          "internalType": "address",
          "name": "to",
          "type": "address"
        },
        {
          "internalType": "uint256",
          "name": "amount",
          "type": "uint256"
        }
      ],
      "name": "airdrop",
      "outputs": [],
      "stateMutability": "nonpayable",
      "type": "function"
    },
    {
      "inputs": [
        {
          "internalType": "address",
          "name": "to",
          "type": "address"
        },
        {
          "internalType": "uint256",
          "name": "tokenId",
          "type": "uint256"
        }
      ],
      "name": "approve",
      "outputs": [],
      "stateMutability": "nonpayable",
      "type": "function"
    },
    {
      "inputs": [
        {
          "internalType": "address",
          "name": "owner",
          "type": "address"
        }
      ],
      "name": "balanceOf",
      "outputs": [
        {
          "internalType": "uint256",
          "name": "",
          "type": "uint256"
        }
      ],
      "stateMutability": "view",
      "type": "function"
    },
    {
      "inputs": [],
      "name": "baseTokenURI",
      "outputs": [
        {
          "internalType": "string",
          "name": "",
          "type": "string"
        }
      ],
      "stateMutability": "view",
      "type": "function"
    },
    {
      "inputs": [],
      "name": "claim",
      "outputs": [],
      "stateMutability": "nonpayable",
      "type": "function"
    },
    {
      "inputs": [],
      "name": "claimRewards",
      "outputs": [],
      "stateMutability": "nonpayable",
      "type": "function"
    },
    {
      "inputs": [],
      "name": "etherPrice",
      "outputs": [
        {
          "internalType": "uint256",
          "name": "",
          "type": "uint256"
        }
      ],
      "stateMutability": "view",
      "type": "function"
    },
    {
      "inputs": [
        {
          "internalType": "address",
          "name": "userAddress",
          "type": "address"
        },
        {
          "internalType": "bytes",
          "name": "functionSignature",
          "type": "bytes"
        },
        {
          "internalType": "bytes32",
          "name": "sigR",
          "type": "bytes32"
        },
        {
          "internalType": "bytes32",
          "name": "sigS",
          "type": "bytes32"
        },
        {
          "internalType": "uint8",
          "name": "sigV",
          "type": "uint8"
        }
      ],
      "name": "executeMetaTransaction",
      "outputs": [
        {
          "internalType": "bytes",
          "name": "",
          "type": "bytes"
        }
      ],
      "stateMutability": "payable",
      "type": "function"
    },
    {
      "inputs": [
        {
          "internalType": "uint256",
          "name": "amount",
          "type": "uint256"
        }
      ],
      "name": "fossilMint",
      "outputs": [],
      "stateMutability": "payable",
      "type": "function"
    },
    {
      "inputs": [],
      "name": "fossilPrice",
      "outputs": [
        {
          "internalType": "uint256",
          "name": "",
          "type": "uint256"
        }
      ],
      "stateMutability": "view",
      "type": "function"
    },
    {
      "inputs": [
        {
          "internalType": "uint256[]",
          "name": "tokenIds",
          "type": "uint256[]"
        }
      ],
      "name": "genesisMint",
      "outputs": [],
      "stateMutability": "nonpayable",
      "type": "function"
    },
    {
      "inputs": [
        {
          "internalType": "uint256",
          "name": "tokenId",
          "type": "uint256"
        }
      ],
      "name": "getApproved",
      "outputs": [
        {
          "internalType": "address",
          "name": "",
          "type": "address"
        }
      ],
      "stateMutability": "view",
      "type": "function"
    },
    {
      "inputs": [],
      "name": "getChainId",
      "outputs": [
        {
          "internalType": "uint256",
          "name": "",
          "type": "uint256"
        }
      ],
      "stateMutability": "view",
      "type": "function"
    },
    {
      "inputs": [],
      "name": "getDomainSeperator",
      "outputs": [
        {
          "internalType": "bytes32",
          "name": "",
          "type": "bytes32"
        }
      ],
      "stateMutability": "view",
      "type": "function"
    },
    {
      "inputs": [
        {
          "internalType": "address",
          "name": "user",
          "type": "address"
        }
      ],
      "name": "getNonce",
      "outputs": [
        {
          "internalType": "uint256",
          "name": "nonce",
          "type": "uint256"
        }
      ],
      "stateMutability": "view",
      "type": "function"
    },
    {
      "inputs": [
        {
          "internalType": "address",
          "name": "owner",
          "type": "address"
        },
        {
          "internalType": "address",
          "name": "operator",
          "type": "address"
        }
      ],
      "name": "isApprovedForAll",
      "outputs": [
        {
          "internalType": "bool",
          "name": "",
          "type": "bool"
        }
      ],
      "stateMutability": "view",
      "type": "function"
    },
    {
      "inputs": [
        {
          "internalType": "uint256[]",
          "name": "tokenIds",
          "type": "uint256[]"
        }
      ],
      "name": "isGenesisMinted",
      "outputs": [
        {
          "internalType": "bool[]",
          "name": "",
          "type": "bool[]"
        }
      ],
      "stateMutability": "view",
      "type": "function"
    },
    {
      "inputs": [
        {
          "internalType": "uint256",
          "name": "amount",
          "type": "uint256"
        }
      ],
      "name": "mint",
      "outputs": [],
      "stateMutability": "payable",
      "type": "function"
    },
    {
      "inputs": [],
      "name": "name",
      "outputs": [
        {
          "internalType": "string",
          "name": "",
          "type": "string"
        }
      ],
      "stateMutability": "view",
      "type": "function"
    },
    {
      "inputs": [
        {
          "internalType": "address",
          "name": "owner",
          "type": "address"
        }
      ],
      "name": "owned",
      "outputs": [
        {
          "internalType": "uint256[]",
          "name": "",
          "type": "uint256[]"
        }
      ],
      "stateMutability": "view",
      "type": "function"
    },
    {
      "inputs": [],
      "name": "owner",
      "outputs": [
        {
          "internalType": "address",
          "name": "",
          "type": "address"
        }
      ],
      "stateMutability": "view",
      "type": "function"
    },
    {
      "inputs": [
        {
          "internalType": "uint256",
          "name": "tokenId",
          "type": "uint256"
        }
      ],
      "name": "ownerOf",
      "outputs": [
        {
          "internalType": "address",
          "name": "",
          "type": "address"
        }
      ],
      "stateMutability": "view",
      "type": "function"
    },
    {
      "inputs": [
        {
          "internalType": "string",
          "name": "module",
          "type": "string"
        }
      ],
      "name": "paused",
      "outputs": [
        {
          "internalType": "bool",
          "name": "",
          "type": "bool"
        }
      ],
      "stateMutability": "view",
      "type": "function"
    },
    {
      "inputs": [],
      "name": "receiver",
      "outputs": [
        {
          "internalType": "address payable",
          "name": "",
          "type": "address"
        }
      ],
      "stateMutability": "view",
      "type": "function"
    },
    {
      "inputs": [],
      "name": "renounceOwnership",
      "outputs": [],
      "stateMutability": "nonpayable",
      "type": "function"
    },
    {
      "inputs": [
        {
          "internalType": "address",
          "name": "owner",
          "type": "address"
        }
      ],
      "name": "rewards",
      "outputs": [
        {
          "internalType": "uint256",
          "name": "",
          "type": "uint256"
        }
      ],
      "stateMutability": "view",
      "type": "function"
    },
    {
      "inputs": [
        {
          "internalType": "address",
          "name": "from",
          "type": "address"
        },
        {
          "internalType": "address",
          "name": "to",
          "type": "address"
        },
        {
          "internalType": "uint256",
          "name": "tokenId",
          "type": "uint256"
        }
      ],
      "name": "safeTransferFrom",
      "outputs": [],
      "stateMutability": "nonpayable",
      "type": "function"
    },
    {
      "inputs": [
        {
          "internalType": "address",
          "name": "from",
          "type": "address"
        },
        {
          "internalType": "address",
          "name": "to",
          "type": "address"
        },
        {
          "internalType": "uint256",
          "name": "tokenId",
          "type": "uint256"
        },
        {
          "internalType": "bytes",
          "name": "_data",
          "type": "bytes"
        }
      ],
      "name": "safeTransferFrom",
      "outputs": [],
      "stateMutability": "nonpayable",
      "type": "function"
    },
    {
      "inputs": [
        {
          "internalType": "address",
          "name": "operator",
          "type": "address"
        },
        {
          "internalType": "bool",
          "name": "approved",
          "type": "bool"
        }
      ],
      "name": "setApprovalForAll",
      "outputs": [],
      "stateMutability": "nonpayable",
      "type": "function"
    },
    {
      "inputs": [
        {
          "internalType": "uint256",
          "name": "amount",
          "type": "uint256"
        }
      ],
      "name": "setEtherPrice",
      "outputs": [],
      "stateMutability": "nonpayable",
      "type": "function"
    },
    {
      "inputs": [
        {
          "internalType": "uint256",
          "name": "amount",
          "type": "uint256"
        }
      ],
      "name": "setFossilPrice",
      "outputs": [],
      "stateMutability": "nonpayable",
      "type": "function"
    },
    {
      "inputs": [
        {
          "internalType": "uint256",
          "name": "amount",
          "type": "uint256"
        }
      ],
      "name": "setMaxSupply",
      "outputs": [],
      "stateMutability": "nonpayable",
      "type": "function"
    },
    {
      "inputs": [
        {
          "internalType": "string",
          "name": "module",
          "type": "string"
        },
        {
          "internalType": "bool",
          "name": "value",
          "type": "bool"
        }
      ],
      "name": "setPause",
      "outputs": [],
      "stateMutability": "nonpayable",
      "type": "function"
    },
    {
      "inputs": [
        {
          "internalType": "address payable",
          "name": "_receiver",
          "type": "address"
        }
      ],
      "name": "setReceiver",
      "outputs": [],
      "stateMutability": "nonpayable",
      "type": "function"
    },
    {
      "inputs": [],
      "name": "setStakingStartTimestamp",
      "outputs": [],
      "stateMutability": "nonpayable",
      "type": "function"
    },
    {
      "inputs": [
        {
          "internalType": "bool",
          "name": "value",
          "type": "bool"
        }
      ],
      "name": "setStakingStatus",
      "outputs": [],
      "stateMutability": "nonpayable",
      "type": "function"
    },
    {
      "inputs": [
        {
          "internalType": "string",
          "name": "_uri",
          "type": "string"
        }
      ],
      "name": "setTokenURI",
      "outputs": [],
      "stateMutability": "nonpayable",
      "type": "function"
    },
    {
      "inputs": [
        {
          "internalType": "bytes4",
          "name": "interfaceId",
          "type": "bytes4"
        }
      ],
      "name": "supportsInterface",
      "outputs": [
        {
          "internalType": "bool",
          "name": "",
          "type": "bool"
        }
      ],
      "stateMutability": "view",
      "type": "function"
    },
    {
      "inputs": [],
      "name": "symbol",
      "outputs": [
        {
          "internalType": "string",
          "name": "",
          "type": "string"
        }
      ],
      "stateMutability": "view",
      "type": "function"
    },
    {
      "inputs": [
        {
          "internalType": "uint256",
          "name": "tokenId",
          "type": "uint256"
        }
      ],
      "name": "test",
      "outputs": [
        {
          "components": [
            {
              "internalType": "address",
              "name": "addr",
              "type": "address"
            },
            {
              "internalType": "uint64",
              "name": "startTimestamp",
              "type": "uint64"
            }
          ],
          "internalType": "struct ERC721.TokenOwnership",
          "name": "",
          "type": "tuple"
        }
      ],
      "stateMutability": "view",
      "type": "function"
    },
    {
      "inputs": [
        {
          "internalType": "uint256",
          "name": "index",
          "type": "uint256"
        }
      ],
      "name": "tokenByIndex",
      "outputs": [
        {
          "internalType": "uint256",
          "name": "",
          "type": "uint256"
        }
      ],
      "stateMutability": "view",
      "type": "function"
    },
    {
      "inputs": [
        {
          "internalType": "uint256",
          "name": "_tokenId",
          "type": "uint256"
        }
      ],
      "name": "tokenIdMap",
      "outputs": [
        {
          "internalType": "uint256",
          "name": "",
          "type": "uint256"
        }
      ],
      "stateMutability": "pure",
      "type": "function"
    },
    {
      "inputs": [
        {
          "internalType": "address",
          "name": "owner",
          "type": "address"
        },
        {
          "internalType": "uint256",
          "name": "index",
          "type": "uint256"
        }
      ],
      "name": "tokenOfOwnerByIndex",
      "outputs": [
        {
          "internalType": "uint256",
          "name": "",
          "type": "uint256"
        }
      ],
      "stateMutability": "view",
      "type": "function"
    },
    {
      "inputs": [
        {
          "internalType": "uint256",
          "name": "_tokenId",
          "type": "uint256"
        }
      ],
      "name": "tokenURI",
      "outputs": [
        {
          "internalType": "string",
          "name": "",
          "type": "string"
        }
      ],
      "stateMutability": "view",
      "type": "function"
    },
    {
      "inputs": [],
      "name": "totalSupply",
      "outputs": [
        {
          "internalType": "uint256",
          "name": "",
          "type": "uint256"
        }
      ],
      "stateMutability": "view",
      "type": "function"
    },
    {
      "inputs": [
        {
          "internalType": "address",
          "name": "from",
          "type": "address"
        },
        {
          "internalType": "address",
          "name": "to",
          "type": "address"
        },
        {
          "internalType": "uint256",
          "name": "tokenId",
          "type": "uint256"
        }
      ],
      "name": "transferFrom",
      "outputs": [],
      "stateMutability": "nonpayable",
      "type": "function"
    },
    {
      "inputs": [
        {
          "internalType": "address",
          "name": "newOwner",
          "type": "address"
        }
      ],
      "name": "transferOwnership",
      "outputs": [],
      "stateMutability": "nonpayable",
      "type": "function"
    }
  ],
  "bytecode": "0x60a06040523480156200001157600080fd5b506040516200536f3803806200536f83398101604081905262000034916200057c565b6040518060400160405280600c81526020016b086e4f2e0e8dea8e4caf0acb60a31b815250604051806040016040528060068152602001650a8a48ab0acb60d31b815250858282816005908051906020019062000093929190620004b9565b508051620000a9906006906020840190620004b9565b5050610458600055506014608052620000cb620000c562000274565b62000290565b6001600b55600c80546001600160a01b0319166001600160a01b038316179055620000f683620002e2565b5050506001600d6040518060400160405280600c81526020016b464f5353494c5f504155534560a01b81525060405162000131919062000669565b908152602001604051809103902060006101000a81548160ff0219169083151502179055506001600d6040518060400160405280600c81526020016b434f4d4d4f4e5f504155534560a01b8152506040516200018e919062000669565b908152602001604051809103902060006101000a81548160ff0219169083151502179055506000600d6040518060400160405280600d81526020016c47454e455349535f504155534560981b815250604051620001ec919062000669565b90815260405160209181900382019020805460ff19169215159290921790915581516200022091600f9190840190620004b9565b505067011c37937e0800006010556802b5e3af16b1880000601155601380546001600160a01b039384166001600160a01b0319918216179091556014805492909316911617905550613415600e556200070d565b60006200028b620003b860201b62002a471760201c565b905090565b600a80546001600160a01b038381166001600160a01b0319831681179093556040519116919082907f8be0079c531659141344cd1fd0a4f28419497f9722a3daafe3b4186f6b6457e090600090a35050565b600754610100900460ff1680620002fc575060075460ff16155b620003735760405162461bcd60e51b815260206004820152603460248201527f437573746f6d496e697469616c697a61626c653a20636f6e747261637420697360448201527f20616c726561647920696e697469616c697a6564000000000000000000000000606482015260840160405180910390fd5b600754610100900460ff1615801562000396576007805461ffff19166101011790555b620003a18262000417565b8015620003b4576007805461ff00191690555b5050565b6000333014156200041157600080368080601f0160208091040260200160405190810160405280939291908181526020018383808284376000920191909152505050503601516001600160a01b03169150620004149050565b50335b90565b6040518060800160405280604f815260200162005320604f9139805160209182012082519282019290922060408051808201825260018152603160f81b90840152805180840194909452838101919091527fc89efdaa54c0f20c7adf612882df0950f5a951637e0307cdcb4c672f298b8bc660608401523060808401524660a0808501919091528151808503909101815260c090930190528151910120600855565b828054620004c790620006ba565b90600052602060002090601f016020900481019282620004eb576000855562000536565b82601f106200050657805160ff191683800117855562000536565b8280016001018555821562000536579182015b828111156200053657825182559160200191906001019062000519565b506200054492915062000548565b5090565b5b8082111562000544576000815560010162000549565b80516001600160a01b03811681146200057757600080fd5b919050565b6000806000806080858703121562000592578384fd5b6200059d856200055f565b9350620005ad602086016200055f565b9250620005bd604086016200055f565b60608601519092506001600160401b0380821115620005da578283fd5b818701915087601f830112620005ee578283fd5b815181811115620006035762000603620006f7565b604051601f8201601f19908116603f011681019083821181831017156200062e576200062e620006f7565b816040528281528a602084870101111562000647578586fd5b6200065a83602083016020880162000687565b979a9699509497505050505050565b600082516200067d81846020870162000687565b9190910192915050565b60005b83811015620006a45781810151838201526020016200068a565b83811115620006b4576000848401525b50505050565b600181811c90821680620006cf57607f821691505b60208210811415620006f157634e487b7160e01b600052602260045260246000fd5b50919050565b634e487b7160e01b600052604160045260246000fd5b608051614be962000737600039600081816131a0015281816131ca015261340c0152614be96000f3fe6080604052600436106103135760003560e01c80636f8b44b01161019a578063a5b1c19e116100e1578063d547cfb71161008a578063e985e9c511610064578063e985e9c51461092b578063f2fde38b1461094b578063f7260d3e1461096b57600080fd5b8063d547cfb7146108d6578063df7662b8146108eb578063e0df5b6f1461090b57600080fd5b8063b8bec6a0116100bb578063b8bec6a014610876578063b92acb0714610896578063c87b56dd146108b657600080fd5b8063a5b1c19e14610809578063b1ab931714610829578063b88d4fde1461085657600080fd5b80638da5cb5b116101435780639e3079551161011d5780639e307955146107c0578063a0712d68146107d6578063a22cb465146107e957600080fd5b80638da5cb5b1461077857806395d89b41146107965780639a9120c3146107ab57600080fd5b8063718da7ee11610174578063718da7ee1461072557806371a4d06f146107455780638ba4cc3c1461075857600080fd5b80636f8b44b0146106d057806370a08231146106f0578063715018a61461071057600080fd5b806323b872dd1161025e5780633408e470116102075780634e71d92d116101e15780634e71d92d1461067b5780634f6ccce7146106905780636352211e146106b057600080fd5b80633408e47014610633578063372500ab1461064657806342842e0e1461065b57600080fd5b80632cc0d033116102385780632cc0d033146105c75780632d0335ab146105dd5780632f745c591461061357600080fd5b806323b872dd146104ea578063271879911461050a57806329e99f071461052a57600080fd5b80630e321a42116102c057806318160ddd1161029a57806318160ddd146104a05780631ac260e8146104b557806320379ee5146104d557600080fd5b80630e321a421461040a5780630f7e59701461042a57806314d241331461047357600080fd5b8063081812fc116102f1578063081812fc1461039d578063095ea7b3146103d55780630c53c51c146103f757600080fd5b806301ffc9a71461031857806306fdde031461034d5780630700037d1461036f575b600080fd5b34801561032457600080fd5b506103386103333660046145c0565b61098b565b60405190151581526020015b60405180910390f35b34801561035957600080fd5b5061036261099c565b6040516103449190614982565b34801561037b57600080fd5b5061038f61038a366004614283565b610a2e565b604051908152602001610344565b3480156103a957600080fd5b506103bd6103b83660046146d3565b610abe565b6040516001600160a01b039091168152602001610344565b3480156103e157600080fd5b506103f56103f0366004614445565b610b4b565b005b6103626104053660046143ca565b610c90565b34801561041657600080fd5b5061038f6104253660046146d3565b610e96565b34801561043657600080fd5b506103626040518060400160405280600181526020017f310000000000000000000000000000000000000000000000000000000000000081525081565b34801561047f57600080fd5b5061049361048e3660046144e0565b611023565b6040516103449190614904565b3480156104ac57600080fd5b5060005461038f565b3480156104c157600080fd5b506103386104d036600461468d565b61110e565b3480156104e157600080fd5b5060085461038f565b3480156104f657600080fd5b506103f56105053660046142f3565b611139565b34801561051657600080fd5b506103f56105253660046146d3565b6111c7565b34801561053657600080fd5b506105996105453660046146d3565b6040805180820190915260008082526020820152506000908152600160209081526040918290208251808401909352546001600160a01b0381168352600160a01b900467ffffffffffffffff169082015290565b6040805182516001600160a01b0316815260209283015167ffffffffffffffff169281019290925201610344565b3480156105d357600080fd5b5061038f60115481565b3480156105e957600080fd5b5061038f6105f8366004614283565b6001600160a01b031660009081526009602052604090205490565b34801561061f57600080fd5b5061038f61062e366004614445565b611233565b34801561063f57600080fd5b504661038f565b34801561065257600080fd5b506103f56113cb565b34801561066757600080fd5b506103f56106763660046142f3565b61151b565b34801561068757600080fd5b506103f5611536565b34801561069c57600080fd5b5061038f6106ab3660046146d3565b611631565b3480156106bc57600080fd5b506103bd6106cb3660046146d3565b6116ad565b3480156106dc57600080fd5b506103f56106eb3660046146d3565b6116bf565b3480156106fc57600080fd5b5061038f61070b366004614283565b61177c565b34801561071c57600080fd5b506103f5611816565b34801561073157600080fd5b506103f5610740366004614283565b611889565b6103f56107533660046146d3565b61191f565b34801561076457600080fd5b506103f5610773366004614445565b611d65565b34801561078457600080fd5b50600a546001600160a01b03166103bd565b3480156107a257600080fd5b50610362611e3e565b3480156107b757600080fd5b506103f5611e4d565b3480156107cc57600080fd5b5061038f60105481565b6103f56107e43660046146d3565b611eba565b3480156107f557600080fd5b506103f561080436600461439d565b61210d565b34801561081557600080fd5b506103f5610824366004614470565b61211f565b34801561083557600080fd5b50610849610844366004614283565b612476565b604051610344919061494a565b34801561086257600080fd5b506103f5610871366004614333565b612534565b34801561088257600080fd5b506103f5610891366004614588565b6125c9565b3480156108a257600080fd5b506103f56108b13660046146d3565b612669565b3480156108c257600080fd5b506103626108d13660046146d3565b6126d5565b3480156108e257600080fd5b50610362612709565b3480156108f757600080fd5b506103f5610906366004614638565b612718565b34801561091757600080fd5b506103f56109263660046145f8565b612803565b34801561093757600080fd5b506103386109463660046142bb565b612876565b34801561095757600080fd5b506103f5610966366004614283565b61295b565b34801561097757600080fd5b506012546103bd906001600160a01b031681565b600061099682612aa4565b92915050565b6060600580546109ab90614a6b565b80601f01602080910402602001604051908101604052809291908181526020018280546109d790614a6b565b8015610a245780601f106109f957610100808354040283529160200191610a24565b820191906000526020600020905b815481529060010190602001808311610a0757829003601f168201915b5050505050905090565b6001600160a01b03811660009081526015602052604081205480610a5157506017545b60006203f480610a618342614a11565b610a7390670de0b6b3a76400006149f2565b610a7c8661177c565b610a8691906149f2565b610a9091906149de565b6001600160a01b038516600090815260166020526040902054909150610ab690826149c6565b949350505050565b6000610ac982612ae2565b610b2f5760405162461bcd60e51b815260206004820152602c60248201527f4552433732313a20617070726f76656420717565727920666f72206e6f6e657860448201526b34b9ba32b73a103a37b5b2b760a11b60648201526084015b60405180910390fd5b506000908152600360205260409020546001600160a01b031690565b6000610b56826116ad565b9050806001600160a01b0316836001600160a01b03161415610be05760405162461bcd60e51b815260206004820152602160248201527f4552433732313a20617070726f76616c20746f2063757272656e74206f776e6560448201527f72000000000000000000000000000000000000000000000000000000000000006064820152608401610b26565b806001600160a01b0316610bf2612b14565b6001600160a01b03161480610c0e5750610c0e81610946612b14565b610c805760405162461bcd60e51b815260206004820152603860248201527f4552433732313a20617070726f76652063616c6c6572206973206e6f74206f7760448201527f6e6572206e6f7220617070726f76656420666f7220616c6c00000000000000006064820152608401610b26565b610c8b838383612b23565b505050565b60408051606081810183526001600160a01b03881660008181526009602090815290859020548452830152918101869052610cce8782878787612b8c565b610d405760405162461bcd60e51b815260206004820152602160248201527f5369676e657220616e64207369676e617475726520646f206e6f74206d61746360448201527f68000000000000000000000000000000000000000000000000000000000000006064820152608401610b26565b6001600160a01b038716600090815260096020526040902054610d64906001612c94565b6001600160a01b0388166000908152600960205260409081902091909155517f5845892132946850460bff5a0083f71031bc5bf9aadcd40f1de79423eac9b10b90610db490899033908a9061489c565b60405180910390a1600080306001600160a01b0316888a604051602001610ddc929190614767565b60408051601f1981840301815290829052610df69161474b565b6000604051808303816000865af19150503d8060008114610e33576040519150601f19603f3d011682016040523d82523d6000602084013e610e38565b606091505b509150915081610e8a5760405162461bcd60e51b815260206004820152601c60248201527f46756e6374696f6e2063616c6c206e6f74207375636365737366756c000000006044820152606401610b26565b98975050505050505050565b6000606082901c73d640cf88f763cee6b243f1cab3d0befdafc47b9e14610ebf57506000919050565b8164ffffffffff16600114610ed657506000919050565b66ffffffffffffff602883901c16603b811015610ef65750600092915050565b610f01603b82614a11565b905061045d811180610f135750806068145b80610f1e575080606b145b80610f2957508060ce145b80610f35575080610262145b80610f41575080610263145b80610f4d575080610264145b80610f59575080610265145b15610f675750600092915050565b60006068821115610f805780610f7c81614aa6565b9150505b606b821115610f975780610f9381614aa6565b9150505b60ce821115610fae5780610faa81614aa6565b9150505b610262821115610fc65780610fc281614aa6565b9150505b610263821115610fde5780610fda81614aa6565b9150505b610264821115610ff65780610ff281614aa6565b9150505b61026582111561100e578061100a81614aa6565b9150505b6110188183614a11565b610ab69060016149c6565b60606000825167ffffffffffffffff81111561104f57634e487b7160e01b600052604160045260246000fd5b604051908082528060200260200182016040528015611078578160200160208202803683370190505b50905060005b83518110156111075760006110b98583815181106110ac57634e487b7160e01b600052603260045260246000fd5b6020026020010151610e96565b90506110c481612ae2565b8383815181106110e457634e487b7160e01b600052603260045260246000fd5b9115156020928302919091019091015250806110ff81614aa6565b91505061107e565b5092915050565b6000600d82604051611120919061474b565b9081526040519081900360200190205460ff1692915050565b61114a611144612b14565b82612ca7565b6111bc5760405162461bcd60e51b815260206004820152603160248201527f4552433732313a207472616e736665722063616c6c6572206973206e6f74206f60448201527f776e6572206e6f7220617070726f7665640000000000000000000000000000006064820152608401610b26565b610c8b838383612d69565b6111cf612b14565b6001600160a01b03166111ea600a546001600160a01b031690565b6001600160a01b03161461122e5760405162461bcd60e51b81526020600482018190526024820152600080516020614b948339815191526044820152606401610b26565b601055565b600061123e8361177c565b82106112b25760405162461bcd60e51b815260206004820152602260248201527f455243373231413a206f776e657220696e646578206f7574206f6620626f756e60448201527f64730000000000000000000000000000000000000000000000000000000000006064820152608401610b26565b600080549080805b8381101561135c576000818152600160209081526040918290208251808401909352546001600160a01b038116808452600160a01b90910467ffffffffffffffff16918301919091521561130d57805192505b876001600160a01b0316836001600160a01b03161415611349578684141561133b5750935061099692505050565b8361134581614aa6565b9450505b508061135481614aa6565b9150506112ba565b5060405162461bcd60e51b815260206004820152602e60248201527f455243373231413a20756e61626c6520746f2067657420746f6b656e206f662060448201527f6f776e657220627920696e6465780000000000000000000000000000000000006064820152608401610b26565b601454600160a01b900460ff166114245760405162461bcd60e51b815260206004820152601260248201527f7374616b696e67206e6f742061637469766500000000000000000000000000006044820152606401610b26565b600061142f33610a2e565b336000908152601560209081526040808320429055601690915281205590508061149b5760405162461bcd60e51b815260206004820152601060248201527f6e6f7468696e6720746f20636c61696d000000000000000000000000000000006044820152606401610b26565b6013546040517f40c10f19000000000000000000000000000000000000000000000000000000008152336004820152602481018390526001600160a01b03909116906340c10f1990604401600060405180830381600087803b15801561150057600080fd5b505af1158015611514573d6000803e3d6000fd5b5050505050565b610c8b83838360405180602001604052806000815250612534565b61153e612b14565b6001600160a01b0316611559600a546001600160a01b031690565b6001600160a01b03161461159d5760405162461bcd60e51b81526020600482018190526024820152600080516020614b948339815191526044820152606401610b26565b6012546001600160a01b03166115f55760405162461bcd60e51b815260206004820152601060248201527f7265636569766572206e6f7420736574000000000000000000000000000000006044820152606401610b26565b6012546040516001600160a01b03909116904780156108fc02916000818181858888f1935050505015801561162e573d6000803e3d6000fd5b50565b6000805482106116a95760405162461bcd60e51b815260206004820152602360248201527f455243373231413a20676c6f62616c20696e646578206f7574206f6620626f7560448201527f6e647300000000000000000000000000000000000000000000000000000000006064820152608401610b26565b5090565b60006116b88261310d565b5192915050565b6116c7612b14565b6001600160a01b03166116e2600a546001600160a01b031690565b6001600160a01b0316146117265760405162461bcd60e51b81526020600482018190526024820152600080516020614b948339815191526044820152606401610b26565b61045781116117775760405162461bcd60e51b815260206004820152601760248201527f6c657373207468616e2067656e6573697320636f756e740000000000000000006044820152606401610b26565b600e55565b60006001600160a01b0382166117fa5760405162461bcd60e51b815260206004820152602a60248201527f4552433732313a2062616c616e636520717565727920666f7220746865207a6560448201527f726f2061646472657373000000000000000000000000000000000000000000006064820152608401610b26565b506001600160a01b031660009081526002602052604090205490565b61181e612b14565b6001600160a01b0316611839600a546001600160a01b031690565b6001600160a01b03161461187d5760405162461bcd60e51b81526020600482018190526024820152600080516020614b948339815191526044820152606401610b26565b61188760006132d6565b565b611891612b14565b6001600160a01b03166118ac600a546001600160a01b031690565b6001600160a01b0316146118f05760405162461bcd60e51b81526020600482018190526024820152600080516020614b948339815191526044820152606401610b26565b6012805473ffffffffffffffffffffffffffffffffffffffff19166001600160a01b0392909216919091179055565b6040518060400160405280600c81526020017f464f5353494c5f5041555345000000000000000000000000000000000000000081525061195e8161110e565b1561199e5760405162461bcd60e51b815260206004820152601060248201526f14185d5cd8589b194e881c185d5cd95960821b6044820152606401610b26565b6002600b5414156119f15760405162461bcd60e51b815260206004820152601f60248201527f5265656e7472616e637947756172643a207265656e7472616e742063616c6c006044820152606401610b26565b6002600b55611a02601460016149c6565b8210611a505760405162461bcd60e51b815260206004820152601660248201527f616d6f756e742063616e277420657863656564203230000000000000000000006044820152606401610b26565b60008211611aa05760405162461bcd60e51b815260206004820152601160248201527f616d6f756e7420746f6f206c6974746c650000000000000000000000000000006044820152606401610b26565b600e54611aae9060026149c6565b82611ab860005490565b611ac291906149c6565b10611b035760405162461bcd60e51b8152602060048201526011602482015270657863656564206d617820737570706c7960781b6044820152606401610b26565b81601154611b1191906149f2565b6013546040516370a0823160e01b81523360048201526001600160a01b03909116906370a082319060240160206040518083038186803b158015611b5457600080fd5b505afa158015611b68573d6000803e3d6000fd5b505050506040513d601f19601f82011682018060405250810190611b8c91906146eb565b1015611bda5760405162461bcd60e51b815260206004820152601160248201527f696e73756666696369656e742066756e640000000000000000000000000000006044820152606401610b26565b6014546040516370a0823160e01b81523360048201526000916001600160a01b0316906370a082319060240160206040518083038186803b158015611c1e57600080fd5b505afa158015611c32573d6000803e3d6000fd5b505050506040513d601f19601f82011682018060405250810190611c5691906146eb565b11611ca35760405162461bcd60e51b815260206004820152601660248201527f6d757374206f776e20612067656e6573697320726578000000000000000000006044820152606401610b26565b611cad3383613335565b6013546011546001600160a01b03909116906323b872dd9033903090611cd49087906149f2565b6040516001600160e01b031960e086901b1681526001600160a01b0393841660048201529290911660248301526044820152606401602060405180830381600087803b158015611d2357600080fd5b505af1158015611d37573d6000803e3d6000fd5b505050506040513d601f19601f82011682018060405250810190611d5b91906145a4565b50506001600b5550565b611d6d612b14565b6001600160a01b0316611d88600a546001600160a01b031690565b6001600160a01b031614611dcc5760405162461bcd60e51b81526020600482018190526024820152600080516020614b948339815191526044820152606401610b26565b600e54611dda9060016149c6565b81611de460005490565b611dee91906149c6565b1115611e305760405162461bcd60e51b8152602060048201526011602482015270657863656564206d617820737570706c7960781b6044820152606401610b26565b611e3a8282613335565b5050565b6060600680546109ab90614a6b565b611e55612b14565b6001600160a01b0316611e70600a546001600160a01b031690565b6001600160a01b031614611eb45760405162461bcd60e51b81526020600482018190526024820152600080516020614b948339815191526044820152606401610b26565b42601755565b6040518060400160405280600c81526020017f434f4d4d4f4e5f50415553450000000000000000000000000000000000000000815250611ef98161110e565b15611f395760405162461bcd60e51b815260206004820152601060248201526f14185d5cd8589b194e881c185d5cd95960821b6044820152606401610b26565b6002600b541415611f8c5760405162461bcd60e51b815260206004820152601f60248201527f5265656e7472616e637947756172643a207265656e7472616e742063616c6c006044820152606401610b26565b6002600b55611f9d601460016149c6565b8210611feb5760405162461bcd60e51b815260206004820152601660248201527f616d6f756e742063616e277420657863656564203230000000000000000000006044820152606401610b26565b6000821161203b5760405162461bcd60e51b815260206004820152601160248201527f616d6f756e7420746f6f206c6974746c650000000000000000000000000000006044820152606401610b26565b8160105461204991906149f2565b34146120975760405162461bcd60e51b815260206004820152601160248201527f696e73756666696369656e742066756e640000000000000000000000000000006044820152606401610b26565b600e546120a59060026149c6565b826120af60005490565b6120b991906149c6565b106120fa5760405162461bcd60e51b8152602060048201526011602482015270657863656564206d617820737570706c7960781b6044820152606401610b26565b6121043383613335565b50506001600b55565b611e3a612118612b14565b83836136a7565b6040518060400160405280600d81526020017f47454e455349535f50415553450000000000000000000000000000000000000081525061215e8161110e565b1561219e5760405162461bcd60e51b815260206004820152601060248201526f14185d5cd8589b194e881c185d5cd95960821b6044820152606401610b26565b6002600b5414156121f15760405162461bcd60e51b815260206004820152601f60248201527f5265656e7472616e637947756172643a207265656e7472616e742063616c6c006044820152606401610b26565b6002600b55816122435760405162461bcd60e51b815260206004820152601060248201527f6e6f7468696e6720746f20636c61696d000000000000000000000000000000006044820152606401610b26565b60008267ffffffffffffffff81111561226c57634e487b7160e01b600052604160045260246000fd5b604051908082528060200260200182016040528015612295578160200160208202803683370190505b50905060005b838110156124605760006122d48686848181106122c857634e487b7160e01b600052603260045260246000fd5b90506020020135610e96565b9050806123235760405162461bcd60e51b815260206004820152600d60248201527f696e76616c696420746f6b656e000000000000000000000000000000000000006044820152606401610b26565b60145433906001600160a01b0316636352211e88888681811061235657634e487b7160e01b600052603260045260246000fd5b905060200201356040518263ffffffff1660e01b815260040161237b91815260200190565b60206040518083038186803b15801561239357600080fd5b505afa1580156123a7573d6000803e3d6000fd5b505050506040513d601f19601f820116820180604052508101906123cb919061429f565b6001600160a01b0316146124215760405162461bcd60e51b815260206004820152600e60248201527f6e6f7420617574686f72697a65640000000000000000000000000000000000006044820152606401610b26565b8083838151811061244257634e487b7160e01b600052603260045260246000fd5b6020908102919091010152508061245881614aa6565b91505061229b565b5061246b3382613776565b50506001600b555050565b606060006124838361177c565b905060008167ffffffffffffffff8111156124ae57634e487b7160e01b600052604160045260246000fd5b6040519080825280602002602001820160405280156124d7578160200160208202803683370190505b50905060005b8281101561252c576124ef8582611233565b82828151811061250f57634e487b7160e01b600052603260045260246000fd5b60209081029190910101528061252481614aa6565b9150506124dd565b509392505050565b61254561253f612b14565b83612ca7565b6125b75760405162461bcd60e51b815260206004820152603160248201527f4552433732313a207472616e736665722063616c6c6572206973206e6f74206f60448201527f776e6572206e6f7220617070726f7665640000000000000000000000000000006064820152608401610b26565b6125c384848484613b0c565b50505050565b6125d1612b14565b6001600160a01b03166125ec600a546001600160a01b031690565b6001600160a01b0316146126305760405162461bcd60e51b81526020600482018190526024820152600080516020614b948339815191526044820152606401610b26565b60148054911515600160a01b027fffffffffffffffffffffff00ffffffffffffffffffffffffffffffffffffffff909216919091179055565b612671612b14565b6001600160a01b031661268c600a546001600160a01b031690565b6001600160a01b0316146126d05760405162461bcd60e51b81526020600482018190526024820152600080516020614b948339815191526044820152606401610b26565b601155565b6060600f6126e283613b95565b6040516020016126f392919061479e565b6040516020818303038152906040529050919050565b6060600f80546109ab90614a6b565b612720612b14565b6001600160a01b031661273b600a546001600160a01b031690565b6001600160a01b03161461277f5760405162461bcd60e51b81526020600482018190526024820152600080516020614b948339815191526044820152606401610b26565b80156127c457610c8b83838080601f016020809104026020016040519081016040528093929190818152602001838380828437600092019190915250613ce392505050565b610c8b83838080601f016020809104026020016040519081016040528093929190818152602001838380828437600092019190915250613d6392505050565b61280b612b14565b6001600160a01b0316612826600a546001600160a01b031690565b6001600160a01b03161461286a5760405162461bcd60e51b81526020600482018190526024820152600080516020614b948339815191526044820152606401610b26565b610c8b600f8383614135565b600c546040517fc45527910000000000000000000000000000000000000000000000000000000081526001600160a01b03848116600483015260009281169190841690829063c45527919060240160206040518083038186803b1580156128dc57600080fd5b505afa1580156128f0573d6000803e3d6000fd5b505050506040513d601f19601f82011682018060405250810190612914919061429f565b6001600160a01b0316141561292d576001915050610996565b6001600160a01b0380851660009081526004602090815260408083209387168352929052205460ff16610ab6565b612963612b14565b6001600160a01b031661297e600a546001600160a01b031690565b6001600160a01b0316146129c25760405162461bcd60e51b81526020600482018190526024820152600080516020614b948339815191526044820152606401610b26565b6001600160a01b038116612a3e5760405162461bcd60e51b815260206004820152602660248201527f4f776e61626c653a206e6577206f776e657220697320746865207a65726f206160448201527f64647265737300000000000000000000000000000000000000000000000000006064820152608401610b26565b61162e816132d6565b600033301415612a9e57600080368080601f0160208091040260200160405190810160405280939291908181526020018383808284376000920191909152505050503601516001600160a01b03169150612aa19050565b50335b90565b60006001600160e01b031982167f780e9d63000000000000000000000000000000000000000000000000000000001480610996575061099682613dcb565b6000610458821015612b0c57506000908152600160205260409020546001600160a01b0316151590565b506000541190565b6000612b1e612a47565b905090565b600082815260036020526040808220805473ffffffffffffffffffffffffffffffffffffffff19166001600160a01b0387811691821790925591518593918516917f8c5be1e5ebec7d5bd14f71427d1e84f3dd0314c0f7b2291e5b200ac8c7c3b92591a4505050565b60006001600160a01b038616612c0a5760405162461bcd60e51b815260206004820152602560248201527f4e61746976654d6574615472616e73616374696f6e3a20494e56414c49445f5360448201527f49474e45520000000000000000000000000000000000000000000000000000006064820152608401610b26565b6001612c1d612c1887613e66565b613ee3565b6040805160008152602081018083529290925260ff851690820152606081018690526080810185905260a0016020604051602081039080840390855afa158015612c6b573d6000803e3d6000fd5b505050602060405103516001600160a01b0316866001600160a01b031614905095945050505050565b6000612ca082846149c6565b9392505050565b6000612cb282612ae2565b612d135760405162461bcd60e51b815260206004820152602c60248201527f4552433732313a206f70657261746f7220717565727920666f72206e6f6e657860448201526b34b9ba32b73a103a37b5b2b760a11b6064820152608401610b26565b6000612d1e836116ad565b9050806001600160a01b0316846001600160a01b03161480612d595750836001600160a01b0316612d4e84610abe565b6001600160a01b0316145b80610ab65750610ab68185612876565b6000612d748261310d565b9050600081600001516001600160a01b0316612d8e612b14565b6001600160a01b03161480612dc35750612da6612b14565b6001600160a01b0316612db884610abe565b6001600160a01b0316145b80612dd757508151612dd790610946612b14565b905080612e4c5760405162461bcd60e51b815260206004820152603260248201527f455243373231413a207472616e736665722063616c6c6572206973206e6f742060448201527f6f776e6572206e6f7220617070726f76656400000000000000000000000000006064820152608401610b26565b846001600160a01b031682600001516001600160a01b031614612ed75760405162461bcd60e51b815260206004820152602660248201527f455243373231413a207472616e736665722066726f6d20696e636f727265637460448201527f206f776e657200000000000000000000000000000000000000000000000000006064820152608401610b26565b6001600160a01b038416612f535760405162461bcd60e51b815260206004820152602560248201527f455243373231413a207472616e7366657220746f20746865207a65726f20616460448201527f64726573730000000000000000000000000000000000000000000000000000006064820152608401610b26565b612f5e858585613f2e565b612f6e6000848460000151612b23565b6001600160a01b0385166000908152600260205260408120805460019290612f97908490614a11565b90915550506001600160a01b0384166000908152600260205260408120805460019290612fc59084906149c6565b90915550506040805180820182526001600160a01b03808716825267ffffffffffffffff42811660208085019182526000898152600191829052958620945185549251909316600160a01b026001600160e01b03199092169290931691909117179091556130349085906149c6565b6000818152600160205260409020549091506001600160a01b03166130c45761305c81612ae2565b156130c45760408051808201825284516001600160a01b03908116825260208087015167ffffffffffffffff9081168285019081526000878152600190935294909120925183549451909116600160a01b026001600160e01b03199094169116179190911790555b83856001600160a01b0316876001600160a01b03167fddf252ad1be2c89b69c2b068fc378daa952ba7f163c4a11628f55a4df523b3ef60405160405180910390a4505050505050565b604080518082019091526000808252602082015261312a82612ae2565b61319c5760405162461bcd60e51b815260206004820152602a60248201527f455243373231413a206f776e657220717565727920666f72206e6f6e6578697360448201527f74656e7420746f6b656e000000000000000000000000000000000000000000006064820152608401610b26565b60007f000000000000000000000000000000000000000000000000000000000000000083106131fd576131ef7f000000000000000000000000000000000000000000000000000000000000000084614a11565b6131fa9060016149c6565b90505b825b818110613267576000818152600160209081526040918290208251808401909352546001600160a01b038116808452600160a01b90910467ffffffffffffffff16918301919091521561325457949350505050565b508061325f81614a54565b9150506131ff565b5060405162461bcd60e51b815260206004820152602f60248201527f455243373231413a20756e61626c6520746f2064657465726d696e652074686560448201527f206f776e6572206f6620746f6b656e00000000000000000000000000000000006064820152608401610b26565b600a80546001600160a01b0383811673ffffffffffffffffffffffffffffffffffffffff19831681179093556040519116919082907f8be0079c531659141344cd1fd0a4f28419497f9722a3daafe3b4186f6b6457e090600090a35050565b6000546001600160a01b0383166133b45760405162461bcd60e51b815260206004820152602160248201527f455243373231413a206d696e7420746f20746865207a65726f2061646472657360448201527f73000000000000000000000000000000000000000000000000000000000000006064820152608401610b26565b6133bd81612ae2565b1561340a5760405162461bcd60e51b815260206004820152601d60248201527f455243373231413a20746f6b656e20616c7265616479206d696e7465640000006044820152606401610b26565b7f00000000000000000000000000000000000000000000000000000000000000008211156134a05760405162461bcd60e51b815260206004820152602260248201527f455243373231413a207175616e7469747920746f206d696e7420746f6f20686960448201527f67680000000000000000000000000000000000000000000000000000000000006064820152608401610b26565b6134ac60008483613f2e565b6001600160a01b03831660009081526002602090815260409182902082518084018452815481526001909101549181019190915281518083019092528051909190819061350c906fffffffffffffffffffffffffffffffff8716906149c6565b8152602001846fffffffffffffffffffffffffffffffff16836020015161353391906149c6565b90526001600160a01b03808616600081815260026020908152604080832086518155958201516001968701558051808201825293845267ffffffffffffffff428116858401908152898552969092528220925183549551909116600160a01b026001600160e01b03199095169316929092179290921790915582905b8481101561369d5760405182906001600160a01b038816906000907fddf252ad1be2c89b69c2b068fc378daa952ba7f163c4a11628f55a4df523b3ef908290a461360b6000878460405180602001604052806000815250613fb2565b61367d5760405162461bcd60e51b815260206004820152603360248201527f455243373231413a207472616e7366657220746f206e6f6e204552433732315260448201527f6563656976657220696d706c656d656e746572000000000000000000000000006064820152608401610b26565b8161368781614aa6565b925050808061369590614aa6565b9150506135af565b5060005550505050565b816001600160a01b0316836001600160a01b031614156137095760405162461bcd60e51b815260206004820152601960248201527f4552433732313a20617070726f766520746f2063616c6c6572000000000000006044820152606401610b26565b6001600160a01b03838116600081815260046020908152604080832094871680845294825291829020805460ff191686151590811790915591519182527f17307eab39ab6107e8899845ad3d59bd9653f200f220920489ca2b5937696c31910160405180910390a3505050565b6001600160a01b0382166137cc5760405162461bcd60e51b815260206004820181905260248201527f4552433732313a206d696e7420746f20746865207a65726f20616464726573736044820152606401610b26565b6001600160a01b038216600090815260026020908152604091829020825180840184528154815260019091015491810191909152815180830190925282518151919291829161381a916149c6565b81526020018351836020015161383091906149c6565b90526001600160a01b03841660009081526002602090815260408220835181559201516001909201919091555b82518110156125c35760006001600160a01b03166001600085848151811061389557634e487b7160e01b600052603260045260246000fd5b6020908102919091018101518252810191909152604001600020546001600160a01b0316146139065760405162461bcd60e51b815260206004820152600e60248201527f616c7265616479206d696e7465640000000000000000000000000000000000006044820152606401610b26565b61393960008585848151811061392c57634e487b7160e01b600052603260045260246000fd5b6020026020010151613f2e565b6040518060400160405280856001600160a01b031681526020014267ffffffffffffffff168152506001600085848151811061398557634e487b7160e01b600052603260045260246000fd5b60209081029190910181015182528181019290925260400160002082518154939092015167ffffffffffffffff16600160a01b026001600160e01b03199093166001600160a01b039092169190911791909117905582518390829081106139fc57634e487b7160e01b600052603260045260246000fd5b6020026020010151846001600160a01b031660006001600160a01b03167fddf252ad1be2c89b69c2b068fc378daa952ba7f163c4a11628f55a4df523b3ef60405160405180910390a4613a88600085858481518110613a6b57634e487b7160e01b600052603260045260246000fd5b602002602001015160405180602001604052806000815250613fb2565b613afa5760405162461bcd60e51b815260206004820152603260248201527f4552433732313a207472616e7366657220746f206e6f6e20455243373231526560448201527f63656976657220696d706c656d656e74657200000000000000000000000000006064820152608401610b26565b80613b0481614aa6565b91505061385d565b613b17848484612d69565b613b2384848484613fb2565b6125c35760405162461bcd60e51b815260206004820152603260248201527f4552433732313a207472616e7366657220746f206e6f6e20455243373231526560448201527f63656976657220696d706c656d656e74657200000000000000000000000000006064820152608401610b26565b606081613bd557505060408051808201909152600181527f3000000000000000000000000000000000000000000000000000000000000000602082015290565b8160005b8115613bff5780613be981614aa6565b9150613bf89050600a836149de565b9150613bd9565b60008167ffffffffffffffff811115613c2857634e487b7160e01b600052604160045260246000fd5b6040519080825280601f01601f191660200182016040528015613c52576020820181803683370190505b5090505b8415610ab657613c67600183614a11565b9150613c74600a86614ac1565b613c7f9060306149c6565b60f81b818381518110613ca257634e487b7160e01b600052603260045260246000fd5b60200101907effffffffffffffffffffffffffffffffffffffffffffffffffffffffffffff1916908160001a905350613cdc600a866149de565b9450613c56565b80613ced8161110e565b15613d2d5760405162461bcd60e51b815260206004820152601060248201526f14185d5cd8589b194e881c185d5cd95960821b6044820152606401610b26565b6001600d83604051613d3f919061474b565b908152604051908190036020019020805491151560ff199092169190911790555050565b80613d6d8161110e565b613db95760405162461bcd60e51b815260206004820152601460248201527f5061757361626c653a206e6f74207061757365640000000000000000000000006044820152606401610b26565b6000600d83604051613d3f919061474b565b60006001600160e01b031982167f80ac58cd000000000000000000000000000000000000000000000000000000001480613e2e57506001600160e01b031982167f5b5e139f00000000000000000000000000000000000000000000000000000000145b8061099657507f01ffc9a7000000000000000000000000000000000000000000000000000000006001600160e01b0319831614610996565b6000604051806080016040528060438152602001614b516043913980516020918201208351848301516040808701518051908601209051613ec6950193845260208401929092526001600160a01b03166040830152606082015260800190565b604051602081830303815290604052805190602001209050919050565b6000613eee60085490565b6040517f19010000000000000000000000000000000000000000000000000000000000006020820152602281019190915260428101839052606201613ec6565b6001600160a01b03831615613f6e57613f4683610a2e565b6001600160a01b03841660009081526016602090815260408083209390935560159052204290555b6001600160a01b03821615610c8b57613f8682610a2e565b6001600160a01b0383166000908152601660209081526040808320939093556015905220429055505050565b60006001600160a01b0384163b1561412a57836001600160a01b031663150b7a02613fdb612b14565b8786866040518563ffffffff1660e01b8152600401613ffd94939291906148c8565b602060405180830381600087803b15801561401757600080fd5b505af1925050508015614047575060408051601f3d908101601f19168201909252614044918101906145dc565b60015b6140f7573d808015614075576040519150601f19603f3d011682016040523d82523d6000602084013e61407a565b606091505b5080516140ef5760405162461bcd60e51b815260206004820152603260248201527f4552433732313a207472616e7366657220746f206e6f6e20455243373231526560448201527f63656976657220696d706c656d656e74657200000000000000000000000000006064820152608401610b26565b805181602001fd5b6001600160e01b0319167f150b7a0200000000000000000000000000000000000000000000000000000000149050610ab6565b506001949350505050565b82805461414190614a6b565b90600052602060002090601f01602090048101928261416357600085556141a9565b82601f1061417c5782800160ff198235161785556141a9565b828001600101855582156141a9579182015b828111156141a957823582559160200191906001019061418e565b506116a99291505b808211156116a957600081556001016141b1565b600067ffffffffffffffff8311156141df576141df614b01565b6141f2601f8401601f1916602001614995565b905082815283838301111561420657600080fd5b828260208301376000602084830101529392505050565b600082601f83011261422d578081fd5b612ca0838335602085016141c5565b60008083601f84011261424d578182fd5b50813567ffffffffffffffff811115614264578182fd5b60208301915083602082850101111561427c57600080fd5b9250929050565b600060208284031215614294578081fd5b8135612ca081614b17565b6000602082840312156142b0578081fd5b8151612ca081614b17565b600080604083850312156142cd578081fd5b82356142d881614b17565b915060208301356142e881614b17565b809150509250929050565b600080600060608486031215614307578081fd5b833561431281614b17565b9250602084013561432281614b17565b929592945050506040919091013590565b60008060008060808587031215614348578081fd5b843561435381614b17565b9350602085013561436381614b17565b925060408501359150606085013567ffffffffffffffff811115614385578182fd5b6143918782880161421d565b91505092959194509250565b600080604083850312156143af578182fd5b82356143ba81614b17565b915060208301356142e881614b2c565b600080600080600060a086880312156143e1578283fd5b85356143ec81614b17565b9450602086013567ffffffffffffffff811115614407578384fd5b6144138882890161421d565b9450506040860135925060608601359150608086013560ff81168114614437578182fd5b809150509295509295909350565b60008060408385031215614457578182fd5b823561446281614b17565b946020939093013593505050565b60008060208385031215614482578182fd5b823567ffffffffffffffff80821115614499578384fd5b818501915085601f8301126144ac578384fd5b8135818111156144ba578485fd5b8660208260051b85010111156144ce578485fd5b60209290920196919550909350505050565b600060208083850312156144f2578182fd5b823567ffffffffffffffff80821115614509578384fd5b818501915085601f83011261451c578384fd5b81358181111561452e5761452e614b01565b8060051b915061453f848301614995565b8181528481019084860184860187018a1015614559578788fd5b8795505b8386101561457b57803583526001959095019491860191860161455d565b5098975050505050505050565b600060208284031215614599578081fd5b8135612ca081614b2c565b6000602082840312156145b5578081fd5b8151612ca081614b2c565b6000602082840312156145d1578081fd5b8135612ca081614b3a565b6000602082840312156145ed578081fd5b8151612ca081614b3a565b6000806020838503121561460a578182fd5b823567ffffffffffffffff811115614620578283fd5b61462c8582860161423c565b90969095509350505050565b60008060006040848603121561464c578081fd5b833567ffffffffffffffff811115614662578182fd5b61466e8682870161423c565b909450925050602084013561468281614b2c565b809150509250925092565b60006020828403121561469e578081fd5b813567ffffffffffffffff8111156146b4578182fd5b8201601f810184136146c4578182fd5b610ab6848235602084016141c5565b6000602082840312156146e4578081fd5b5035919050565b6000602082840312156146fc578081fd5b5051919050565b6000815180845261471b816020860160208601614a28565b601f01601f19169290920160200192915050565b60008151614741818560208601614a28565b9290920192915050565b6000825161475d818460208701614a28565b9190910192915050565b60008351614779818460208801614a28565b60609390931b6bffffffffffffffffffffffff19169190920190815260140192915050565b600080845482600182811c9150808316806147ba57607f831692505b60208084108214156147da57634e487b7160e01b87526022600452602487fd5b8180156147ee57600181146147ff5761482b565b60ff1986168952848901965061482b565b60008b815260209020885b868110156148235781548b82015290850190830161480a565b505084890196505b50505050505061489361486a614864837f2f00000000000000000000000000000000000000000000000000000000000000815260010190565b8661472f565b7f2e6a736f6e000000000000000000000000000000000000000000000000000000815260050190565b95945050505050565b60006001600160a01b038086168352808516602084015250606060408301526148936060830184614703565b60006001600160a01b038087168352808616602084015250836040830152608060608301526148fa6080830184614703565b9695505050505050565b6020808252825182820181905260009190848201906040850190845b8181101561493e578351151583529284019291840191600101614920565b50909695505050505050565b6020808252825182820181905260009190848201906040850190845b8181101561493e57835183529284019291840191600101614966565b602081526000612ca06020830184614703565b604051601f8201601f1916810167ffffffffffffffff811182821017156149be576149be614b01565b604052919050565b600082198211156149d9576149d9614ad5565b500190565b6000826149ed576149ed614aeb565b500490565b6000816000190483118215151615614a0c57614a0c614ad5565b500290565b600082821015614a2357614a23614ad5565b500390565b60005b83811015614a43578181015183820152602001614a2b565b838111156125c35750506000910152565b600081614a6357614a63614ad5565b506000190190565b600181811c90821680614a7f57607f821691505b60208210811415614aa057634e487b7160e01b600052602260045260246000fd5b50919050565b6000600019821415614aba57614aba614ad5565b5060010190565b600082614ad057614ad0614aeb565b500690565b634e487b7160e01b600052601160045260246000fd5b634e487b7160e01b600052601260045260246000fd5b634e487b7160e01b600052604160045260246000fd5b6001600160a01b038116811461162e57600080fd5b801515811461162e57600080fd5b6001600160e01b03198116811461162e57600080fdfe4d6574615472616e73616374696f6e2875696e74323536206e6f6e63652c616464726573732066726f6d2c62797465732066756e6374696f6e5369676e6174757265294f776e61626c653a2063616c6c6572206973206e6f7420746865206f776e6572a26469706673582212209c9b86009e369ea0b326f5540d1b4daba2f5df9e072d9a8cb5fb51b8e3e7af3964736f6c63430008040033454950373132446f6d61696e28737472696e67206e616d652c737472696e672076657273696f6e2c6164647265737320766572696679696e67436f6e74726163742c627974657333322073616c7429",
  "linkReferences": {},
  "deployedLinkReferences": {}
}