{
  "_format": "hh-sol-artifact-1",
  "contractName": "ERC1155Test",
  "sourceName": "contracts/ERC1155Test.sol",
  "abi": [
    {
      "inputs": [],
      "stateMutability": "nonpayable",
      "type": "constructor"
    },
    {
      "anonymous": false,
      "inputs": [
        {
          "indexed": true,
          "internalType": "address",
          "name": "account",
          "type": "address"
        },
        {
          "indexed": true,
          "internalType": "address",
          "name": "operator",
          "type": "address"
        },
        {
          "indexed": false,
          "internalType": "bool",
          "name": "approved",
          "type": "bool"
        }
      ],
      "name": "ApprovalForAll",
      "type": "event"
    },
    {
      "anonymous": false,
      "inputs": [
        {
          "indexed": true,
          "internalType": "address",
          "name": "previousOwner",
          "type": "address"
        },
        {
          "indexed": true,
          "internalType": "address",
          "name": "newOwner",
          "type": "address"
        }
      ],
      "name": "OwnershipTransferred",
      "type": "event"
    },
    {
      "anonymous": false,
      "inputs": [
        {
          "indexed": true,
          "internalType": "address",
          "name": "operator",
          "type": "address"
        },
        {
          "indexed": true,
          "internalType": "address",
          "name": "from",
          "type": "address"
        },
        {
          "indexed": true,
          "internalType": "address",
          "name": "to",
          "type": "address"
        },
        {
          "indexed": false,
          "internalType": "uint256[]",
          "name": "ids",
          "type": "uint256[]"
        },
        {
          "indexed": false,
          "internalType": "uint256[]",
          "name": "values",
          "type": "uint256[]"
        }
      ],
      "name": "TransferBatch",
      "type": "event"
    },
    {
      "anonymous": false,
      "inputs": [
        {
          "indexed": true,
          "internalType": "address",
          "name": "operator",
          "type": "address"
        },
        {
          "indexed": true,
          "internalType": "address",
          "name": "from",
          "type": "address"
        },
        {
          "indexed": true,
          "internalType": "address",
          "name": "to",
          "type": "address"
        },
        {
          "indexed": false,
          "internalType": "uint256",
          "name": "id",
          "type": "uint256"
        },
        {
          "indexed": false,
          "internalType": "uint256",
          "name": "value",
          "type": "uint256"
        }
      ],
      "name": "TransferSingle",
      "type": "event"
    },
    {
      "anonymous": false,
      "inputs": [
        {
          "indexed": false,
          "internalType": "string",
          "name": "value",
          "type": "string"
        },
        {
          "indexed": true,
          "internalType": "uint256",
          "name": "id",
          "type": "uint256"
        }
      ],
      "name": "URI",
      "type": "event"
    },
    {
      "inputs": [
        {
          "internalType": "address",
          "name": "account",
          "type": "address"
        },
        {
          "internalType": "uint256",
          "name": "id",
          "type": "uint256"
        }
      ],
      "name": "balanceOf",
      "outputs": [
        {
          "internalType": "uint256",
          "name": "",
          "type": "uint256"
        }
      ],
      "stateMutability": "view",
      "type": "function"
    },
    {
      "inputs": [
        {
          "internalType": "address[]",
          "name": "accounts",
          "type": "address[]"
        },
        {
          "internalType": "uint256[]",
          "name": "ids",
          "type": "uint256[]"
        }
      ],
      "name": "balanceOfBatch",
      "outputs": [
        {
          "internalType": "uint256[]",
          "name": "",
          "type": "uint256[]"
        }
      ],
      "stateMutability": "view",
      "type": "function"
    },
    {
      "inputs": [
        {
          "internalType": "address",
          "name": "account",
          "type": "address"
        },
        {
          "internalType": "address",
          "name": "operator",
          "type": "address"
        }
      ],
      "name": "isApprovedForAll",
      "outputs": [
        {
          "internalType": "bool",
          "name": "",
          "type": "bool"
        }
      ],
      "stateMutability": "view",
      "type": "function"
    },
    {
      "inputs": [
        {
          "internalType": "uint256",
          "name": "_tokenId",
          "type": "uint256"
        }
      ],
      "name": "mint",
      "outputs": [],
      "stateMutability": "nonpayable",
      "type": "function"
    },
    {
      "inputs": [],
      "name": "owner",
      "outputs": [
        {
          "internalType": "address",
          "name": "",
          "type": "address"
        }
      ],
      "stateMutability": "view",
      "type": "function"
    },
    {
      "inputs": [],
      "name": "renounceOwnership",
      "outputs": [],
      "stateMutability": "nonpayable",
      "type": "function"
    },
    {
      "inputs": [
        {
          "internalType": "address",
          "name": "from",
          "type": "address"
        },
        {
          "internalType": "address",
          "name": "to",
          "type": "address"
        },
        {
          "internalType": "uint256[]",
          "name": "ids",
          "type": "uint256[]"
        },
        {
          "internalType": "uint256[]",
          "name": "amounts",
          "type": "uint256[]"
        },
        {
          "internalType": "bytes",
          "name": "data",
          "type": "bytes"
        }
      ],
      "name": "safeBatchTransferFrom",
      "outputs": [],
      "stateMutability": "nonpayable",
      "type": "function"
    },
    {
      "inputs": [
        {
          "internalType": "address",
          "name": "from",
          "type": "address"
        },
        {
          "internalType": "address",
          "name": "to",
          "type": "address"
        },
        {
          "internalType": "uint256",
          "name": "id",
          "type": "uint256"
        },
        {
          "internalType": "uint256",
          "name": "amount",
          "type": "uint256"
        },
        {
          "internalType": "bytes",
          "name": "data",
          "type": "bytes"
        }
      ],
      "name": "safeTransferFrom",
      "outputs": [],
      "stateMutability": "nonpayable",
      "type": "function"
    },
    {
      "inputs": [
        {
          "internalType": "address",
          "name": "operator",
          "type": "address"
        },
        {
          "internalType": "bool",
          "name": "approved",
          "type": "bool"
        }
      ],
      "name": "setApprovalForAll",
      "outputs": [],
      "stateMutability": "nonpayable",
      "type": "function"
    },
    {
      "inputs": [
        {
          "internalType": "bytes4",
          "name": "interfaceId",
          "type": "bytes4"
        }
      ],
      "name": "supportsInterface",
      "outputs": [
        {
          "internalType": "bool",
          "name": "",
          "type": "bool"
        }
      ],
      "stateMutability": "view",
      "type": "function"
    },
    {
      "inputs": [
        {
          "internalType": "uint256",
          "name": "_tokenId",
          "type": "uint256"
        }
      ],
      "name": "tokenURI",
      "outputs": [
        {
          "internalType": "string",
          "name": "",
          "type": "string"
        }
      ],
      "stateMutability": "pure",
      "type": "function"
    },
    {
      "inputs": [
        {
          "internalType": "address",
          "name": "newOwner",
          "type": "address"
        }
      ],
      "name": "transferOwnership",
      "outputs": [],
      "stateMutability": "nonpayable",
      "type": "function"
    },
    {
      "inputs": [
        {
          "internalType": "uint256",
          "name": "",
          "type": "uint256"
        }
      ],
      "name": "uri",
      "outputs": [
        {
          "internalType": "string",
          "name": "",
          "type": "string"
        }
      ],
      "stateMutability": "view",
      "type": "function"
    }
  ],
  "bytecode": "0x60806040523480156200001157600080fd5b506040518060400160405280601281526020017f697066733a2f2f7b706174687d2e6a736f6e000000000000000000000000000081525062000059816200008060201b60201c565b506200007a6200006e6200009c60201b60201c565b620000a460201b60201c565b6200027f565b8060029080519060200190620000989291906200016a565b5050565b600033905090565b6000600360009054906101000a900473ffffffffffffffffffffffffffffffffffffffff16905081600360006101000a81548173ffffffffffffffffffffffffffffffffffffffff021916908373ffffffffffffffffffffffffffffffffffffffff1602179055508173ffffffffffffffffffffffffffffffffffffffff168173ffffffffffffffffffffffffffffffffffffffff167f8be0079c531659141344cd1fd0a4f28419497f9722a3daafe3b4186f6b6457e060405160405180910390a35050565b82805462000178906200021a565b90600052602060002090601f0160209004810192826200019c5760008555620001e8565b82601f10620001b757805160ff1916838001178555620001e8565b82800160010185558215620001e8579182015b82811115620001e7578251825591602001919060010190620001ca565b5b509050620001f79190620001fb565b5090565b5b8082111562000216576000816000905550600101620001fc565b5090565b600060028204905060018216806200023357607f821691505b602082108114156200024a576200024962000250565b5b50919050565b7f4e487b7100000000000000000000000000000000000000000000000000000000600052602260045260246000fd5b6130b4806200028f6000396000f3fe608060405234801561001057600080fd5b50600436106100ce5760003560e01c80638da5cb5b1161008c578063c87b56dd11610066578063c87b56dd1461020f578063e985e9c51461023f578063f242432a1461026f578063f2fde38b1461028b576100ce565b80638da5cb5b146101b9578063a0712d68146101d7578063a22cb465146101f3576100ce565b8062fdd58e146100d357806301ffc9a7146101035780630e89341c146101335780632eb2c2d6146101635780634e1273f41461017f578063715018a6146101af575b600080fd5b6100ed60048036038101906100e89190611ee0565b6102a7565b6040516100fa91906126a5565b60405180910390f35b61011d60048036038101906101189190611f88565b610370565b60405161012a91906124c8565b60405180910390f35b61014d60048036038101906101489190611fda565b610452565b60405161015a91906124e3565b60405180910390f35b61017d60048036038101906101789190611d56565b6104e6565b005b61019960048036038101906101949190611f1c565b610587565b6040516101a6919061246f565b60405180910390f35b6101b7610738565b005b6101c16107c0565b6040516101ce9190612392565b60405180910390f35b6101f160048036038101906101ec9190611fda565b6107ea565b005b61020d60048036038101906102089190611ea4565b610809565b005b61022960048036038101906102249190611fda565b61098a565b60405161023691906124e3565b60405180910390f35b61025960048036038101906102549190611d1a565b6109bb565b60405161026691906124c8565b60405180910390f35b61028960048036038101906102849190611e15565b610a4f565b005b6102a560048036038101906102a09190611cf1565b610af0565b005b60008073ffffffffffffffffffffffffffffffffffffffff168373ffffffffffffffffffffffffffffffffffffffff161415610318576040517f08c379a000000000000000000000000000000000000000000000000000000000815260040161030f90612545565b60405180910390fd5b60008083815260200190815260200160002060008473ffffffffffffffffffffffffffffffffffffffff1673ffffffffffffffffffffffffffffffffffffffff16815260200190815260200160002054905092915050565b60007fd9b67a26000000000000000000000000000000000000000000000000000000007bffffffffffffffffffffffffffffffffffffffffffffffffffffffff1916827bffffffffffffffffffffffffffffffffffffffffffffffffffffffff1916148061043b57507f0e89341c000000000000000000000000000000000000000000000000000000007bffffffffffffffffffffffffffffffffffffffffffffffffffffffff1916827bffffffffffffffffffffffffffffffffffffffffffffffffffffffff1916145b8061044b575061044a82610be8565b5b9050919050565b60606002805461046190612984565b80601f016020809104026020016040519081016040528092919081815260200182805461048d90612984565b80156104da5780601f106104af576101008083540402835291602001916104da565b820191906000526020600020905b8154815290600101906020018083116104bd57829003601f168201915b50505050509050919050565b6104ee610c52565b73ffffffffffffffffffffffffffffffffffffffff168573ffffffffffffffffffffffffffffffffffffffff16148061053457506105338561052e610c52565b6109bb565b5b610573576040517f08c379a000000000000000000000000000000000000000000000000000000000815260040161056a906125c5565b60405180910390fd5b6105808585858585610c5a565b5050505050565b606081518351146105cd576040517f08c379a00000000000000000000000000000000000000000000000000000000081526004016105c490612645565b60405180910390fd5b6000835167ffffffffffffffff811115610610577f4e487b7100000000000000000000000000000000000000000000000000000000600052604160045260246000fd5b60405190808252806020026020018201604052801561063e5781602001602082028036833780820191505090505b50905060005b845181101561072d576106d7858281518110610689577f4e487b7100000000000000000000000000000000000000000000000000000000600052603260045260246000fd5b60200260200101518583815181106106ca577f4e487b7100000000000000000000000000000000000000000000000000000000600052603260045260246000fd5b60200260200101516102a7565b828281518110610710577f4e487b7100000000000000000000000000000000000000000000000000000000600052603260045260246000fd5b60200260200101818152505080610726906129e7565b9050610644565b508091505092915050565b610740610c52565b73ffffffffffffffffffffffffffffffffffffffff1661075e6107c0565b73ffffffffffffffffffffffffffffffffffffffff16146107b4576040517f08c379a00000000000000000000000000000000000000000000000000000000081526004016107ab90612605565b60405180910390fd5b6107be6000610fba565b565b6000600360009054906101000a900473ffffffffffffffffffffffffffffffffffffffff16905090565b6108063382600160405180602001604052806000815250611080565b50565b8173ffffffffffffffffffffffffffffffffffffffff16610828610c52565b73ffffffffffffffffffffffffffffffffffffffff16141561087f576040517f08c379a000000000000000000000000000000000000000000000000000000000815260040161087690612625565b60405180910390fd5b806001600061088c610c52565b73ffffffffffffffffffffffffffffffffffffffff1673ffffffffffffffffffffffffffffffffffffffff16815260200190815260200160002060008473ffffffffffffffffffffffffffffffffffffffff1673ffffffffffffffffffffffffffffffffffffffff16815260200190815260200160002060006101000a81548160ff0219169083151502179055508173ffffffffffffffffffffffffffffffffffffffff16610939610c52565b73ffffffffffffffffffffffffffffffffffffffff167f17307eab39ab6107e8899845ad3d59bd9653f200f220920489ca2b5937696c318360405161097e91906124c8565b60405180910390a35050565b606061099582611216565b6040516020016109a59190612365565b6040516020818303038152906040529050919050565b6000600160008473ffffffffffffffffffffffffffffffffffffffff1673ffffffffffffffffffffffffffffffffffffffff16815260200190815260200160002060008373ffffffffffffffffffffffffffffffffffffffff1673ffffffffffffffffffffffffffffffffffffffff16815260200190815260200160002060009054906101000a900460ff16905092915050565b610a57610c52565b73ffffffffffffffffffffffffffffffffffffffff168573ffffffffffffffffffffffffffffffffffffffff161480610a9d5750610a9c85610a97610c52565b6109bb565b5b610adc576040517f08c379a0000000000000000000000000000000000000000000000000000000008152600401610ad390612585565b60405180910390fd5b610ae985858585856113c3565b5050505050565b610af8610c52565b73ffffffffffffffffffffffffffffffffffffffff16610b166107c0565b73ffffffffffffffffffffffffffffffffffffffff1614610b6c576040517f08c379a0000000000000000000000000000000000000000000000000000000008152600401610b6390612605565b60405180910390fd5b600073ffffffffffffffffffffffffffffffffffffffff168173ffffffffffffffffffffffffffffffffffffffff161415610bdc576040517f08c379a0000000000000000000000000000000000000000000000000000000008152600401610bd390612565565b60405180910390fd5b610be581610fba565b50565b60007f01ffc9a7000000000000000000000000000000000000000000000000000000007bffffffffffffffffffffffffffffffffffffffffffffffffffffffff1916827bffffffffffffffffffffffffffffffffffffffffffffffffffffffff1916149050919050565b600033905090565b8151835114610c9e576040517f08c379a0000000000000000000000000000000000000000000000000000000008152600401610c9590612665565b60405180910390fd5b600073ffffffffffffffffffffffffffffffffffffffff168473ffffffffffffffffffffffffffffffffffffffff161415610d0e576040517f08c379a0000000000000000000000000000000000000000000000000000000008152600401610d05906125a5565b60405180910390fd5b6000610d18610c52565b9050610d28818787878787611645565b60005b8451811015610f25576000858281518110610d6f577f4e487b7100000000000000000000000000000000000000000000000000000000600052603260045260246000fd5b602002602001015190506000858381518110610db4577f4e487b7100000000000000000000000000000000000000000000000000000000600052603260045260246000fd5b60200260200101519050600080600084815260200190815260200160002060008b73ffffffffffffffffffffffffffffffffffffffff1673ffffffffffffffffffffffffffffffffffffffff16815260200190815260200160002054905081811015610e55576040517f08c379a0000000000000000000000000000000000000000000000000000000008152600401610e4c906125e5565b60405180910390fd5b81810360008085815260200190815260200160002060008c73ffffffffffffffffffffffffffffffffffffffff1673ffffffffffffffffffffffffffffffffffffffff168152602001908152602001600020819055508160008085815260200190815260200160002060008b73ffffffffffffffffffffffffffffffffffffffff1673ffffffffffffffffffffffffffffffffffffffff1681526020019081526020016000206000828254610f0a9190612813565b9250508190555050505080610f1e906129e7565b9050610d2b565b508473ffffffffffffffffffffffffffffffffffffffff168673ffffffffffffffffffffffffffffffffffffffff168273ffffffffffffffffffffffffffffffffffffffff167f4a39dc06d4c0dbc64b70af90fd698a233a518aa5d07e595d983b8c0526c8f7fb8787604051610f9c929190612491565b60405180910390a4610fb281878787878761164d565b505050505050565b6000600360009054906101000a900473ffffffffffffffffffffffffffffffffffffffff16905081600360006101000a81548173ffffffffffffffffffffffffffffffffffffffff021916908373ffffffffffffffffffffffffffffffffffffffff1602179055508173ffffffffffffffffffffffffffffffffffffffff168173ffffffffffffffffffffffffffffffffffffffff167f8be0079c531659141344cd1fd0a4f28419497f9722a3daafe3b4186f6b6457e060405160405180910390a35050565b600073ffffffffffffffffffffffffffffffffffffffff168473ffffffffffffffffffffffffffffffffffffffff1614156110f0576040517f08c379a00000000000000000000000000000000000000000000000000000000081526004016110e790612685565b60405180910390fd5b60006110fa610c52565b905061111b8160008761110c88611834565b61111588611834565b87611645565b8260008086815260200190815260200160002060008773ffffffffffffffffffffffffffffffffffffffff1673ffffffffffffffffffffffffffffffffffffffff168152602001908152602001600020600082825461117a9190612813565b925050819055508473ffffffffffffffffffffffffffffffffffffffff16600073ffffffffffffffffffffffffffffffffffffffff168273ffffffffffffffffffffffffffffffffffffffff167fc3d58168c5ae7397731d063d5bbf3d657854427343f4c083240f7aacaa2d0f6287876040516111f89291906126c0565b60405180910390a461120f816000878787876118fa565b5050505050565b6060600082141561125e576040518060400160405280600181526020017f300000000000000000000000000000000000000000000000000000000000000081525090506113be565b600082905060005b60008214611290578080611279906129e7565b915050600a826112899190612869565b9150611266565b60008167ffffffffffffffff8111156112d2577f4e487b7100000000000000000000000000000000000000000000000000000000600052604160045260246000fd5b6040519080825280601f01601f1916602001820160405280156113045781602001600182028036833780820191505090505b5090505b600085146113b75760018261131d919061289a565b9150600a8561132c9190612a30565b60306113389190612813565b60f81b818381518110611374577f4e487b7100000000000000000000000000000000000000000000000000000000600052603260045260246000fd5b60200101907effffffffffffffffffffffffffffffffffffffffffffffffffffffffffffff1916908160001a905350600a856113b09190612869565b9450611308565b8093505050505b919050565b600073ffffffffffffffffffffffffffffffffffffffff168473ffffffffffffffffffffffffffffffffffffffff161415611433576040517f08c379a000000000000000000000000000000000000000000000000000000000815260040161142a906125a5565b60405180910390fd5b600061143d610c52565b905061145d81878761144e88611834565b61145788611834565b87611645565b600080600086815260200190815260200160002060008873ffffffffffffffffffffffffffffffffffffffff1673ffffffffffffffffffffffffffffffffffffffff168152602001908152602001600020549050838110156114f4576040517f08c379a00000000000000000000000000000000000000000000000000000000081526004016114eb906125e5565b60405180910390fd5b83810360008087815260200190815260200160002060008973ffffffffffffffffffffffffffffffffffffffff1673ffffffffffffffffffffffffffffffffffffffff168152602001908152602001600020819055508360008087815260200190815260200160002060008873ffffffffffffffffffffffffffffffffffffffff1673ffffffffffffffffffffffffffffffffffffffff16815260200190815260200160002060008282546115a99190612813565b925050819055508573ffffffffffffffffffffffffffffffffffffffff168773ffffffffffffffffffffffffffffffffffffffff168373ffffffffffffffffffffffffffffffffffffffff167fc3d58168c5ae7397731d063d5bbf3d657854427343f4c083240f7aacaa2d0f6288886040516116269291906126c0565b60405180910390a461163c8288888888886118fa565b50505050505050565b505050505050565b61166c8473ffffffffffffffffffffffffffffffffffffffff16611ae1565b1561182c578373ffffffffffffffffffffffffffffffffffffffff1663bc197c8187878686866040518663ffffffff1660e01b81526004016116b29594939291906123ad565b602060405180830381600087803b1580156116cc57600080fd5b505af19250505080156116fd57506040513d601f19601f820116820180604052508101906116fa9190611fb1565b60015b6117a357611709612b1d565b806308c379a01415611766575061171e612f8c565b806117295750611768565b806040517f08c379a000000000000000000000000000000000000000000000000000000000815260040161175d91906124e3565b60405180910390fd5b505b6040517f08c379a000000000000000000000000000000000000000000000000000000000815260040161179a90612505565b60405180910390fd5b63bc197c8160e01b7bffffffffffffffffffffffffffffffffffffffffffffffffffffffff1916817bffffffffffffffffffffffffffffffffffffffffffffffffffffffff19161461182a576040517f08c379a000000000000000000000000000000000000000000000000000000000815260040161182190612525565b60405180910390fd5b505b505050505050565b60606000600167ffffffffffffffff811115611879577f4e487b7100000000000000000000000000000000000000000000000000000000600052604160045260246000fd5b6040519080825280602002602001820160405280156118a75781602001602082028036833780820191505090505b50905082816000815181106118e5577f4e487b7100000000000000000000000000000000000000000000000000000000600052603260045260246000fd5b60200260200101818152505080915050919050565b6119198473ffffffffffffffffffffffffffffffffffffffff16611ae1565b15611ad9578373ffffffffffffffffffffffffffffffffffffffff1663f23a6e6187878686866040518663ffffffff1660e01b815260040161195f959493929190612415565b602060405180830381600087803b15801561197957600080fd5b505af19250505080156119aa57506040513d601f19601f820116820180604052508101906119a79190611fb1565b60015b611a50576119b6612b1d565b806308c379a01415611a1357506119cb612f8c565b806119d65750611a15565b806040517f08c379a0000000000000000000000000000000000000000000000000000000008152600401611a0a91906124e3565b60405180910390fd5b505b6040517f08c379a0000000000000000000000000000000000000000000000000000000008152600401611a4790612505565b60405180910390fd5b63f23a6e6160e01b7bffffffffffffffffffffffffffffffffffffffffffffffffffffffff1916817bffffffffffffffffffffffffffffffffffffffffffffffffffffffff191614611ad7576040517f08c379a0000000000000000000000000000000000000000000000000000000008152600401611ace90612525565b60405180910390fd5b505b505050505050565b600080823b905060008111915050919050565b6000611b07611b028461270e565b6126e9565b90508083825260208201905082856020860282011115611b2657600080fd5b60005b85811015611b565781611b3c8882611c0a565b845260208401935060208301925050600181019050611b29565b5050509392505050565b6000611b73611b6e8461273a565b6126e9565b90508083825260208201905082856020860282011115611b9257600080fd5b60005b85811015611bc25781611ba88882611cdc565b845260208401935060208301925050600181019050611b95565b5050509392505050565b6000611bdf611bda84612766565b6126e9565b905082815260208101848484011115611bf757600080fd5b611c02848285612942565b509392505050565b600081359050611c1981613022565b92915050565b600082601f830112611c3057600080fd5b8135611c40848260208601611af4565b91505092915050565b600082601f830112611c5a57600080fd5b8135611c6a848260208601611b60565b91505092915050565b600081359050611c8281613039565b92915050565b600081359050611c9781613050565b92915050565b600081519050611cac81613050565b92915050565b600082601f830112611cc357600080fd5b8135611cd3848260208601611bcc565b91505092915050565b600081359050611ceb81613067565b92915050565b600060208284031215611d0357600080fd5b6000611d1184828501611c0a565b91505092915050565b60008060408385031215611d2d57600080fd5b6000611d3b85828601611c0a565b9250506020611d4c85828601611c0a565b9150509250929050565b600080600080600060a08688031215611d6e57600080fd5b6000611d7c88828901611c0a565b9550506020611d8d88828901611c0a565b945050604086013567ffffffffffffffff811115611daa57600080fd5b611db688828901611c49565b935050606086013567ffffffffffffffff811115611dd357600080fd5b611ddf88828901611c49565b925050608086013567ffffffffffffffff811115611dfc57600080fd5b611e0888828901611cb2565b9150509295509295909350565b600080600080600060a08688031215611e2d57600080fd5b6000611e3b88828901611c0a565b9550506020611e4c88828901611c0a565b9450506040611e5d88828901611cdc565b9350506060611e6e88828901611cdc565b925050608086013567ffffffffffffffff811115611e8b57600080fd5b611e9788828901611cb2565b9150509295509295909350565b60008060408385031215611eb757600080fd5b6000611ec585828601611c0a565b9250506020611ed685828601611c73565b9150509250929050565b60008060408385031215611ef357600080fd5b6000611f0185828601611c0a565b9250506020611f1285828601611cdc565b9150509250929050565b60008060408385031215611f2f57600080fd5b600083013567ffffffffffffffff811115611f4957600080fd5b611f5585828601611c1f565b925050602083013567ffffffffffffffff811115611f7257600080fd5b611f7e85828601611c49565b9150509250929050565b600060208284031215611f9a57600080fd5b6000611fa884828501611c88565b91505092915050565b600060208284031215611fc357600080fd5b6000611fd184828501611c9d565b91505092915050565b600060208284031215611fec57600080fd5b6000611ffa84828501611cdc565b91505092915050565b600061200f8383612347565b60208301905092915050565b612024816128ce565b82525050565b6000612035826127a7565b61203f81856127d5565b935061204a83612797565b8060005b8381101561207b5781516120628882612003565b975061206d836127c8565b92505060018101905061204e565b5085935050505092915050565b612091816128e0565b82525050565b60006120a2826127b2565b6120ac81856127e6565b93506120bc818560208601612951565b6120c581612b3f565b840191505092915050565b60006120db826127bd565b6120e581856127f7565b93506120f5818560208601612951565b6120fe81612b3f565b840191505092915050565b6000612114826127bd565b61211e8185612808565b935061212e818560208601612951565b80840191505092915050565b60006121476034836127f7565b915061215282612b5d565b604082019050919050565b600061216a6028836127f7565b915061217582612bac565b604082019050919050565b600061218d602b836127f7565b915061219882612bfb565b604082019050919050565b60006121b06026836127f7565b91506121bb82612c4a565b604082019050919050565b60006121d36029836127f7565b91506121de82612c99565b604082019050919050565b60006121f6600783612808565b915061220182612ce8565b600782019050919050565b60006122196025836127f7565b915061222482612d11565b604082019050919050565b600061223c6032836127f7565b915061224782612d60565b604082019050919050565b600061225f602a836127f7565b915061226a82612daf565b604082019050919050565b6000612282600583612808565b915061228d82612dfe565b600582019050919050565b60006122a56020836127f7565b91506122b082612e27565b602082019050919050565b60006122c86029836127f7565b91506122d382612e50565b604082019050919050565b60006122eb6029836127f7565b91506122f682612e9f565b604082019050919050565b600061230e6028836127f7565b915061231982612eee565b604082019050919050565b60006123316021836127f7565b915061233c82612f3d565b604082019050919050565b61235081612938565b82525050565b61235f81612938565b82525050565b6000612370826121e9565b915061237c8284612109565b915061238782612275565b915081905092915050565b60006020820190506123a7600083018461201b565b92915050565b600060a0820190506123c2600083018861201b565b6123cf602083018761201b565b81810360408301526123e1818661202a565b905081810360608301526123f5818561202a565b905081810360808301526124098184612097565b90509695505050505050565b600060a08201905061242a600083018861201b565b612437602083018761201b565b6124446040830186612356565b6124516060830185612356565b81810360808301526124638184612097565b90509695505050505050565b60006020820190508181036000830152612489818461202a565b905092915050565b600060408201905081810360008301526124ab818561202a565b905081810360208301526124bf818461202a565b90509392505050565b60006020820190506124dd6000830184612088565b92915050565b600060208201905081810360008301526124fd81846120d0565b905092915050565b6000602082019050818103600083015261251e8161213a565b9050919050565b6000602082019050818103600083015261253e8161215d565b9050919050565b6000602082019050818103600083015261255e81612180565b9050919050565b6000602082019050818103600083015261257e816121a3565b9050919050565b6000602082019050818103600083015261259e816121c6565b9050919050565b600060208201905081810360008301526125be8161220c565b9050919050565b600060208201905081810360008301526125de8161222f565b9050919050565b600060208201905081810360008301526125fe81612252565b9050919050565b6000602082019050818103600083015261261e81612298565b9050919050565b6000602082019050818103600083015261263e816122bb565b9050919050565b6000602082019050818103600083015261265e816122de565b9050919050565b6000602082019050818103600083015261267e81612301565b9050919050565b6000602082019050818103600083015261269e81612324565b9050919050565b60006020820190506126ba6000830184612356565b92915050565b60006040820190506126d56000830185612356565b6126e26020830184612356565b9392505050565b60006126f3612704565b90506126ff82826129b6565b919050565b6000604051905090565b600067ffffffffffffffff82111561272957612728612aee565b5b602082029050602081019050919050565b600067ffffffffffffffff82111561275557612754612aee565b5b602082029050602081019050919050565b600067ffffffffffffffff82111561278157612780612aee565b5b61278a82612b3f565b9050602081019050919050565b6000819050602082019050919050565b600081519050919050565b600081519050919050565b600081519050919050565b6000602082019050919050565b600082825260208201905092915050565b600082825260208201905092915050565b600082825260208201905092915050565b600081905092915050565b600061281e82612938565b915061282983612938565b9250827fffffffffffffffffffffffffffffffffffffffffffffffffffffffffffffffff0382111561285e5761285d612a61565b5b828201905092915050565b600061287482612938565b915061287f83612938565b92508261288f5761288e612a90565b5b828204905092915050565b60006128a582612938565b91506128b083612938565b9250828210156128c3576128c2612a61565b5b828203905092915050565b60006128d982612918565b9050919050565b60008115159050919050565b60007fffffffff0000000000000000000000000000000000000000000000000000000082169050919050565b600073ffffffffffffffffffffffffffffffffffffffff82169050919050565b6000819050919050565b82818337600083830152505050565b60005b8381101561296f578082015181840152602081019050612954565b8381111561297e576000848401525b50505050565b6000600282049050600182168061299c57607f821691505b602082108114156129b0576129af612abf565b5b50919050565b6129bf82612b3f565b810181811067ffffffffffffffff821117156129de576129dd612aee565b5b80604052505050565b60006129f282612938565b91507fffffffffffffffffffffffffffffffffffffffffffffffffffffffffffffffff821415612a2557612a24612a61565b5b600182019050919050565b6000612a3b82612938565b9150612a4683612938565b925082612a5657612a55612a90565b5b828206905092915050565b7f4e487b7100000000000000000000000000000000000000000000000000000000600052601160045260246000fd5b7f4e487b7100000000000000000000000000000000000000000000000000000000600052601260045260246000fd5b7f4e487b7100000000000000000000000000000000000000000000000000000000600052602260045260246000fd5b7f4e487b7100000000000000000000000000000000000000000000000000000000600052604160045260246000fd5b600060033d1115612b3c5760046000803e612b39600051612b50565b90505b90565b6000601f19601f8301169050919050565b60008160e01c9050919050565b7f455243313135353a207472616e7366657220746f206e6f6e204552433131353560008201527f526563656976657220696d706c656d656e746572000000000000000000000000602082015250565b7f455243313135353a204552433131353552656365697665722072656a6563746560008201527f6420746f6b656e73000000000000000000000000000000000000000000000000602082015250565b7f455243313135353a2062616c616e636520717565727920666f7220746865207a60008201527f65726f2061646472657373000000000000000000000000000000000000000000602082015250565b7f4f776e61626c653a206e6577206f776e657220697320746865207a65726f206160008201527f6464726573730000000000000000000000000000000000000000000000000000602082015250565b7f455243313135353a2063616c6c6572206973206e6f74206f776e6572206e6f7260008201527f20617070726f7665640000000000000000000000000000000000000000000000602082015250565b7f697066733a2f2f00000000000000000000000000000000000000000000000000600082015250565b7f455243313135353a207472616e7366657220746f20746865207a65726f20616460008201527f6472657373000000000000000000000000000000000000000000000000000000602082015250565b7f455243313135353a207472616e736665722063616c6c6572206973206e6f742060008201527f6f776e6572206e6f7220617070726f7665640000000000000000000000000000602082015250565b7f455243313135353a20696e73756666696369656e742062616c616e636520666f60008201527f72207472616e7366657200000000000000000000000000000000000000000000602082015250565b7f2e6a736f6e000000000000000000000000000000000000000000000000000000600082015250565b7f4f776e61626c653a2063616c6c6572206973206e6f7420746865206f776e6572600082015250565b7f455243313135353a2073657474696e6720617070726f76616c2073746174757360008201527f20666f722073656c660000000000000000000000000000000000000000000000602082015250565b7f455243313135353a206163636f756e747320616e6420696473206c656e67746860008201527f206d69736d617463680000000000000000000000000000000000000000000000602082015250565b7f455243313135353a2069647320616e6420616d6f756e7473206c656e6774682060008201527f6d69736d61746368000000000000000000000000000000000000000000000000602082015250565b7f455243313135353a206d696e7420746f20746865207a65726f2061646472657360008201527f7300000000000000000000000000000000000000000000000000000000000000602082015250565b600060443d1015612f9c5761301f565b612fa4612704565b60043d036004823e80513d602482011167ffffffffffffffff82111715612fcc57505061301f565b808201805167ffffffffffffffff811115612fea575050505061301f565b80602083010160043d03850181111561300757505050505061301f565b613016826020018501866129b6565b82955050505050505b90565b61302b816128ce565b811461303657600080fd5b50565b613042816128e0565b811461304d57600080fd5b50565b613059816128ec565b811461306457600080fd5b50565b61307081612938565b811461307b57600080fd5b5056fea26469706673582212204d9ec92988723ef1929d07e1ad2167ee361cfae7ca0916bd74319f087692e63964736f6c63430008040033",
  "linkReferences": {},
  "deployedLinkReferences": {}
}