{
  "_format": "hh-sol-artifact-1",
  "contractName": "Fossil",
  "sourceName": "contracts/Fossil.sol",
  "abi": [
    {
      "anonymous": false,
      "inputs": [
        {
          "indexed": true,
          "internalType": "address",
          "name": "owner",
          "type": "address"
        },
        {
          "indexed": true,
          "internalType": "address",
          "name": "spender",
          "type": "address"
        },
        {
          "indexed": false,
          "internalType": "uint256",
          "name": "value",
          "type": "uint256"
        }
      ],
      "name": "Approval",
      "type": "event"
    },
    {
      "anonymous": false,
      "inputs": [
        {
          "indexed": true,
          "internalType": "bytes32",
          "name": "role",
          "type": "bytes32"
        },
        {
          "indexed": true,
          "internalType": "bytes32",
          "name": "previousAdminRole",
          "type": "bytes32"
        },
        {
          "indexed": true,
          "internalType": "bytes32",
          "name": "newAdminRole",
          "type": "bytes32"
        }
      ],
      "name": "RoleAdminChanged",
      "type": "event"
    },
    {
      "anonymous": false,
      "inputs": [
        {
          "indexed": true,
          "internalType": "bytes32",
          "name": "role",
          "type": "bytes32"
        },
        {
          "indexed": true,
          "internalType": "address",
          "name": "account",
          "type": "address"
        },
        {
          "indexed": true,
          "internalType": "address",
          "name": "sender",
          "type": "address"
        }
      ],
      "name": "RoleGranted",
      "type": "event"
    },
    {
      "anonymous": false,
      "inputs": [
        {
          "indexed": true,
          "internalType": "bytes32",
          "name": "role",
          "type": "bytes32"
        },
        {
          "indexed": true,
          "internalType": "address",
          "name": "account",
          "type": "address"
        },
        {
          "indexed": true,
          "internalType": "address",
          "name": "sender",
          "type": "address"
        }
      ],
      "name": "RoleRevoked",
      "type": "event"
    },
    {
      "anonymous": false,
      "inputs": [
        {
          "indexed": true,
          "internalType": "address",
          "name": "from",
          "type": "address"
        },
        {
          "indexed": true,
          "internalType": "address",
          "name": "to",
          "type": "address"
        },
        {
          "indexed": false,
          "internalType": "uint256",
          "name": "value",
          "type": "uint256"
        }
      ],
      "name": "Transfer",
      "type": "event"
    },
    {
      "inputs": [],
      "name": "DEFAULT_ADMIN_ROLE",
      "outputs": [
        {
          "internalType": "bytes32",
          "name": "",
          "type": "bytes32"
        }
      ],
      "stateMutability": "view",
      "type": "function"
    },
    {
      "inputs": [
        {
          "internalType": "address",
          "name": "owner",
          "type": "address"
        },
        {
          "internalType": "address",
          "name": "spender",
          "type": "address"
        }
      ],
      "name": "allowance",
      "outputs": [
        {
          "internalType": "uint256",
          "name": "",
          "type": "uint256"
        }
      ],
      "stateMutability": "view",
      "type": "function"
    },
    {
      "inputs": [
        {
          "internalType": "address",
          "name": "spender",
          "type": "address"
        },
        {
          "internalType": "uint256",
          "name": "amount",
          "type": "uint256"
        }
      ],
      "name": "approve",
      "outputs": [
        {
          "internalType": "bool",
          "name": "",
          "type": "bool"
        }
      ],
      "stateMutability": "nonpayable",
      "type": "function"
    },
    {
      "inputs": [
        {
          "internalType": "address",
          "name": "account",
          "type": "address"
        }
      ],
      "name": "balanceOf",
      "outputs": [
        {
          "internalType": "uint256",
          "name": "",
          "type": "uint256"
        }
      ],
      "stateMutability": "view",
      "type": "function"
    },
    {
      "inputs": [],
      "name": "decimals",
      "outputs": [
        {
          "internalType": "uint8",
          "name": "",
          "type": "uint8"
        }
      ],
      "stateMutability": "view",
      "type": "function"
    },
    {
      "inputs": [
        {
          "internalType": "address",
          "name": "spender",
          "type": "address"
        },
        {
          "internalType": "uint256",
          "name": "subtractedValue",
          "type": "uint256"
        }
      ],
      "name": "decreaseAllowance",
      "outputs": [
        {
          "internalType": "bool",
          "name": "",
          "type": "bool"
        }
      ],
      "stateMutability": "nonpayable",
      "type": "function"
    },
    {
      "inputs": [
        {
          "internalType": "bytes32",
          "name": "role",
          "type": "bytes32"
        }
      ],
      "name": "getRoleAdmin",
      "outputs": [
        {
          "internalType": "bytes32",
          "name": "",
          "type": "bytes32"
        }
      ],
      "stateMutability": "view",
      "type": "function"
    },
    {
      "inputs": [
        {
          "internalType": "bytes32",
          "name": "role",
          "type": "bytes32"
        },
        {
          "internalType": "address",
          "name": "account",
          "type": "address"
        }
      ],
      "name": "grantRole",
      "outputs": [],
      "stateMutability": "nonpayable",
      "type": "function"
    },
    {
      "inputs": [
        {
          "internalType": "bytes32",
          "name": "role",
          "type": "bytes32"
        },
        {
          "internalType": "address",
          "name": "account",
          "type": "address"
        }
      ],
      "name": "hasRole",
      "outputs": [
        {
          "internalType": "bool",
          "name": "",
          "type": "bool"
        }
      ],
      "stateMutability": "view",
      "type": "function"
    },
    {
      "inputs": [
        {
          "internalType": "address",
          "name": "spender",
          "type": "address"
        },
        {
          "internalType": "uint256",
          "name": "addedValue",
          "type": "uint256"
        }
      ],
      "name": "increaseAllowance",
      "outputs": [
        {
          "internalType": "bool",
          "name": "",
          "type": "bool"
        }
      ],
      "stateMutability": "nonpayable",
      "type": "function"
    },
    {
      "inputs": [],
      "name": "initialize",
      "outputs": [],
      "stateMutability": "nonpayable",
      "type": "function"
    },
    {
      "inputs": [
        {
          "internalType": "address",
          "name": "_user",
          "type": "address"
        },
        {
          "internalType": "uint256",
          "name": "_amount",
          "type": "uint256"
        }
      ],
      "name": "mint",
      "outputs": [],
      "stateMutability": "nonpayable",
      "type": "function"
    },
    {
      "inputs": [
        {
          "internalType": "address[]",
          "name": "addresses",
          "type": "address[]"
        },
        {
          "internalType": "uint256",
          "name": "_amount",
          "type": "uint256"
        }
      ],
      "name": "mintBatch",
      "outputs": [],
      "stateMutability": "nonpayable",
      "type": "function"
    },
    {
      "inputs": [],
      "name": "name",
      "outputs": [
        {
          "internalType": "string",
          "name": "",
          "type": "string"
        }
      ],
      "stateMutability": "view",
      "type": "function"
    },
    {
      "inputs": [
        {
          "internalType": "bytes32",
          "name": "role",
          "type": "bytes32"
        },
        {
          "internalType": "address",
          "name": "account",
          "type": "address"
        }
      ],
      "name": "renounceRole",
      "outputs": [],
      "stateMutability": "nonpayable",
      "type": "function"
    },
    {
      "inputs": [
        {
          "internalType": "bytes32",
          "name": "role",
          "type": "bytes32"
        },
        {
          "internalType": "address",
          "name": "account",
          "type": "address"
        }
      ],
      "name": "revokeRole",
      "outputs": [],
      "stateMutability": "nonpayable",
      "type": "function"
    },
    {
      "inputs": [
        {
          "internalType": "address",
          "name": "minter",
          "type": "address"
        },
        {
          "internalType": "bool",
          "name": "status",
          "type": "bool"
        }
      ],
      "name": "setMinterRole",
      "outputs": [],
      "stateMutability": "nonpayable",
      "type": "function"
    },
    {
      "inputs": [
        {
          "internalType": "bytes4",
          "name": "interfaceId",
          "type": "bytes4"
        }
      ],
      "name": "supportsInterface",
      "outputs": [
        {
          "internalType": "bool",
          "name": "",
          "type": "bool"
        }
      ],
      "stateMutability": "view",
      "type": "function"
    },
    {
      "inputs": [],
      "name": "symbol",
      "outputs": [
        {
          "internalType": "string",
          "name": "",
          "type": "string"
        }
      ],
      "stateMutability": "view",
      "type": "function"
    },
    {
      "inputs": [],
      "name": "totalSupply",
      "outputs": [
        {
          "internalType": "uint256",
          "name": "",
          "type": "uint256"
        }
      ],
      "stateMutability": "view",
      "type": "function"
    },
    {
      "inputs": [
        {
          "internalType": "address",
          "name": "recipient",
          "type": "address"
        },
        {
          "internalType": "uint256",
          "name": "amount",
          "type": "uint256"
        }
      ],
      "name": "transfer",
      "outputs": [
        {
          "internalType": "bool",
          "name": "",
          "type": "bool"
        }
      ],
      "stateMutability": "nonpayable",
      "type": "function"
    },
    {
      "inputs": [
        {
          "internalType": "address",
          "name": "sender",
          "type": "address"
        },
        {
          "internalType": "address",
          "name": "recipient",
          "type": "address"
        },
        {
          "internalType": "uint256",
          "name": "amount",
          "type": "uint256"
        }
      ],
      "name": "transferFrom",
      "outputs": [
        {
          "internalType": "bool",
          "name": "",
          "type": "bool"
        }
      ],
      "stateMutability": "nonpayable",
      "type": "function"
    }
  ],
  "bytecode": "0x608060405234801561001057600080fd5b50611b9e806100206000396000f3fe608060405234801561001057600080fd5b50600436106101825760003560e01c806370a08231116100d8578063a457c2d71161008c578063cb177b1e11610066578063cb177b1e1461032f578063d547741f14610342578063dd62ed3e1461035557600080fd5b8063a457c2d7146102f6578063a9059cbb14610309578063b6afc4dc1461031c57600080fd5b806391d14854116100bd57806391d14854146102ad57806395d89b41146102e6578063a217fddf146102ee57600080fd5b806370a082311461027c5780638129fc1c146102a557600080fd5b8063248a9ca31161013a57806336568abe1161011457806336568abe14610243578063395093511461025657806340c10f191461026957600080fd5b8063248a9ca3146101fc5780632f2ff15d1461021f578063313ce5671461023457600080fd5b8063095ea7b31161016b578063095ea7b3146101c457806318160ddd146101d757806323b872dd146101e957600080fd5b806301ffc9a71461018757806306fdde03146101af575b600080fd5b61019a610195366004611977565b61038e565b60405190151581526020015b60405180910390f35b6101b7610427565b6040516101a69190611a38565b61019a6101d236600461189e565b6104b9565b6035545b6040519081526020016101a6565b61019a6101f7366004611829565b6104cf565b6101db61020a36600461193d565b60009081526097602052604090206001015490565b61023261022d366004611955565b610593565b005b604051601281526020016101a6565b610232610251366004611955565b6105be565b61019a61026436600461189e565b61064a565b61023261027736600461189e565b610686565b6101db61028a3660046117dd565b6001600160a01b031660009081526033602052604090205490565b610232610772565b61019a6102bb366004611955565b60009182526097602090815260408084206001600160a01b0393909316845291905290205460ff1690565b6101b7610937565b6101db600081565b61019a61030436600461189e565b610946565b61019a61031736600461189e565b6109f7565b61023261032a3660046118c7565b610a04565b61023261033d366004611864565b610b65565b610232610350366004611955565b610c39565b6101db6103633660046117f7565b6001600160a01b03918216600090815260346020908152604080832093909416825291909152205490565b60007fffffffff0000000000000000000000000000000000000000000000000000000082167f7965db0b00000000000000000000000000000000000000000000000000000000148061042157507f01ffc9a7000000000000000000000000000000000000000000000000000000007fffffffff000000000000000000000000000000000000000000000000000000008316145b92915050565b60606036805461043690611afc565b80601f016020809104026020016040519081016040528092919081815260200182805461046290611afc565b80156104af5780601f10610484576101008083540402835291602001916104af565b820191906000526020600020905b81548152906001019060200180831161049257829003601f168201915b5050505050905090565b60006104c6338484610c5f565b50600192915050565b60006104dc848484610db7565b6001600160a01b03841660009081526034602090815260408083203384529091529020548281101561057b5760405162461bcd60e51b815260206004820152602860248201527f45524332303a207472616e7366657220616d6f756e742065786365656473206160448201527f6c6c6f77616e636500000000000000000000000000000000000000000000000060648201526084015b60405180910390fd5b6105888533858403610c5f565b506001949350505050565b6000828152609760205260409020600101546105af8133610fce565b6105b9838361104e565b505050565b6001600160a01b038116331461063c5760405162461bcd60e51b815260206004820152602f60248201527f416363657373436f6e74726f6c3a2063616e206f6e6c792072656e6f756e636560448201527f20726f6c657320666f722073656c6600000000000000000000000000000000006064820152608401610572565b61064682826110f0565b5050565b3360008181526034602090815260408083206001600160a01b038716845290915281205490916104c6918590610681908690611a6b565b610c5f565b6b019d971e4fe8401e7400000061069c60355490565b11156106ea5760405162461bcd60e51b815260206004820152601a60248201527f466f7373696c3a206d617820737570706c7920726561636865640000000000006044820152606401610572565b3360009081527f81bcdf06b56c0ed62a68a6ae231e66722c27e6665c84ec0015693a6d86f2bb93602052604090205460ff166107685760405162461bcd60e51b815260206004820152601e60248201527f466f7373696c3a2063616c6c6572206973206e6f742061206d696e74657200006044820152606401610572565b6106468282611173565b600054610100900460ff168061078b575060005460ff16155b6107ee5760405162461bcd60e51b815260206004820152602e60248201527f496e697469616c697a61626c653a20636f6e747261637420697320616c72656160448201526d191e481a5b9a5d1a585b1a5e995960921b6064820152608401610572565b600054610100900460ff16158015610810576000805461ffff19166101011790555b6108846040518060400160405280600681526020017f466f7373696c00000000000000000000000000000000000000000000000000008152506040518060400160405280600681526020017f464f5353494c0000000000000000000000000000000000000000000000000000815250611252565b6108ae7f9f2df0fed2c77648de5860a4cc508cd0818c85b8b8a1ab4ceeef8d981c8956a633611318565b6108d87fa49807205ce4d355092ef5a8a18f56e8913cf4a201fbe287825b095693c2177533611318565b6109227f9f2df0fed2c77648de5860a4cc508cd0818c85b8b8a1ab4ceeef8d981c8956a67fa49807205ce4d355092ef5a8a18f56e8913cf4a201fbe287825b095693c21775611322565b8015610934576000805461ff00191690555b50565b60606037805461043690611afc565b3360009081526034602090815260408083206001600160a01b0386168452909152812054828110156109e05760405162461bcd60e51b815260206004820152602560248201527f45524332303a2064656372656173656420616c6c6f77616e63652062656c6f7760448201527f207a65726f0000000000000000000000000000000000000000000000000000006064820152608401610572565b6109ed3385858403610c5f565b5060019392505050565b60006104c6338484610db7565b610a0e8282611a83565b610a24906b019d971e4fe8401e74000000611aa2565b6035541115610a755760405162461bcd60e51b815260206004820152601a60248201527f466f7373696c3a206d617820737570706c7920726561636865640000000000006044820152606401610572565b3360009081527f81bcdf06b56c0ed62a68a6ae231e66722c27e6665c84ec0015693a6d86f2bb93602052604090205460ff16610af35760405162461bcd60e51b815260206004820152601e60248201527f466f7373696c3a2063616c6c6572206973206e6f742061206d696e74657200006044820152606401610572565b60005b82811015610b5f57610b4d848483818110610b2157634e487b7160e01b600052603260045260246000fd5b9050602002016020810190610b3691906117dd565b610b4884670de0b6b3a7640000611a83565b611173565b80610b5781611b37565b915050610af6565b50505050565b3360009081527f9805bb80c0cb3b8457cbce774d5adda6e717284b7d1e937eb2fdc8bbff924719602052604090205460ff16610be35760405162461bcd60e51b815260206004820152601e60248201527f466f7373696c3a2063616c6c6572206973206e6f7420616e2061646d696e00006044820152606401610572565b8015610c13576106467f9f2df0fed2c77648de5860a4cc508cd0818c85b8b8a1ab4ceeef8d981c8956a683611318565b6106467f9f2df0fed2c77648de5860a4cc508cd0818c85b8b8a1ab4ceeef8d981c8956a6835b600082815260976020526040902060010154610c558133610fce565b6105b983836110f0565b6001600160a01b038316610cda5760405162461bcd60e51b8152602060048201526024808201527f45524332303a20617070726f76652066726f6d20746865207a65726f2061646460448201527f72657373000000000000000000000000000000000000000000000000000000006064820152608401610572565b6001600160a01b038216610d565760405162461bcd60e51b815260206004820152602260248201527f45524332303a20617070726f766520746f20746865207a65726f20616464726560448201527f73730000000000000000000000000000000000000000000000000000000000006064820152608401610572565b6001600160a01b0383811660008181526034602090815260408083209487168084529482529182902085905590518481527f8c5be1e5ebec7d5bd14f71427d1e84f3dd0314c0f7b2291e5b200ac8c7c3b925910160405180910390a3505050565b6001600160a01b038316610e335760405162461bcd60e51b815260206004820152602560248201527f45524332303a207472616e736665722066726f6d20746865207a65726f20616460448201527f64726573730000000000000000000000000000000000000000000000000000006064820152608401610572565b6001600160a01b038216610eaf5760405162461bcd60e51b815260206004820152602360248201527f45524332303a207472616e7366657220746f20746865207a65726f206164647260448201527f65737300000000000000000000000000000000000000000000000000000000006064820152608401610572565b6001600160a01b03831660009081526033602052604090205481811015610f3e5760405162461bcd60e51b815260206004820152602660248201527f45524332303a207472616e7366657220616d6f756e742065786365656473206260448201527f616c616e636500000000000000000000000000000000000000000000000000006064820152608401610572565b6001600160a01b03808516600090815260336020526040808220858503905591851681529081208054849290610f75908490611a6b565b92505081905550826001600160a01b0316846001600160a01b03167fddf252ad1be2c89b69c2b068fc378daa952ba7f163c4a11628f55a4df523b3ef84604051610fc191815260200190565b60405180910390a3610b5f565b60008281526097602090815260408083206001600160a01b038516845290915290205460ff166106465761100c816001600160a01b0316601461136d565b61101783602061136d565b6040516020016110289291906119b7565b60408051601f198184030181529082905262461bcd60e51b825261057291600401611a38565b60008281526097602090815260408083206001600160a01b038516845290915290205460ff166106465760008281526097602090815260408083206001600160a01b03851684529091529020805460ff191660011790556110ac3390565b6001600160a01b0316816001600160a01b0316837f2f8788117e7eff1d82e926ec794901d17c78024a50270940304540a733656f0d60405160405180910390a45050565b60008281526097602090815260408083206001600160a01b038516845290915290205460ff16156106465760008281526097602090815260408083206001600160a01b0385168085529252808320805460ff1916905551339285917ff6391f5c32d9c69d2a47ea670b442974b53935d1edc7fd64eb21e047a839171b9190a45050565b6001600160a01b0382166111c95760405162461bcd60e51b815260206004820152601f60248201527f45524332303a206d696e7420746f20746865207a65726f2061646472657373006044820152606401610572565b80603560008282546111db9190611a6b565b90915550506001600160a01b03821660009081526033602052604081208054839290611208908490611a6b565b90915550506040518181526001600160a01b038316906000907fddf252ad1be2c89b69c2b068fc378daa952ba7f163c4a11628f55a4df523b3ef9060200160405180910390a35050565b600054610100900460ff168061126b575060005460ff16155b6112ce5760405162461bcd60e51b815260206004820152602e60248201527f496e697469616c697a61626c653a20636f6e747261637420697320616c72656160448201526d191e481a5b9a5d1a585b1a5e995960921b6064820152608401610572565b600054610100900460ff161580156112f0576000805461ffff19166101011790555b6112f861159b565b611302838361164c565b80156105b9576000805461ff0019169055505050565b610646828261104e565b600082815260976020526040808220600101805490849055905190918391839186917fbd79b86ffe0ab8e8776151514217cd7cacd52c909f66475c3af44e129f0b00ff9190a4505050565b6060600061137c836002611a83565b611387906002611a6b565b67ffffffffffffffff8111156113ad57634e487b7160e01b600052604160045260246000fd5b6040519080825280601f01601f1916602001820160405280156113d7576020820181803683370190505b5090507f30000000000000000000000000000000000000000000000000000000000000008160008151811061141c57634e487b7160e01b600052603260045260246000fd5b60200101906001600160f81b031916908160001a9053507f78000000000000000000000000000000000000000000000000000000000000008160018151811061147557634e487b7160e01b600052603260045260246000fd5b60200101906001600160f81b031916908160001a9053506000611499846002611a83565b6114a4906001611a6b565b90505b6001811115611545577f303132333435363738396162636465660000000000000000000000000000000085600f16601081106114f357634e487b7160e01b600052603260045260246000fd5b1a60f81b82828151811061151757634e487b7160e01b600052603260045260246000fd5b60200101906001600160f81b031916908160001a90535060049490941c9361153e81611ae5565b90506114a7565b5083156115945760405162461bcd60e51b815260206004820181905260248201527f537472696e67733a20686578206c656e67746820696e73756666696369656e746044820152606401610572565b9392505050565b600054610100900460ff16806115b4575060005460ff16155b6116175760405162461bcd60e51b815260206004820152602e60248201527f496e697469616c697a61626c653a20636f6e747261637420697320616c72656160448201526d191e481a5b9a5d1a585b1a5e995960921b6064820152608401610572565b600054610100900460ff16158015610922576000805461ffff19166101011790558015610934576000805461ff001916905550565b600054610100900460ff1680611665575060005460ff16155b6116c85760405162461bcd60e51b815260206004820152602e60248201527f496e697469616c697a61626c653a20636f6e747261637420697320616c72656160448201526d191e481a5b9a5d1a585b1a5e995960921b6064820152608401610572565b600054610100900460ff161580156116ea576000805461ffff19166101011790555b82516116fd906036906020860190611728565b508151611711906037906020850190611728565b5080156105b9576000805461ff0019169055505050565b82805461173490611afc565b90600052602060002090601f016020900481019282611756576000855561179c565b82601f1061176f57805160ff191683800117855561179c565b8280016001018555821561179c579182015b8281111561179c578251825591602001919060010190611781565b506117a89291506117ac565b5090565b5b808211156117a857600081556001016117ad565b80356001600160a01b03811681146117d857600080fd5b919050565b6000602082840312156117ee578081fd5b611594826117c1565b60008060408385031215611809578081fd5b611812836117c1565b9150611820602084016117c1565b90509250929050565b60008060006060848603121561183d578081fd5b611846846117c1565b9250611854602085016117c1565b9150604084013590509250925092565b60008060408385031215611876578182fd5b61187f836117c1565b915060208301358015158114611893578182fd5b809150509250929050565b600080604083850312156118b0578182fd5b6118b9836117c1565b946020939093013593505050565b6000806000604084860312156118db578283fd5b833567ffffffffffffffff808211156118f2578485fd5b818601915086601f830112611905578485fd5b813581811115611913578586fd5b8760208260051b8501011115611927578586fd5b6020928301989097509590910135949350505050565b60006020828403121561194e578081fd5b5035919050565b60008060408385031215611967578182fd5b82359150611820602084016117c1565b600060208284031215611988578081fd5b81357fffffffff0000000000000000000000000000000000000000000000000000000081168114611594578182fd5b7f416363657373436f6e74726f6c3a206163636f756e74200000000000000000008152600083516119ef816017850160208801611ab9565b7f206973206d697373696e6720726f6c65200000000000000000000000000000006017918401918201528351611a2c816028840160208801611ab9565b01602801949350505050565b6020815260008251806020840152611a57816040850160208701611ab9565b601f01601f19169190910160400192915050565b60008219821115611a7e57611a7e611b52565b500190565b6000816000190483118215151615611a9d57611a9d611b52565b500290565b600082821015611ab457611ab4611b52565b500390565b60005b83811015611ad4578181015183820152602001611abc565b83811115610b5f5750506000910152565b600081611af457611af4611b52565b506000190190565b600181811c90821680611b1057607f821691505b60208210811415611b3157634e487b7160e01b600052602260045260246000fd5b50919050565b6000600019821415611b4b57611b4b611b52565b5060010190565b634e487b7160e01b600052601160045260246000fdfea2646970667358221220f3dea69d981940e503506fe063091b244aa8437540f20d5acab647eacc55717164736f6c63430008040033",
  "linkReferences": {},
  "deployedLinkReferences": {}
}