{
  "_format": "hh-sol-artifact-1",
  "contractName": "Staking",
  "sourceName": "contracts/Staking.sol",
  "abi": [
    {
      "anonymous": false,
      "inputs": [
        {
          "indexed": true,
          "internalType": "address",
          "name": "previousOwner",
          "type": "address"
        },
        {
          "indexed": true,
          "internalType": "address",
          "name": "newOwner",
          "type": "address"
        }
      ],
      "name": "OwnershipTransferred",
      "type": "event"
    },
    {
      "anonymous": false,
      "inputs": [
        {
          "indexed": false,
          "internalType": "address",
          "name": "account",
          "type": "address"
        }
      ],
      "name": "Paused",
      "type": "event"
    },
    {
      "anonymous": false,
      "inputs": [
        {
          "indexed": false,
          "internalType": "address",
          "name": "account",
          "type": "address"
        }
      ],
      "name": "Unpaused",
      "type": "event"
    },
    {
      "inputs": [
        {
          "internalType": "uint256[]",
          "name": "_tokenIds",
          "type": "uint256[]"
        }
      ],
      "name": "claim",
      "outputs": [],
      "stateMutability": "nonpayable",
      "type": "function"
    },
    {
      "inputs": [
        {
          "internalType": "address",
          "name": "_nftAddress",
          "type": "address"
        },
        {
          "internalType": "address",
          "name": "_tokenAddress",
          "type": "address"
        }
      ],
      "name": "initialize",
      "outputs": [],
      "stateMutability": "nonpayable",
      "type": "function"
    },
    {
      "inputs": [
        {
          "internalType": "uint256",
          "name": "tokenId",
          "type": "uint256"
        }
      ],
      "name": "isStaked",
      "outputs": [
        {
          "internalType": "bool",
          "name": "",
          "type": "bool"
        }
      ],
      "stateMutability": "view",
      "type": "function"
    },
    {
      "inputs": [
        {
          "internalType": "address",
          "name": "",
          "type": "address"
        },
        {
          "internalType": "address",
          "name": "",
          "type": "address"
        },
        {
          "internalType": "uint256",
          "name": "",
          "type": "uint256"
        },
        {
          "internalType": "bytes",
          "name": "",
          "type": "bytes"
        }
      ],
      "name": "onERC721Received",
      "outputs": [
        {
          "internalType": "bytes4",
          "name": "",
          "type": "bytes4"
        }
      ],
      "stateMutability": "nonpayable",
      "type": "function"
    },
    {
      "inputs": [],
      "name": "owner",
      "outputs": [
        {
          "internalType": "address",
          "name": "",
          "type": "address"
        }
      ],
      "stateMutability": "view",
      "type": "function"
    },
    {
      "inputs": [
        {
          "internalType": "bool",
          "name": "value",
          "type": "bool"
        }
      ],
      "name": "pause",
      "outputs": [],
      "stateMutability": "nonpayable",
      "type": "function"
    },
    {
      "inputs": [],
      "name": "paused",
      "outputs": [
        {
          "internalType": "bool",
          "name": "",
          "type": "bool"
        }
      ],
      "stateMutability": "view",
      "type": "function"
    },
    {
      "inputs": [],
      "name": "renounceOwnership",
      "outputs": [],
      "stateMutability": "nonpayable",
      "type": "function"
    },
    {
      "inputs": [
        {
          "internalType": "uint256[]",
          "name": "_tokenIds",
          "type": "uint256[]"
        }
      ],
      "name": "rewards",
      "outputs": [
        {
          "internalType": "uint256",
          "name": "",
          "type": "uint256"
        }
      ],
      "stateMutability": "view",
      "type": "function"
    },
    {
      "inputs": [
        {
          "internalType": "uint256",
          "name": "tokenId",
          "type": "uint256"
        }
      ],
      "name": "stake",
      "outputs": [],
      "stateMutability": "nonpayable",
      "type": "function"
    },
    {
      "inputs": [],
      "name": "staked",
      "outputs": [
        {
          "internalType": "uint256[]",
          "name": "",
          "type": "uint256[]"
        }
      ],
      "stateMutability": "view",
      "type": "function"
    },
    {
      "inputs": [
        {
          "internalType": "address",
          "name": "newOwner",
          "type": "address"
        }
      ],
      "name": "transferOwnership",
      "outputs": [],
      "stateMutability": "nonpayable",
      "type": "function"
    },
    {
      "inputs": [
        {
          "internalType": "uint256",
          "name": "tokenId",
          "type": "uint256"
        }
      ],
      "name": "unstake",
      "outputs": [],
      "stateMutability": "nonpayable",
      "type": "function"
    }
  ],
  "bytecode": "0x608060405234801561001057600080fd5b50611455806100206000396000f3fe608060405234801561001057600080fd5b50600436106100df5760003560e01c80635c975abb1161008c5780638da5cb5b116100665780638da5cb5b146101f4578063a694fc3a1461020f578063baa51f8614610222578063f2fde38b1461026c57600080fd5b80635c975abb146101c25780636ba4c138146101d9578063715018a6146101ec57600080fd5b8063150b7a02116100bd578063150b7a02146101345780632e17de781461019c578063485cc955146101af57600080fd5b806302329a29146100e457806302ff1721146100f95780630b76619b1461011f575b600080fd5b6100f76100f23660046112ee565b61027f565b005b61010c61010736600461127e565b6102f7565b6040519081526020015b60405180910390f35b6101276103f6565b6040516101169190611326565b61016b6101423660046111a9565b7f150b7a0200000000000000000000000000000000000000000000000000000000949350505050565b6040517fffffffff000000000000000000000000000000000000000000000000000000009091168152602001610116565b6100f76101aa36600461130e565b610457565b6100f76101bd366004611177565b61050e565b60975460ff165b6040519015158152602001610116565b6100f76101e736600461127e565b610610565b6100f76107ec565b6033546040516001600160a01b039091168152602001610116565b6100f761021d36600461130e565b610852565b6101c961023036600461130e565b33600090815260cb6020908152604080832093835292815290829020825180840190935280548084526001909101549290910191909152151590565b6100f761027a366004611156565b610966565b6033546001600160a01b031633146102de5760405162461bcd60e51b815260206004820181905260248201527f4f776e61626c653a2063616c6c6572206973206e6f7420746865206f776e657260448201526064015b60405180910390fd5b80156102ef576102ec610a45565b50565b6102ec610add565b600061030560975460ff1690565b156103455760405162461bcd60e51b815260206004820152601060248201526f14185d5cd8589b194e881c185d5cd95960821b60448201526064016102d5565b6000805b838110156103ee5733600090815260cb602052604081208187878581811061038157634e487b7160e01b600052603260045260246000fd5b602090810292909201358352508181019290925260409081016000208151808301909252805482526001015491810182905291506103bf908461136a565b92506103ce8160000151610b60565b6103d8908461136a565b92505080806103e6906113d8565b915050610349565b509392505050565b33600090815260cc602090815260409182902080548351818402810184019094528084526060939283018282801561044d57602002820191906000526020600020905b815481526020019060010190808311610439575b5050505050905090565b33600090815260cb60209081526040808320848452825291829020825180840190935280548084526001909101549183019190915261049590610b60565b816020018181516104a6919061136a565b905250600080825233815260cb60209081526040808320858452825290912082518155908201516001909101556104dc82610b9e565b33600090815260cc60209081526040909120825161050093919291909101906110da565b5061050a82610cfb565b5050565b600054610100900460ff1680610527575060005460ff16155b61058a5760405162461bcd60e51b815260206004820152602e60248201527f496e697469616c697a61626c653a20636f6e747261637420697320616c72656160448201526d191e481a5b9a5d1a585b1a5e995960921b60648201526084016102d5565b600054610100900460ff161580156105ac576000805461ffff19166101011790555b6105b4610d69565b6105bc610e23565b60c980546001600160a01b0380861673ffffffffffffffffffffffffffffffffffffffff199283161790925560ca805492851692909116919091179055801561060b576000805461ff00191690555b505050565b60975460ff16156106565760405162461bcd60e51b815260206004820152601060248201526f14185d5cd8589b194e881c185d5cd95960821b60448201526064016102d5565b6000805b828110156107695733600090815260cb602052604081208186868581811061069257634e487b7160e01b600052603260045260246000fd5b602090810292909201358352508181019290925260409081016000208151808301909252805482526001015491810182905291506106d0908461136a565b92506106df8160000151610b60565b6106e9908461136a565b600060208301528151909350156106fe574281525b33600090815260cb60205260408120829187878681811061072f57634e487b7160e01b600052603260045260246000fd5b6020908102929092013583525081810192909252604001600020825181559101516001909101555080610761816113d8565b91505061065a565b5060ca546040517f40c10f19000000000000000000000000000000000000000000000000000000008152336004820152602481018390526001600160a01b03909116906340c10f1990604401600060405180830381600087803b1580156107cf57600080fd5b505af11580156107e3573d6000803e3d6000fd5b50505050505050565b6033546001600160a01b031633146108465760405162461bcd60e51b815260206004820181905260248201527f4f776e61626c653a2063616c6c6572206973206e6f7420746865206f776e657260448201526064016102d5565b6108506000610ed1565b565b60975460ff16156108985760405162461bcd60e51b815260206004820152601060248201526f14185d5cd8589b194e881c185d5cd95960821b60448201526064016102d5565b33600090815260cb6020908152604080832084845282529182902082518084019093528054808452600190910154918301919091521561091a5760405162461bcd60e51b815260206004820152601760248201527f5374616b696e673a20616c7265616479207374616b656400000000000000000060448201526064016102d5565b42815233600081815260cb602090815260408083208684528252808320855181558286015160019182015593835260cc8252822080549384018155825290200182905561050a82610f30565b6033546001600160a01b031633146109c05760405162461bcd60e51b815260206004820181905260248201527f4f776e61626c653a2063616c6c6572206973206e6f7420746865206f776e657260448201526064016102d5565b6001600160a01b038116610a3c5760405162461bcd60e51b815260206004820152602660248201527f4f776e61626c653a206e6577206f776e657220697320746865207a65726f206160448201527f646472657373000000000000000000000000000000000000000000000000000060648201526084016102d5565b6102ec81610ed1565b60975460ff1615610a8b5760405162461bcd60e51b815260206004820152601060248201526f14185d5cd8589b194e881c185d5cd95960821b60448201526064016102d5565b6097805460ff191660011790557f62e78cea01bee320cd4e420270b5ea74000d11b0c9f74754ebdbfc544b05a258610ac03390565b6040516001600160a01b03909116815260200160405180910390a1565b60975460ff16610b2f5760405162461bcd60e51b815260206004820152601460248201527f5061757361626c653a206e6f742070617573656400000000000000000000000060448201526064016102d5565b6097805460ff191690557f5db9ee0a495bf2e6ff9c91a7834c1ba4fdd244a5e8aa4e537bd38aeae4b073aa33610ac0565b600081610b6f57506000919050565b617080610b7c83426113c1565b610b8e90670de0b6b3a76400006113a2565b610b989190611382565b92915050565b33600090815260cc602052604081205460609190610bbe906001906113c1565b67ffffffffffffffff811115610be457634e487b7160e01b600052604160045260246000fd5b604051908082528060200260200182016040528015610c0d578160200160208202803683370190505b5090506000805b33600090815260cc6020526040902054811015610cf25733600090815260cc60205260409020805486919083908110610c5d57634e487b7160e01b600052603260045260246000fd5b906000526020600020015414610ce05733600090815260cc60205260409020805482908110610c9c57634e487b7160e01b600052603260045260246000fd5b9060005260206000200154838381518110610cc757634e487b7160e01b600052603260045260246000fd5b602090810291909101015281610cdc816113d8565b9250505b80610cea816113d8565b915050610c14565b50909392505050565b60c954604051632142170760e11b8152306004820152336024820152604481018390526001600160a01b03909116906342842e0e906064015b600060405180830381600087803b158015610d4e57600080fd5b505af1158015610d62573d6000803e3d6000fd5b5050505050565b600054610100900460ff1680610d82575060005460ff16155b610de55760405162461bcd60e51b815260206004820152602e60248201527f496e697469616c697a61626c653a20636f6e747261637420697320616c72656160448201526d191e481a5b9a5d1a585b1a5e995960921b60648201526084016102d5565b600054610100900460ff16158015610e07576000805461ffff19166101011790555b610e0f610f6d565b80156102ec576000805461ff001916905550565b600054610100900460ff1680610e3c575060005460ff16155b610e9f5760405162461bcd60e51b815260206004820152602e60248201527f496e697469616c697a61626c653a20636f6e747261637420697320616c72656160448201526d191e481a5b9a5d1a585b1a5e995960921b60648201526084016102d5565b600054610100900460ff16158015610ec1576000805461ffff19166101011790555b610ec9610f6d565b610e0f61101e565b603380546001600160a01b0383811673ffffffffffffffffffffffffffffffffffffffff19831681179093556040519116919082907f8be0079c531659141344cd1fd0a4f28419497f9722a3daafe3b4186f6b6457e090600090a35050565b60c954604051632142170760e11b8152336004820152306024820152604481018390526001600160a01b03909116906342842e0e90606401610d34565b600054610100900460ff1680610f86575060005460ff16155b610fe95760405162461bcd60e51b815260206004820152602e60248201527f496e697469616c697a61626c653a20636f6e747261637420697320616c72656160448201526d191e481a5b9a5d1a585b1a5e995960921b60648201526084016102d5565b600054610100900460ff16158015610e0f576000805461ffff191661010117905580156102ec576000805461ff001916905550565b600054610100900460ff1680611037575060005460ff16155b61109a5760405162461bcd60e51b815260206004820152602e60248201527f496e697469616c697a61626c653a20636f6e747261637420697320616c72656160448201526d191e481a5b9a5d1a585b1a5e995960921b60648201526084016102d5565b600054610100900460ff161580156110bc576000805461ffff19166101011790555b6097805460ff1916905580156102ec576000805461ff001916905550565b828054828255906000526020600020908101928215611115579160200282015b828111156111155782518255916020019190600101906110fa565b50611121929150611125565b5090565b5b808211156111215760008155600101611126565b80356001600160a01b038116811461115157600080fd5b919050565b600060208284031215611167578081fd5b6111708261113a565b9392505050565b60008060408385031215611189578081fd5b6111928361113a565b91506111a06020840161113a565b90509250929050565b600080600080608085870312156111be578182fd5b6111c78561113a565b93506111d56020860161113a565b925060408501359150606085013567ffffffffffffffff808211156111f8578283fd5b818701915087601f83011261120b578283fd5b81358181111561121d5761121d611409565b604051601f8201601f19908116603f0116810190838211818310171561124557611245611409565b816040528281528a602084870101111561125d578586fd5b82602086016020830137918201602001949094529598949750929550505050565b60008060208385031215611290578182fd5b823567ffffffffffffffff808211156112a7578384fd5b818501915085601f8301126112ba578384fd5b8135818111156112c8578485fd5b8660208260051b85010111156112dc578485fd5b60209290920196919550909350505050565b6000602082840312156112ff578081fd5b81358015158114611170578182fd5b60006020828403121561131f578081fd5b5035919050565b6020808252825182820181905260009190848201906040850190845b8181101561135e57835183529284019291840191600101611342565b50909695505050505050565b6000821982111561137d5761137d6113f3565b500190565b60008261139d57634e487b7160e01b81526012600452602481fd5b500490565b60008160001904831182151516156113bc576113bc6113f3565b500290565b6000828210156113d3576113d36113f3565b500390565b60006000198214156113ec576113ec6113f3565b5060010190565b634e487b7160e01b600052601160045260246000fd5b634e487b7160e01b600052604160045260246000fdfea2646970667358221220772f37fca85c1863d33223813cf904943e602d1f8230883831f780fa2bfd032f64736f6c63430008040033",
  "linkReferences": {},
  "deployedLinkReferences": {}
}